{
  "_format": "hh-sol-artifact-1",
  "contractName": "Voting",
  "sourceName": "contracts/Token.sol",
  "abi": [
    {
      "inputs": [
        {
          "internalType": "address",
          "name": "owner",
          "type": "address"
        }
      ],
      "stateMutability": "nonpayable",
      "type": "constructor"
    },
    {
      "inputs": [],
      "name": "Owner",
      "outputs": [
        {
          "internalType": "address",
          "name": "",
          "type": "address"
        }
      ],
      "stateMutability": "view",
      "type": "function"
    },
    {
      "inputs": [
        {
          "internalType": "bytes32",
          "name": "",
          "type": "bytes32"
        }
      ],
      "name": "candidates",
      "outputs": [
        {
          "internalType": "address",
          "name": "candidate_address",
          "type": "address"
        },
        {
          "internalType": "uint256",
          "name": "votes",
          "type": "uint256"
        }
      ],
      "stateMutability": "view",
      "type": "function"
    },
    {
      "inputs": [
        {
          "internalType": "address",
          "name": "candidate_address",
          "type": "address"
        }
      ],
      "name": "registerCandidate",
      "outputs": [],
      "stateMutability": "nonpayable",
      "type": "function"
    },
    {
      "inputs": [
        {
          "internalType": "bytes32",
          "name": "id",
          "type": "bytes32"
        }
      ],
      "name": "totalVotesFor",
      "outputs": [
        {
          "internalType": "uint256",
          "name": "",
          "type": "uint256"
        }
      ],
      "stateMutability": "view",
      "type": "function"
    },
    {
      "inputs": [
        {
          "internalType": "bytes32",
          "name": "id",
          "type": "bytes32"
        }
      ],
      "name": "voteForCandidate",
      "outputs": [],
      "stateMutability": "nonpayable",
      "type": "function"
    }
  ],
  "bytecode": "0x608060405234801561001057600080fd5b50604051610894380380610894833981810160405281019061003291906100db565b806000806101000a81548173ffffffffffffffffffffffffffffffffffffffff021916908373ffffffffffffffffffffffffffffffffffffffff16021790555050610108565b600080fd5b600073ffffffffffffffffffffffffffffffffffffffff82169050919050565b60006100a88261007d565b9050919050565b6100b88161009d565b81146100c357600080fd5b50565b6000815190506100d5816100af565b92915050565b6000602082840312156100f1576100f0610078565b5b60006100ff848285016100c6565b91505092915050565b61077d806101176000396000f3fe608060405234801561001057600080fd5b50600436106100575760003560e01c80631a0478d51461005c5780632f265cf71461008d57806384aa3b93146100bd578063b4a99a4e146100d9578063cc9ab267146100f7575b600080fd5b61007660048036038101906100719190610474565b610113565b6040516100849291906104fb565b60405180910390f35b6100a760048036038101906100a29190610474565b610157565b6040516100b49190610524565b60405180910390f35b6100d760048036038101906100d2919061056b565b61021c565b005b6100e1610338565b6040516100ee9190610598565b60405180910390f35b610111600480360381019061010c9190610474565b61035c565b005b60016020528060005260406000206000915090508060000160009054906101000a900473ffffffffffffffffffffffffffffffffffffffff16908060010154905082565b60008073ffffffffffffffffffffffffffffffffffffffff166001600084815260200190815260200160002060000160009054906101000a900473ffffffffffffffffffffffffffffffffffffffff1673ffffffffffffffffffffffffffffffffffffffff1614156101fe576040517f08c379a00000000000000000000000000000000000000000000000000000000081526004016101f590610610565b60405180910390fd5b60016000838152602001908152602001600020600101549050919050565b60008054906101000a900473ffffffffffffffffffffffffffffffffffffffff1673ffffffffffffffffffffffffffffffffffffffff163373ffffffffffffffffffffffffffffffffffffffff16146102aa576040517f08c379a00000000000000000000000000000000000000000000000000000000081526004016102a1906106a2565b60405180910390fd5b600060016000836040516020016102c19190610598565b6040516020818303038152906040528051906020012081526020019081526020016000209050818160000160006101000a81548173ffffffffffffffffffffffffffffffffffffffff021916908373ffffffffffffffffffffffffffffffffffffffff160217905550600081600101819055505050565b60008054906101000a900473ffffffffffffffffffffffffffffffffffffffff1681565b600073ffffffffffffffffffffffffffffffffffffffff166001600083815260200190815260200160002060000160009054906101000a900473ffffffffffffffffffffffffffffffffffffffff1673ffffffffffffffffffffffffffffffffffffffff161415610402576040517f08c379a00000000000000000000000000000000000000000000000000000000081526004016103f990610610565b60405180910390fd5b6000600160008381526020019081526020016000209050600181600101600082825461042e91906106f1565b925050819055505050565b600080fd5b6000819050919050565b6104518161043e565b811461045c57600080fd5b50565b60008135905061046e81610448565b92915050565b60006020828403121561048a57610489610439565b5b60006104988482850161045f565b91505092915050565b600073ffffffffffffffffffffffffffffffffffffffff82169050919050565b60006104cc826104a1565b9050919050565b6104dc816104c1565b82525050565b6000819050919050565b6104f5816104e2565b82525050565b600060408201905061051060008301856104d3565b61051d60208301846104ec565b9392505050565b600060208201905061053960008301846104ec565b92915050565b610548816104c1565b811461055357600080fd5b50565b6000813590506105658161053f565b92915050565b60006020828403121561058157610580610439565b5b600061058f84828501610556565b91505092915050565b60006020820190506105ad60008301846104d3565b92915050565b600082825260208201905092915050565b7f43616e64696461746520646f6573206e6f742065786973742e00000000000000600082015250565b60006105fa6019836105b3565b9150610605826105c4565b602082019050919050565b60006020820190508181036000830152610629816105ed565b9050919050565b7f4f6e6c79206f776e65722063616e2063616c6c20746869732066756e6374696f60008201527f6e2e000000000000000000000000000000000000000000000000000000000000602082015250565b600061068c6022836105b3565b915061069782610630565b604082019050919050565b600060208201905081810360008301526106bb8161067f565b9050919050565b7f4e487b7100000000000000000000000000000000000000000000000000000000600052601160045260246000fd5b60006106fc826104e2565b9150610707836104e2565b9250827fffffffffffffffffffffffffffffffffffffffffffffffffffffffffffffffff0382111561073c5761073b6106c2565b5b82820190509291505056fea2646970667358221220d52b392a840236d67b30a0e41a551b01eaaff2a6e6f101f177e5e2708efa705464736f6c63430008090033",
  "linkReferences": {},
  "deployedLinkReferences": {}
}