{
  "_format": "hh-sol-artifact-1",
  "contractName": "MetaKeepLambdaEIP712Base",
  "sourceName": "contracts/MetaKeepLambda.sol",
  "abi": [
    {
      "inputs": [
        {
          "internalType": "string",
          "name": "lambdaName",
          "type": "string"
        }
      ],
      "stateMutability": "nonpayable",
      "type": "constructor"
    },
    {
      "inputs": [],
      "name": "ERC712_VERSION",
      "outputs": [
        {
          "internalType": "string",
          "name": "",
          "type": "string"
        }
      ],
      "stateMutability": "view",
      "type": "function"
    },
    {
      "inputs": [],
      "name": "domainSeperator",
      "outputs": [
        {
          "internalType": "bytes32",
          "name": "",
          "type": "bytes32"
        }
      ],
      "stateMutability": "view",
      "type": "function"
    }
  ],
  "bytecode": "0x608060405234801561001057600080fd5b506040516105ab3803806105ab8339818101604052810190610032919061027c565b6100418161004760201b60201c565b50610372565b6040518060800160405280604f815260200161055c604f91398051906020012081805190602001206040518060400160405280600181526020017f310000000000000000000000000000000000000000000000000000000000000081525080519060200120306100bb6100f160201b60201c565b60001b6040516020016100d295949392919061031f565b6040516020818303038152906040528051906020012060008190555050565b6000804690508091505090565b6000604051905090565b600080fd5b600080fd5b600080fd5b600080fd5b6000601f19601f8301169050919050565b7f4e487b7100000000000000000000000000000000000000000000000000000000600052604160045260246000fd5b6101658261011c565b810181811067ffffffffffffffff821117156101845761018361012d565b5b80604052505050565b60006101976100fe565b90506101a3828261015c565b919050565b600067ffffffffffffffff8211156101c3576101c261012d565b5b6101cc8261011c565b9050602081019050919050565b60005b838110156101f75780820151818401526020810190506101dc565b83811115610206576000848401525b50505050565b600061021f61021a846101a8565b61018d565b90508281526020810184848401111561023b5761023a610117565b5b6102468482856101d9565b509392505050565b600082601f83011261026357610262610112565b5b815161027384826020860161020c565b91505092915050565b60006020828403121561029257610291610108565b5b600082015167ffffffffffffffff8111156102b0576102af61010d565b5b6102bc8482850161024e565b91505092915050565b6000819050919050565b6102d8816102c5565b82525050565b600073ffffffffffffffffffffffffffffffffffffffff82169050919050565b6000610309826102de565b9050919050565b610319816102fe565b82525050565b600060a08201905061033460008301886102cf565b61034160208301876102cf565b61034e60408301866102cf565b61035b6060830185610310565b61036860808301846102cf565b9695505050505050565b6101db806103816000396000f3fe608060405234801561001057600080fd5b50600436106100365760003560e01c80630f7e59701461003b578063cb73ac5614610059575b600080fd5b610043610077565b604051610050919061014f565b60405180910390f35b6100616100b0565b60405161006e919061018a565b60405180910390f35b6040518060400160405280600181526020017f310000000000000000000000000000000000000000000000000000000000000081525081565b60005481565b600081519050919050565b600082825260208201905092915050565b60005b838110156100f05780820151818401526020810190506100d5565b838111156100ff576000848401525b50505050565b6000601f19601f8301169050919050565b6000610121826100b6565b61012b81856100c1565b935061013b8185602086016100d2565b61014481610105565b840191505092915050565b600060208201905081810360008301526101698184610116565b905092915050565b6000819050919050565b61018481610171565b82525050565b600060208201905061019f600083018461017b565b9291505056fea26469706673582212202d8ce47e3291016a3efa4c662341a2a10114900ceca8e86825384e931855501964736f6c63430008090033454950373132446f6d61696e28737472696e67206e616d652c737472696e672076657273696f6e2c6164647265737320766572696679696e67436f6e74726163742c627974657333322073616c7429",
  "linkReferences": {},
  "deployedLinkReferences": {}
}