{
  "_format": "hh-sol-artifact-1",
  "contractName": "MetaKeepLambda",
  "sourceName": "contracts/MetaKeepLambda.sol",
  "abi": [
    {
      "inputs": [
        {
          "internalType": "address",
          "name": "lambdaOwner",
          "type": "address"
        },
        {
          "internalType": "string",
          "name": "lambdaName",
          "type": "string"
        }
      ],
      "stateMutability": "nonpayable",
      "type": "constructor"
    },
    {
      "anonymous": false,
      "inputs": [
        {
          "indexed": true,
          "internalType": "bytes32",
          "name": "role",
          "type": "bytes32"
        },
        {
          "indexed": true,
          "internalType": "bytes32",
          "name": "previousAdminRole",
          "type": "bytes32"
        },
        {
          "indexed": true,
          "internalType": "bytes32",
          "name": "newAdminRole",
          "type": "bytes32"
        }
      ],
      "name": "RoleAdminChanged",
      "type": "event"
    },
    {
      "anonymous": false,
      "inputs": [
        {
          "indexed": true,
          "internalType": "bytes32",
          "name": "role",
          "type": "bytes32"
        },
        {
          "indexed": true,
          "internalType": "address",
          "name": "account",
          "type": "address"
        },
        {
          "indexed": true,
          "internalType": "address",
          "name": "sender",
          "type": "address"
        }
      ],
      "name": "RoleGranted",
      "type": "event"
    },
    {
      "anonymous": false,
      "inputs": [
        {
          "indexed": true,
          "internalType": "bytes32",
          "name": "role",
          "type": "bytes32"
        },
        {
          "indexed": true,
          "internalType": "address",
          "name": "account",
          "type": "address"
        },
        {
          "indexed": true,
          "internalType": "address",
          "name": "sender",
          "type": "address"
        }
      ],
      "name": "RoleRevoked",
      "type": "event"
    },
    {
      "inputs": [],
      "name": "DEFAULT_ADMIN_ROLE",
      "outputs": [
        {
          "internalType": "bytes32",
          "name": "",
          "type": "bytes32"
        }
      ],
      "stateMutability": "view",
      "type": "function"
    },
    {
      "inputs": [],
      "name": "ERC712_VERSION",
      "outputs": [
        {
          "internalType": "string",
          "name": "",
          "type": "string"
        }
      ],
      "stateMutability": "view",
      "type": "function"
    },
    {
      "inputs": [],
      "name": "METAKEEP_LAMBDA_ADMIN_ROLE",
      "outputs": [
        {
          "internalType": "bytes32",
          "name": "",
          "type": "bytes32"
        }
      ],
      "stateMutability": "view",
      "type": "function"
    },
    {
      "inputs": [
        {
          "internalType": "address",
          "name": "userAddress",
          "type": "address"
        },
        {
          "internalType": "uint256",
          "name": "nonce",
          "type": "uint256"
        },
        {
          "internalType": "bytes32",
          "name": "sigR",
          "type": "bytes32"
        },
        {
          "internalType": "bytes32",
          "name": "sigS",
          "type": "bytes32"
        },
        {
          "internalType": "uint8",
          "name": "sigV",
          "type": "uint8"
        }
      ],
      "name": "cancelMetaKeepLambdaNonce",
      "outputs": [],
      "stateMutability": "nonpayable",
      "type": "function"
    },
    {
      "inputs": [],
      "name": "domainSeperator",
      "outputs": [
        {
          "internalType": "bytes32",
          "name": "",
          "type": "bytes32"
        }
      ],
      "stateMutability": "view",
      "type": "function"
    },
    {
      "inputs": [
        {
          "internalType": "address",
          "name": "userAddress",
          "type": "address"
        },
        {
          "internalType": "uint256",
          "name": "nonce",
          "type": "uint256"
        },
        {
          "internalType": "uint256",
          "name": "validFrom",
          "type": "uint256"
        },
        {
          "internalType": "uint256",
          "name": "validUpto",
          "type": "uint256"
        },
        {
          "internalType": "bytes",
          "name": "functionSignature",
          "type": "bytes"
        },
        {
          "internalType": "bytes32",
          "name": "sigR",
          "type": "bytes32"
        },
        {
          "internalType": "bytes32",
          "name": "sigS",
          "type": "bytes32"
        },
        {
          "internalType": "uint8",
          "name": "sigV",
          "type": "uint8"
        }
      ],
      "name": "executeMetaKeepLambdaTransaction",
      "outputs": [
        {
          "internalType": "bool",
          "name": "",
          "type": "bool"
        }
      ],
      "stateMutability": "payable",
      "type": "function"
    },
    {
      "inputs": [
        {
          "internalType": "bytes32",
          "name": "role",
          "type": "bytes32"
        }
      ],
      "name": "getRoleAdmin",
      "outputs": [
        {
          "internalType": "bytes32",
          "name": "",
          "type": "bytes32"
        }
      ],
      "stateMutability": "view",
      "type": "function"
    },
    {
      "inputs": [
        {
          "internalType": "bytes32",
          "name": "role",
          "type": "bytes32"
        },
        {
          "internalType": "address",
          "name": "account",
          "type": "address"
        }
      ],
      "name": "grantRole",
      "outputs": [],
      "stateMutability": "nonpayable",
      "type": "function"
    },
    {
      "inputs": [
        {
          "internalType": "bytes32",
          "name": "role",
          "type": "bytes32"
        },
        {
          "internalType": "address",
          "name": "account",
          "type": "address"
        }
      ],
      "name": "hasRole",
      "outputs": [
        {
          "internalType": "bool",
          "name": "",
          "type": "bool"
        }
      ],
      "stateMutability": "view",
      "type": "function"
    },
    {
      "inputs": [
        {
          "internalType": "address",
          "name": "userAddress",
          "type": "address"
        },
        {
          "internalType": "uint256",
          "name": "nonce",
          "type": "uint256"
        }
      ],
      "name": "metaKeepLambdaNonceState",
      "outputs": [
        {
          "internalType": "bool",
          "name": "",
          "type": "bool"
        }
      ],
      "stateMutability": "view",
      "type": "function"
    },
    {
      "inputs": [
        {
          "internalType": "bytes32",
          "name": "role",
          "type": "bytes32"
        },
        {
          "internalType": "address",
          "name": "account",
          "type": "address"
        }
      ],
      "name": "renounceRole",
      "outputs": [],
      "stateMutability": "nonpayable",
      "type": "function"
    },
    {
      "inputs": [
        {
          "internalType": "bytes32",
          "name": "role",
          "type": "bytes32"
        },
        {
          "internalType": "address",
          "name": "account",
          "type": "address"
        }
      ],
      "name": "revokeRole",
      "outputs": [],
      "stateMutability": "nonpayable",
      "type": "function"
    },
    {
      "inputs": [
        {
          "internalType": "bytes4",
          "name": "interfaceId",
          "type": "bytes4"
        }
      ],
      "name": "supportsInterface",
      "outputs": [
        {
          "internalType": "bool",
          "name": "",
          "type": "bool"
        }
      ],
      "stateMutability": "view",
      "type": "function"
    }
  ],
  "bytecode": "0x60806040523480156200001157600080fd5b506040516200264138038062002641833981810160405281019062000037919062000574565b81816200004a81620000b860201b60201c565b506200007d7f7b1eebef105bd5bbc0d16725b5cf2934cb42ba2f36ad8efeb6a7200f63f11980826200016760201b60201c565b620000af7f7b1eebef105bd5bbc0d16725b5cf2934cb42ba2f36ad8efeb6a7200f63f11980806200017d60201b60201c565b50505062000663565b6040518060800160405280604f8152602001620025f2604f91398051906020012081805190602001206040518060400160405280600181526020017f310000000000000000000000000000000000000000000000000000000000000081525080519060200120306200012f620001e160201b60201c565b60001b6040516020016200014895949392919062000606565b6040516020818303038152906040528051906020012060008190555050565b620001798282620001ee60201b60201c565b5050565b60006200019083620002df60201b60201c565b90508160016000858152602001908152602001600020600101819055508181847fbd79b86ffe0ab8e8776151514217cd7cacd52c909f66475c3af44e129f0b00ff60405160405180910390a4505050565b6000804690508091505090565b620002008282620002ff60201b60201c565b620002db57600180600084815260200190815260200160002060000160008373ffffffffffffffffffffffffffffffffffffffff1673ffffffffffffffffffffffffffffffffffffffff16815260200190815260200160002060006101000a81548160ff021916908315150217905550620002806200036a60201b60201c565b73ffffffffffffffffffffffffffffffffffffffff168173ffffffffffffffffffffffffffffffffffffffff16837f2f8788117e7eff1d82e926ec794901d17c78024a50270940304540a733656f0d60405160405180910390a45b5050565b600060016000838152602001908152602001600020600101549050919050565b60006001600084815260200190815260200160002060000160008373ffffffffffffffffffffffffffffffffffffffff1673ffffffffffffffffffffffffffffffffffffffff16815260200190815260200160002060009054906101000a900460ff16905092915050565b600033905090565b6000604051905090565b600080fd5b600080fd5b600073ffffffffffffffffffffffffffffffffffffffff82169050919050565b6000620003b38262000386565b9050919050565b620003c581620003a6565b8114620003d157600080fd5b50565b600081519050620003e581620003ba565b92915050565b600080fd5b600080fd5b6000601f19601f8301169050919050565b7f4e487b7100000000000000000000000000000000000000000000000000000000600052604160045260246000fd5b6200044082620003f5565b810181811067ffffffffffffffff8211171562000462576200046162000406565b5b80604052505050565b60006200047762000372565b905062000485828262000435565b919050565b600067ffffffffffffffff821115620004a857620004a762000406565b5b620004b382620003f5565b9050602081019050919050565b60005b83811015620004e0578082015181840152602081019050620004c3565b83811115620004f0576000848401525b50505050565b60006200050d62000507846200048a565b6200046b565b9050828152602081018484840111156200052c576200052b620003f0565b5b62000539848285620004c0565b509392505050565b600082601f830112620005595762000558620003eb565b5b81516200056b848260208601620004f6565b91505092915050565b600080604083850312156200058e576200058d6200037c565b5b60006200059e85828601620003d4565b925050602083015167ffffffffffffffff811115620005c257620005c162000381565b5b620005d08582860162000541565b9150509250929050565b6000819050919050565b620005ef81620005da565b82525050565b6200060081620003a6565b82525050565b600060a0820190506200061d6000830188620005e4565b6200062c6020830187620005e4565b6200063b6040830186620005e4565b6200064a6060830185620005f5565b620006596080830184620005e4565b9695505050505050565b611f7f80620006736000396000f3fe6080604052600436106100c25760003560e01c806391d148541161007f578063cb73ac5611610059578063cb73ac561461027f578063d547741f146102aa578063ebe9b0f2146102d3578063fca8844714610310576100c2565b806391d14854146101ee578063a217fddf1461022b578063c0dcaeeb14610256576100c2565b806301ffc9a7146100c75780630f7e597014610104578063243ed11d1461012f578063248a9ca31461015f5780632f2ff15d1461019c57806336568abe146101c5575b600080fd5b3480156100d357600080fd5b506100ee60048036038101906100e99190611101565b61033b565b6040516100fb9190611149565b60405180910390f35b34801561011057600080fd5b506101196103b5565b60405161012691906111fd565b60405180910390f35b61014960048036038101906101449190611457565b6103ee565b6040516101569190611149565b60405180910390f35b34801561016b57600080fd5b5061018660048036038101906101819190611529565b610610565b6040516101939190611565565b60405180910390f35b3480156101a857600080fd5b506101c360048036038101906101be9190611580565b610630565b005b3480156101d157600080fd5b506101ec60048036038101906101e79190611580565b610659565b005b3480156101fa57600080fd5b5061021560048036038101906102109190611580565b6106dc565b6040516102229190611149565b60405180910390f35b34801561023757600080fd5b50610240610747565b60405161024d9190611565565b60405180910390f35b34801561026257600080fd5b5061027d600480360381019061027891906115c0565b61074e565b005b34801561028b57600080fd5b50610294610863565b6040516102a19190611565565b60405180910390f35b3480156102b657600080fd5b506102d160048036038101906102cc9190611580565b610869565b005b3480156102df57600080fd5b506102fa60048036038101906102f5919061163b565b610892565b6040516103079190611149565b60405180910390f35b34801561031c57600080fd5b506103256108fa565b6040516103329190611565565b60405180910390f35b60007f7965db0b000000000000000000000000000000000000000000000000000000007bffffffffffffffffffffffffffffffffffffffffffffffffffffffff1916827bffffffffffffffffffffffffffffffffffffffffffffffffffffffff191614806103ae57506103ad8261091e565b5b9050919050565b6040518060400160405280600181526020017f310000000000000000000000000000000000000000000000000000000000000081525081565b60006103fc89898989610988565b60006040518060a001604052808a81526020018981526020018881526020018b73ffffffffffffffffffffffffffffffffffffffff16815260200187815250905060006040518060a0016040528060718152602001611ed96071913980519060200120826000015183602001518460400151856060015186608001518051906020012060405160200161049496959493929190611699565b6040516020818303038152906040528051906020012090506104b98b82888888610a1c565b6104f8576040517f08c379a00000000000000000000000000000000000000000000000000000000081526004016104ef90611746565b60405180910390fd5b6001600260008d73ffffffffffffffffffffffffffffffffffffffff1673ffffffffffffffffffffffffffffffffffffffff16815260200190815260200160002060008c815260200190815260200160002060006101000a81548160ff0219169083151502179055506000803073ffffffffffffffffffffffffffffffffffffffff16898e60405160200161058e9291906117f5565b6040516020818303038152906040526040516105aa919061181d565b6000604051808303816000865af19150503d80600081146105e7576040519150601f19603f3d011682016040523d82523d6000602084013e6105ec565b606091505b5091509150816105fd578060208201fd5b8194505050505098975050505050505050565b600060016000838152602001908152602001600020600101549050919050565b61063982610610565b61064a81610645610b1d565b610b25565b6106548383610bc2565b505050565b610661610b1d565b73ffffffffffffffffffffffffffffffffffffffff168173ffffffffffffffffffffffffffffffffffffffff16146106ce576040517f08c379a00000000000000000000000000000000000000000000000000000000081526004016106c5906118a6565b60405180910390fd5b6106d88282610ca2565b5050565b60006001600084815260200190815260200160002060000160008373ffffffffffffffffffffffffffffffffffffffff1673ffffffffffffffffffffffffffffffffffffffff16815260200190815260200160002060009054906101000a900460ff16905092915050565b6000801b81565b6107588585610d84565b6000604051806060016040528060358152602001611ea46035913980519060200120858760405160200161078e939291906118c6565b6040516020818303038152906040528051906020012090506107b38682868686610a1c565b6107f2576040517f08c379a00000000000000000000000000000000000000000000000000000000081526004016107e990611746565b60405180910390fd5b6001600260008873ffffffffffffffffffffffffffffffffffffffff1673ffffffffffffffffffffffffffffffffffffffff168152602001908152602001600020600087815260200190815260200160002060006101000a81548160ff021916908315150217905550505050505050565b60005481565b61087282610610565b6108838161087e610b1d565b610b25565b61088d8383610ca2565b505050565b6000600260008473ffffffffffffffffffffffffffffffffffffffff1673ffffffffffffffffffffffffffffffffffffffff168152602001908152602001600020600083815260200190815260200160002060009054906101000a900460ff16905092915050565b7f7b1eebef105bd5bbc0d16725b5cf2934cb42ba2f36ad8efeb6a7200f63f1198081565b60007f01ffc9a7000000000000000000000000000000000000000000000000000000007bffffffffffffffffffffffffffffffffffffffffffffffffffffffff1916827bffffffffffffffffffffffffffffffffffffffffffffffffffffffff1916149050919050565b8142116109ca576040517f08c379a00000000000000000000000000000000000000000000000000000000081526004016109c19061196f565b60405180910390fd5b804210610a0c576040517f08c379a0000000000000000000000000000000000000000000000000000000008152600401610a0390611a01565b60405180910390fd5b610a168484610d84565b50505050565b60008073ffffffffffffffffffffffffffffffffffffffff168673ffffffffffffffffffffffffffffffffffffffff161415610a8d576040517f08c379a0000000000000000000000000000000000000000000000000000000008152600401610a8490611a6d565b60405180910390fd5b6001610a9886610e26565b83868660405160008152602001604052604051610ab89493929190611a9c565b6020604051602081039080840390855afa158015610ada573d6000803e3d6000fd5b5050506020604051035173ffffffffffffffffffffffffffffffffffffffff168673ffffffffffffffffffffffffffffffffffffffff1614905095945050505050565b600033905090565b610b2f82826106dc565b610bbe57610b548173ffffffffffffffffffffffffffffffffffffffff166014610e59565b610b628360001c6020610e59565b604051602001610b73929190611bb5565b6040516020818303038152906040526040517f08c379a0000000000000000000000000000000000000000000000000000000008152600401610bb591906111fd565b60405180910390fd5b5050565b610bcc82826106dc565b610c9e57600180600084815260200190815260200160002060000160008373ffffffffffffffffffffffffffffffffffffffff1673ffffffffffffffffffffffffffffffffffffffff16815260200190815260200160002060006101000a81548160ff021916908315150217905550610c43610b1d565b73ffffffffffffffffffffffffffffffffffffffff168173ffffffffffffffffffffffffffffffffffffffff16837f2f8788117e7eff1d82e926ec794901d17c78024a50270940304540a733656f0d60405160405180910390a45b5050565b610cac82826106dc565b15610d805760006001600084815260200190815260200160002060000160008373ffffffffffffffffffffffffffffffffffffffff1673ffffffffffffffffffffffffffffffffffffffff16815260200190815260200160002060006101000a81548160ff021916908315150217905550610d25610b1d565b73ffffffffffffffffffffffffffffffffffffffff168173ffffffffffffffffffffffffffffffffffffffff16837ff6391f5c32d9c69d2a47ea670b442974b53935d1edc7fd64eb21e047a839171b60405160405180910390a45b5050565b600260008373ffffffffffffffffffffffffffffffffffffffff1673ffffffffffffffffffffffffffffffffffffffff168152602001908152602001600020600082815260200190815260200160002060009054906101000a900460ff1615610e22576040517f08c379a0000000000000000000000000000000000000000000000000000000008152600401610e1990611c3b565b60405180910390fd5b5050565b6000805482604051602001610e3c929190611cc8565b604051602081830303815290604052805190602001209050919050565b606060006002836002610e6c9190611d2e565b610e769190611d88565b67ffffffffffffffff811115610e8f57610e8e6112bd565b5b6040519080825280601f01601f191660200182016040528015610ec15781602001600182028036833780820191505090505b5090507f300000000000000000000000000000000000000000000000000000000000000081600081518110610ef957610ef8611dde565b5b60200101907effffffffffffffffffffffffffffffffffffffffffffffffffffffffffffff1916908160001a9053507f780000000000000000000000000000000000000000000000000000000000000081600181518110610f5d57610f5c611dde565b5b60200101907effffffffffffffffffffffffffffffffffffffffffffffffffffffffffffff1916908160001a90535060006001846002610f9d9190611d2e565b610fa79190611d88565b90505b6001811115611047577f3031323334353637383961626364656600000000000000000000000000000000600f861660108110610fe957610fe8611dde565b5b1a60f81b82828151811061100057610fff611dde565b5b60200101907effffffffffffffffffffffffffffffffffffffffffffffffffffffffffffff1916908160001a905350600485901c94508061104090611e0d565b9050610faa565b506000841461108b576040517f08c379a000000000000000000000000000000000000000000000000000000000815260040161108290611e83565b60405180910390fd5b8091505092915050565b6000604051905090565b600080fd5b600080fd5b60007fffffffff0000000000000000000000000000000000000000000000000000000082169050919050565b6110de816110a9565b81146110e957600080fd5b50565b6000813590506110fb816110d5565b92915050565b6000602082840312156111175761111661109f565b5b6000611125848285016110ec565b91505092915050565b60008115159050919050565b6111438161112e565b82525050565b600060208201905061115e600083018461113a565b92915050565b600081519050919050565b600082825260208201905092915050565b60005b8381101561119e578082015181840152602081019050611183565b838111156111ad576000848401525b50505050565b6000601f19601f8301169050919050565b60006111cf82611164565b6111d9818561116f565b93506111e9818560208601611180565b6111f2816111b3565b840191505092915050565b6000602082019050818103600083015261121781846111c4565b905092915050565b600073ffffffffffffffffffffffffffffffffffffffff82169050919050565b600061124a8261121f565b9050919050565b61125a8161123f565b811461126557600080fd5b50565b60008135905061127781611251565b92915050565b6000819050919050565b6112908161127d565b811461129b57600080fd5b50565b6000813590506112ad81611287565b92915050565b600080fd5b600080fd5b7f4e487b7100000000000000000000000000000000000000000000000000000000600052604160045260246000fd5b6112f5826111b3565b810181811067ffffffffffffffff82111715611314576113136112bd565b5b80604052505050565b6000611327611095565b905061133382826112ec565b919050565b600067ffffffffffffffff821115611353576113526112bd565b5b61135c826111b3565b9050602081019050919050565b82818337600083830152505050565b600061138b61138684611338565b61131d565b9050828152602081018484840111156113a7576113a66112b8565b5b6113b2848285611369565b509392505050565b600082601f8301126113cf576113ce6112b3565b5b81356113df848260208601611378565b91505092915050565b6000819050919050565b6113fb816113e8565b811461140657600080fd5b50565b600081359050611418816113f2565b92915050565b600060ff82169050919050565b6114348161141e565b811461143f57600080fd5b50565b6000813590506114518161142b565b92915050565b600080600080600080600080610100898b0312156114785761147761109f565b5b60006114868b828c01611268565b98505060206114978b828c0161129e565b97505060406114a88b828c0161129e565b96505060606114b98b828c0161129e565b955050608089013567ffffffffffffffff8111156114da576114d96110a4565b5b6114e68b828c016113ba565b94505060a06114f78b828c01611409565b93505060c06115088b828c01611409565b92505060e06115198b828c01611442565b9150509295985092959890939650565b60006020828403121561153f5761153e61109f565b5b600061154d84828501611409565b91505092915050565b61155f816113e8565b82525050565b600060208201905061157a6000830184611556565b92915050565b600080604083850312156115975761159661109f565b5b60006115a585828601611409565b92505060206115b685828601611268565b9150509250929050565b600080600080600060a086880312156115dc576115db61109f565b5b60006115ea88828901611268565b95505060206115fb8882890161129e565b945050604061160c88828901611409565b935050606061161d88828901611409565b925050608061162e88828901611442565b9150509295509295909350565b600080604083850312156116525761165161109f565b5b600061166085828601611268565b92505060206116718582860161129e565b9150509250929050565b6116848161127d565b82525050565b6116938161123f565b82525050565b600060c0820190506116ae6000830189611556565b6116bb602083018861167b565b6116c8604083018761167b565b6116d5606083018661167b565b6116e2608083018561168a565b6116ef60a0830184611556565b979650505050505050565b7f4d6574614b6565704c616d6264613a20536967206e6f74206d61746368000000600082015250565b6000611730601d8361116f565b915061173b826116fa565b602082019050919050565b6000602082019050818103600083015261175f81611723565b9050919050565b600081519050919050565b600081905092915050565b600061178782611766565b6117918185611771565b93506117a1818560208601611180565b80840191505092915050565b60008160601b9050919050565b60006117c5826117ad565b9050919050565b60006117d7826117ba565b9050919050565b6117ef6117ea8261123f565b6117cc565b82525050565b6000611801828561177c565b915061180d82846117de565b6014820191508190509392505050565b6000611829828461177c565b915081905092915050565b7f416363657373436f6e74726f6c3a2063616e206f6e6c792072656e6f756e636560008201527f20726f6c657320666f722073656c660000000000000000000000000000000000602082015250565b6000611890602f8361116f565b915061189b82611834565b604082019050919050565b600060208201905081810360008301526118bf81611883565b9050919050565b60006060820190506118db6000830186611556565b6118e8602083018561167b565b6118f5604083018461168a565b949350505050565b7f4d6574614b6565704c616d6264613a20417574686f72697a6174696f6e20697360008201527f206e6f742079657420676976656e000000000000000000000000000000000000602082015250565b6000611959602e8361116f565b9150611964826118fd565b604082019050919050565b600060208201905081810360008301526119888161194c565b9050919050565b7f4d6574614b6565704c616d6264613a20417574686f72697a6174696f6e20686160008201527f7320657870697265640000000000000000000000000000000000000000000000602082015250565b60006119eb60298361116f565b91506119f68261198f565b604082019050919050565b60006020820190508181036000830152611a1a816119de565b9050919050565b7f4d6574614b6565704c616d6264613a20494e56414c49445f5349474e45520000600082015250565b6000611a57601e8361116f565b9150611a6282611a21565b602082019050919050565b60006020820190508181036000830152611a8681611a4a565b9050919050565b611a968161141e565b82525050565b6000608082019050611ab16000830187611556565b611abe6020830186611a8d565b611acb6040830185611556565b611ad86060830184611556565b95945050505050565b600081905092915050565b7f416363657373436f6e74726f6c3a206163636f756e7420000000000000000000600082015250565b6000611b22601783611ae1565b9150611b2d82611aec565b601782019050919050565b6000611b4382611164565b611b4d8185611ae1565b9350611b5d818560208601611180565b80840191505092915050565b7f206973206d697373696e6720726f6c6520000000000000000000000000000000600082015250565b6000611b9f601183611ae1565b9150611baa82611b69565b601182019050919050565b6000611bc082611b15565b9150611bcc8285611b38565b9150611bd782611b92565b9150611be38284611b38565b91508190509392505050565b7f4d6574614b6565704c616d6264613a204e6f6e63652055736564000000000000600082015250565b6000611c25601a8361116f565b9150611c3082611bef565b602082019050919050565b60006020820190508181036000830152611c5481611c18565b9050919050565b7f1901000000000000000000000000000000000000000000000000000000000000600082015250565b6000611c91600283611ae1565b9150611c9c82611c5b565b600282019050919050565b6000819050919050565b611cc2611cbd826113e8565b611ca7565b82525050565b6000611cd382611c84565b9150611cdf8285611cb1565b602082019150611cef8284611cb1565b6020820191508190509392505050565b7f4e487b7100000000000000000000000000000000000000000000000000000000600052601160045260246000fd5b6000611d398261127d565b9150611d448361127d565b9250817fffffffffffffffffffffffffffffffffffffffffffffffffffffffffffffffff0483118215151615611d7d57611d7c611cff565b5b828202905092915050565b6000611d938261127d565b9150611d9e8361127d565b9250827fffffffffffffffffffffffffffffffffffffffffffffffffffffffffffffffff03821115611dd357611dd2611cff565b5b828201905092915050565b7f4e487b7100000000000000000000000000000000000000000000000000000000600052603260045260246000fd5b6000611e188261127d565b91506000821415611e2c57611e2b611cff565b5b600182039050919050565b7f537472696e67733a20686578206c656e67746820696e73756666696369656e74600082015250565b6000611e6d60208361116f565b9150611e7882611e37565b602082019050919050565b60006020820190508181036000830152611e9c81611e60565b905091905056fe4d6574614b6565704c616d62646143616e63656c4e6f6e63652875696e74323536206e6f6e63652c616464726573732066726f6d294d6574614b6565704c616d6264615472616e73616374696f6e2875696e74323536206e6f6e63652c75696e743235362076616c696446726f6d2c75696e743235362076616c69645570746f2c616464726573732066726f6d2c62797465732066756e6374696f6e5369676e617475726529a264697066735822122078c2e169d3ae78a46b051e6b01b0bcc7be82c6ea4dac523da1b54ae90dc0107564736f6c63430008090033454950373132446f6d61696e28737472696e67206e616d652c737472696e672076657273696f6e2c6164647265737320766572696679696e67436f6e74726163742c627974657333322073616c7429",
  "linkReferences": {},
  "deployedLinkReferences": {}
}