{
  "_format": "hh-sol-artifact-1",
  "contractName": "Voting",
  "sourceName": "contracts/Voting.sol",
  "abi": [
    {
      "inputs": [
        {
          "internalType": "address",
          "name": "owner",
          "type": "address"
        }
      ],
      "stateMutability": "nonpayable",
      "type": "constructor"
    },
    {
      "inputs": [
        {
          "internalType": "bytes32",
          "name": "id",
          "type": "bytes32"
        }
      ],
      "name": "getCandidate",
      "outputs": [
        {
          "internalType": "address",
          "name": "",
          "type": "address"
        },
        {
          "internalType": "uint256",
          "name": "",
          "type": "uint256"
        }
      ],
      "stateMutability": "view",
      "type": "function"
    },
    {
      "inputs": [],
      "name": "getOwner",
      "outputs": [
        {
          "internalType": "address",
          "name": "",
          "type": "address"
        }
      ],
      "stateMutability": "view",
      "type": "function"
    },
    {
      "inputs": [
        {
          "internalType": "bytes32[]",
          "name": "ids",
          "type": "bytes32[]"
        }
      ],
      "name": "getWinner",
      "outputs": [
        {
          "internalType": "address",
          "name": "",
          "type": "address"
        }
      ],
      "stateMutability": "view",
      "type": "function"
    },
    {
      "inputs": [
        {
          "internalType": "address",
          "name": "candidate_address",
          "type": "address"
        }
      ],
      "name": "registerCandidate",
      "outputs": [],
      "stateMutability": "nonpayable",
      "type": "function"
    },
    {
      "inputs": [
        {
          "internalType": "bytes32",
          "name": "id",
          "type": "bytes32"
        }
      ],
      "name": "totalVotesFor",
      "outputs": [
        {
          "internalType": "uint256",
          "name": "",
          "type": "uint256"
        }
      ],
      "stateMutability": "view",
      "type": "function"
    },
    {
      "inputs": [
        {
          "internalType": "bytes32",
          "name": "id",
          "type": "bytes32"
        }
      ],
      "name": "voteForCandidate",
      "outputs": [],
      "stateMutability": "nonpayable",
      "type": "function"
    }
  ],
  "bytecode": "0x608060405234801561001057600080fd5b506040516200100138038062001001833981810160405281019061003491906100dd565b806000806101000a81548173ffffffffffffffffffffffffffffffffffffffff021916908373ffffffffffffffffffffffffffffffffffffffff1602179055505061010a565b600080fd5b600073ffffffffffffffffffffffffffffffffffffffff82169050919050565b60006100aa8261007f565b9050919050565b6100ba8161009f565b81146100c557600080fd5b50565b6000815190506100d7816100b1565b92915050565b6000602082840312156100f3576100f261007a565b5b6000610101848285016100c8565b91505092915050565b610ee7806200011a6000396000f3fe608060405234801561001057600080fd5b50600436106100625760003560e01c80632f265cf71461006757806384aa3b9314610097578063893d20e8146100b35780639149d9e1146100d1578063cc9ab26714610101578063dfb6419f1461011d575b600080fd5b610081600480360381019061007c9190610889565b61014e565b60405161008e91906108cf565b60405180910390f35b6100b160048036038101906100ac9190610948565b610213565b005b6100bb61032f565b6040516100c89190610984565b60405180910390f35b6100eb60048036038101906100e69190610af8565b610358565b6040516100f89190610984565b60405180910390f35b61011b60048036038101906101169190610889565b6104d8565b005b61013760048036038101906101329190610889565b61073f565b604051610145929190610b41565b60405180910390f35b60008073ffffffffffffffffffffffffffffffffffffffff166001600084815260200190815260200160002060000160009054906101000a900473ffffffffffffffffffffffffffffffffffffffff1673ffffffffffffffffffffffffffffffffffffffff1614156101f5576040517f08c379a00000000000000000000000000000000000000000000000000000000081526004016101ec90610bc7565b60405180910390fd5b60016000838152602001908152602001600020600101549050919050565b60008054906101000a900473ffffffffffffffffffffffffffffffffffffffff1673ffffffffffffffffffffffffffffffffffffffff163373ffffffffffffffffffffffffffffffffffffffff16146102a1576040517f08c379a000000000000000000000000000000000000000000000000000000000815260040161029890610c59565b60405180910390fd5b600060016000836040516020016102b89190610cc1565b6040516020818303038152906040528051906020012081526020019081526020016000209050818160000160006101000a81548173ffffffffffffffffffffffffffffffffffffffff021916908373ffffffffffffffffffffffffffffffffffffffff160217905550600081600101819055505050565b60008060009054906101000a900473ffffffffffffffffffffffffffffffffffffffff16905090565b60008060009054906101000a900473ffffffffffffffffffffffffffffffffffffffff1673ffffffffffffffffffffffffffffffffffffffff163373ffffffffffffffffffffffffffffffffffffffff16146103e9576040517f08c379a00000000000000000000000000000000000000000000000000000000081526004016103e090610c59565b60405180910390fd5b60008080600090505b84518110156104cd57826001600087848151811061041357610412610cdc565b5b602002602001015181526020019081526020016000206001015411156104ba576001600086838151811061044a57610449610cdc565b5b602002602001015181526020019081526020016000206001015492506001600086838151811061047d5761047c610cdc565b5b6020026020010151815260200190815260200160002060000160009054906101000a900473ffffffffffffffffffffffffffffffffffffffff1691505b80806104c590610d3a565b9150506103f2565b508092505050919050565b600073ffffffffffffffffffffffffffffffffffffffff166001600083815260200190815260200160002060000160009054906101000a900473ffffffffffffffffffffffffffffffffffffffff1673ffffffffffffffffffffffffffffffffffffffff16141561057e576040517f08c379a000000000000000000000000000000000000000000000000000000000815260040161057590610bc7565b60405180910390fd5b3373ffffffffffffffffffffffffffffffffffffffff166001600083815260200190815260200160002060000160009054906101000a900473ffffffffffffffffffffffffffffffffffffffff1673ffffffffffffffffffffffffffffffffffffffff161415610623576040517f08c379a000000000000000000000000000000000000000000000000000000000815260040161061a90610dcf565b60405180910390fd5b600260003373ffffffffffffffffffffffffffffffffffffffff1673ffffffffffffffffffffffffffffffffffffffff16815260200190815260200160002060009054906101000a900460ff16156106b0576040517f08c379a00000000000000000000000000000000000000000000000000000000081526004016106a790610e3b565b60405180910390fd5b60006001600083815260200190815260200160002090506001600260003373ffffffffffffffffffffffffffffffffffffffff1673ffffffffffffffffffffffffffffffffffffffff16815260200190815260200160002060006101000a81548160ff02191690831515021790555060018160010160008282546107349190610e5b565b925050819055505050565b600080600073ffffffffffffffffffffffffffffffffffffffff166001600085815260200190815260200160002060000160009054906101000a900473ffffffffffffffffffffffffffffffffffffffff1673ffffffffffffffffffffffffffffffffffffffff1614156107e8576040517f08c379a00000000000000000000000000000000000000000000000000000000081526004016107df90610bc7565b60405180910390fd5b6001600084815260200190815260200160002060000160009054906101000a900473ffffffffffffffffffffffffffffffffffffffff16600160008581526020019081526020016000206001015491509150915091565b6000604051905090565b600080fd5b600080fd5b6000819050919050565b61086681610853565b811461087157600080fd5b50565b6000813590506108838161085d565b92915050565b60006020828403121561089f5761089e610849565b5b60006108ad84828501610874565b91505092915050565b6000819050919050565b6108c9816108b6565b82525050565b60006020820190506108e460008301846108c0565b92915050565b600073ffffffffffffffffffffffffffffffffffffffff82169050919050565b6000610915826108ea565b9050919050565b6109258161090a565b811461093057600080fd5b50565b6000813590506109428161091c565b92915050565b60006020828403121561095e5761095d610849565b5b600061096c84828501610933565b91505092915050565b61097e8161090a565b82525050565b60006020820190506109996000830184610975565b92915050565b600080fd5b6000601f19601f8301169050919050565b7f4e487b7100000000000000000000000000000000000000000000000000000000600052604160045260246000fd5b6109ed826109a4565b810181811067ffffffffffffffff82111715610a0c57610a0b6109b5565b5b80604052505050565b6000610a1f61083f565b9050610a2b82826109e4565b919050565b600067ffffffffffffffff821115610a4b57610a4a6109b5565b5b602082029050602081019050919050565b600080fd5b6000610a74610a6f84610a30565b610a15565b90508083825260208201905060208402830185811115610a9757610a96610a5c565b5b835b81811015610ac05780610aac8882610874565b845260208401935050602081019050610a99565b5050509392505050565b600082601f830112610adf57610ade61099f565b5b8135610aef848260208601610a61565b91505092915050565b600060208284031215610b0e57610b0d610849565b5b600082013567ffffffffffffffff811115610b2c57610b2b61084e565b5b610b3884828501610aca565b91505092915050565b6000604082019050610b566000830185610975565b610b6360208301846108c0565b9392505050565b600082825260208201905092915050565b7f43616e64696461746520646f6573206e6f742065786973742e00000000000000600082015250565b6000610bb1601983610b6a565b9150610bbc82610b7b565b602082019050919050565b60006020820190508181036000830152610be081610ba4565b9050919050565b7f4f6e6c79206f776e65722063616e2063616c6c20746869732066756e6374696f60008201527f6e2e000000000000000000000000000000000000000000000000000000000000602082015250565b6000610c43602283610b6a565b9150610c4e82610be7565b604082019050919050565b60006020820190508181036000830152610c7281610c36565b9050919050565b60008160601b9050919050565b6000610c9182610c79565b9050919050565b6000610ca382610c86565b9050919050565b610cbb610cb68261090a565b610c98565b82525050565b6000610ccd8284610caa565b60148201915081905092915050565b7f4e487b7100000000000000000000000000000000000000000000000000000000600052603260045260246000fd5b7f4e487b7100000000000000000000000000000000000000000000000000000000600052601160045260246000fd5b6000610d45826108b6565b91507fffffffffffffffffffffffffffffffffffffffffffffffffffffffffffffffff821415610d7857610d77610d0b565b5b600182019050919050565b7f596f752063616e6e6f7420766f746520666f7220796f757273656c662e000000600082015250565b6000610db9601d83610b6a565b9150610dc482610d83565b602082019050919050565b60006020820190508181036000830152610de881610dac565b9050919050565b7f596f75206861766520616c726561647920766f7465642e000000000000000000600082015250565b6000610e25601783610b6a565b9150610e3082610def565b602082019050919050565b60006020820190508181036000830152610e5481610e18565b9050919050565b6000610e66826108b6565b9150610e71836108b6565b9250827fffffffffffffffffffffffffffffffffffffffffffffffffffffffffffffffff03821115610ea657610ea5610d0b565b5b82820190509291505056fea264697066735822122067f4ac7f15ec48f813f88f3eeb192132510b1b58b8ddcb2a2130bc64d73170f564736f6c63430008090033",
  "linkReferences": {},
  "deployedLinkReferences": {}
}