{
  "_format": "hh-sol-artifact-1",
  "contractName": "Voting",
  "sourceName": "contracts/Voting.sol",
  "abi": [
    {
      "inputs": [
        {
          "internalType": "address",
          "name": "lambdaOwner",
          "type": "address"
        },
        {
          "internalType": "string",
          "name": "lambdaName",
          "type": "string"
        }
      ],
      "stateMutability": "nonpayable",
      "type": "constructor"
    },
    {
      "anonymous": false,
      "inputs": [
        {
          "indexed": true,
          "internalType": "bytes32",
          "name": "role",
          "type": "bytes32"
        },
        {
          "indexed": true,
          "internalType": "bytes32",
          "name": "previousAdminRole",
          "type": "bytes32"
        },
        {
          "indexed": true,
          "internalType": "bytes32",
          "name": "newAdminRole",
          "type": "bytes32"
        }
      ],
      "name": "RoleAdminChanged",
      "type": "event"
    },
    {
      "anonymous": false,
      "inputs": [
        {
          "indexed": true,
          "internalType": "bytes32",
          "name": "role",
          "type": "bytes32"
        },
        {
          "indexed": true,
          "internalType": "address",
          "name": "account",
          "type": "address"
        },
        {
          "indexed": true,
          "internalType": "address",
          "name": "sender",
          "type": "address"
        }
      ],
      "name": "RoleGranted",
      "type": "event"
    },
    {
      "anonymous": false,
      "inputs": [
        {
          "indexed": true,
          "internalType": "bytes32",
          "name": "role",
          "type": "bytes32"
        },
        {
          "indexed": true,
          "internalType": "address",
          "name": "account",
          "type": "address"
        },
        {
          "indexed": true,
          "internalType": "address",
          "name": "sender",
          "type": "address"
        }
      ],
      "name": "RoleRevoked",
      "type": "event"
    },
    {
      "inputs": [],
      "name": "DEFAULT_ADMIN_ROLE",
      "outputs": [
        {
          "internalType": "bytes32",
          "name": "",
          "type": "bytes32"
        }
      ],
      "stateMutability": "view",
      "type": "function"
    },
    {
      "inputs": [],
      "name": "ERC712_VERSION",
      "outputs": [
        {
          "internalType": "string",
          "name": "",
          "type": "string"
        }
      ],
      "stateMutability": "view",
      "type": "function"
    },
    {
      "inputs": [],
      "name": "METAKEEP_LAMBDA_ADMIN_ROLE",
      "outputs": [
        {
          "internalType": "bytes32",
          "name": "",
          "type": "bytes32"
        }
      ],
      "stateMutability": "view",
      "type": "function"
    },
    {
      "inputs": [
        {
          "internalType": "address",
          "name": "userAddress",
          "type": "address"
        },
        {
          "internalType": "uint256",
          "name": "nonce",
          "type": "uint256"
        },
        {
          "internalType": "bytes32",
          "name": "sigR",
          "type": "bytes32"
        },
        {
          "internalType": "bytes32",
          "name": "sigS",
          "type": "bytes32"
        },
        {
          "internalType": "uint8",
          "name": "sigV",
          "type": "uint8"
        }
      ],
      "name": "cancelMetaKeepLambdaNonce",
      "outputs": [],
      "stateMutability": "nonpayable",
      "type": "function"
    },
    {
      "inputs": [],
      "name": "domainSeperator",
      "outputs": [
        {
          "internalType": "bytes32",
          "name": "",
          "type": "bytes32"
        }
      ],
      "stateMutability": "view",
      "type": "function"
    },
    {
      "inputs": [
        {
          "internalType": "address",
          "name": "userAddress",
          "type": "address"
        },
        {
          "internalType": "uint256",
          "name": "nonce",
          "type": "uint256"
        },
        {
          "internalType": "uint256",
          "name": "validFrom",
          "type": "uint256"
        },
        {
          "internalType": "uint256",
          "name": "validUpto",
          "type": "uint256"
        },
        {
          "internalType": "bytes",
          "name": "functionSignature",
          "type": "bytes"
        },
        {
          "internalType": "bytes32",
          "name": "sigR",
          "type": "bytes32"
        },
        {
          "internalType": "bytes32",
          "name": "sigS",
          "type": "bytes32"
        },
        {
          "internalType": "uint8",
          "name": "sigV",
          "type": "uint8"
        }
      ],
      "name": "executeMetaKeepLambdaTransaction",
      "outputs": [
        {
          "internalType": "bool",
          "name": "",
          "type": "bool"
        }
      ],
      "stateMutability": "payable",
      "type": "function"
    },
    {
      "inputs": [
        {
          "internalType": "bytes32",
          "name": "id",
          "type": "bytes32"
        }
      ],
      "name": "getCandidate",
      "outputs": [
        {
          "internalType": "address",
          "name": "",
          "type": "address"
        },
        {
          "internalType": "uint256",
          "name": "",
          "type": "uint256"
        }
      ],
      "stateMutability": "view",
      "type": "function"
    },
    {
      "inputs": [
        {
          "internalType": "bytes32",
          "name": "role",
          "type": "bytes32"
        }
      ],
      "name": "getRoleAdmin",
      "outputs": [
        {
          "internalType": "bytes32",
          "name": "",
          "type": "bytes32"
        }
      ],
      "stateMutability": "view",
      "type": "function"
    },
    {
      "inputs": [
        {
          "internalType": "bytes32[]",
          "name": "ids",
          "type": "bytes32[]"
        }
      ],
      "name": "getWinner",
      "outputs": [
        {
          "internalType": "address",
          "name": "",
          "type": "address"
        }
      ],
      "stateMutability": "view",
      "type": "function"
    },
    {
      "inputs": [
        {
          "internalType": "bytes32",
          "name": "role",
          "type": "bytes32"
        },
        {
          "internalType": "address",
          "name": "account",
          "type": "address"
        }
      ],
      "name": "grantRole",
      "outputs": [],
      "stateMutability": "nonpayable",
      "type": "function"
    },
    {
      "inputs": [
        {
          "internalType": "bytes32",
          "name": "role",
          "type": "bytes32"
        },
        {
          "internalType": "address",
          "name": "account",
          "type": "address"
        }
      ],
      "name": "hasRole",
      "outputs": [
        {
          "internalType": "bool",
          "name": "",
          "type": "bool"
        }
      ],
      "stateMutability": "view",
      "type": "function"
    },
    {
      "inputs": [
        {
          "internalType": "address",
          "name": "userAddress",
          "type": "address"
        },
        {
          "internalType": "uint256",
          "name": "nonce",
          "type": "uint256"
        }
      ],
      "name": "metaKeepLambdaNonceState",
      "outputs": [
        {
          "internalType": "bool",
          "name": "",
          "type": "bool"
        }
      ],
      "stateMutability": "view",
      "type": "function"
    },
    {
      "inputs": [
        {
          "internalType": "address",
          "name": "candidate_address",
          "type": "address"
        }
      ],
      "name": "registerCandidate",
      "outputs": [],
      "stateMutability": "nonpayable",
      "type": "function"
    },
    {
      "inputs": [
        {
          "internalType": "bytes32",
          "name": "role",
          "type": "bytes32"
        },
        {
          "internalType": "address",
          "name": "account",
          "type": "address"
        }
      ],
      "name": "renounceRole",
      "outputs": [],
      "stateMutability": "nonpayable",
      "type": "function"
    },
    {
      "inputs": [
        {
          "internalType": "bytes32",
          "name": "role",
          "type": "bytes32"
        },
        {
          "internalType": "address",
          "name": "account",
          "type": "address"
        }
      ],
      "name": "revokeRole",
      "outputs": [],
      "stateMutability": "nonpayable",
      "type": "function"
    },
    {
      "inputs": [
        {
          "internalType": "bytes4",
          "name": "interfaceId",
          "type": "bytes4"
        }
      ],
      "name": "supportsInterface",
      "outputs": [
        {
          "internalType": "bool",
          "name": "",
          "type": "bool"
        }
      ],
      "stateMutability": "view",
      "type": "function"
    },
    {
      "inputs": [
        {
          "internalType": "bytes32",
          "name": "id",
          "type": "bytes32"
        }
      ],
      "name": "totalVotesFor",
      "outputs": [
        {
          "internalType": "uint256",
          "name": "",
          "type": "uint256"
        }
      ],
      "stateMutability": "view",
      "type": "function"
    },
    {
      "inputs": [
        {
          "internalType": "bytes32",
          "name": "id",
          "type": "bytes32"
        }
      ],
      "name": "voteForCandidate",
      "outputs": [],
      "stateMutability": "nonpayable",
      "type": "function"
    }
  ],
  "bytecode": "0x60806040523480156200001157600080fd5b50604051620033663803806200336683398181016040528101906200003791906200063f565b818181816200004c81620000bc60201b60201c565b506200007f7f7b1eebef105bd5bbc0d16725b5cf2934cb42ba2f36ad8efeb6a7200f63f11980826200016b60201b60201c565b620000b17f7b1eebef105bd5bbc0d16725b5cf2934cb42ba2f36ad8efeb6a7200f63f11980806200018160201b60201c565b50505050506200072e565b6040518060800160405280604f815260200162003317604f91398051906020012081805190602001206040518060400160405280600181526020017f3100000000000000000000000000000000000000000000000000000000000000815250805190602001203062000133620001e560201b60201c565b60001b6040516020016200014c959493929190620006d1565b6040516020818303038152906040528051906020012060008190555050565b6200017d8282620001f260201b60201c565b5050565b60006200019483620002e360201b60201c565b90508160016000858152602001908152602001600020600101819055508181847fbd79b86ffe0ab8e8776151514217cd7cacd52c909f66475c3af44e129f0b00ff60405160405180910390a4505050565b6000804690508091505090565b6200020482826200030360201b60201c565b620002df57600180600084815260200190815260200160002060000160008373ffffffffffffffffffffffffffffffffffffffff1673ffffffffffffffffffffffffffffffffffffffff16815260200190815260200160002060006101000a81548160ff021916908315150217905550620002846200036e60201b60201c565b73ffffffffffffffffffffffffffffffffffffffff168173ffffffffffffffffffffffffffffffffffffffff16837f2f8788117e7eff1d82e926ec794901d17c78024a50270940304540a733656f0d60405160405180910390a45b5050565b600060016000838152602001908152602001600020600101549050919050565b60006001600084815260200190815260200160002060000160008373ffffffffffffffffffffffffffffffffffffffff1673ffffffffffffffffffffffffffffffffffffffff16815260200190815260200160002060009054906101000a900460ff16905092915050565b6000620003856200038a60201b6200110f1760201c565b905090565b60003073ffffffffffffffffffffffffffffffffffffffff163373ffffffffffffffffffffffffffffffffffffffff1614156200043657600080368080601f016020809104026020016040519081016040528093929190818152602001838380828437600081840152601f19601f820116905080830192505050505050509050600080369050905073ffffffffffffffffffffffffffffffffffffffff8183015116925050506200043a565b3390505b90565b6000604051905090565b600080fd5b600080fd5b600073ffffffffffffffffffffffffffffffffffffffff82169050919050565b60006200047e8262000451565b9050919050565b620004908162000471565b81146200049c57600080fd5b50565b600081519050620004b08162000485565b92915050565b600080fd5b600080fd5b6000601f19601f8301169050919050565b7f4e487b7100000000000000000000000000000000000000000000000000000000600052604160045260246000fd5b6200050b82620004c0565b810181811067ffffffffffffffff821117156200052d576200052c620004d1565b5b80604052505050565b6000620005426200043d565b905062000550828262000500565b919050565b600067ffffffffffffffff821115620005735762000572620004d1565b5b6200057e82620004c0565b9050602081019050919050565b60005b83811015620005ab5780820151818401526020810190506200058e565b83811115620005bb576000848401525b50505050565b6000620005d8620005d28462000555565b62000536565b905082815260208101848484011115620005f757620005f6620004bb565b5b620006048482856200058b565b509392505050565b600082601f830112620006245762000623620004b6565b5b815162000636848260208601620005c1565b91505092915050565b6000806040838503121562000659576200065862000447565b5b600062000669858286016200049f565b925050602083015167ffffffffffffffff8111156200068d576200068c6200044c565b5b6200069b858286016200060c565b9150509250929050565b6000819050919050565b620006ba81620006a5565b82525050565b620006cb8162000471565b82525050565b600060a082019050620006e86000830188620006af565b620006f76020830187620006af565b620007066040830186620006af565b620007156060830185620006c0565b620007246080830184620006af565b9695505050505050565b612bd9806200073e6000396000f3fe6080604052600436106101095760003560e01c806391d1485411610095578063cc9ab26711610064578063cc9ab26714610394578063d547741f146103bd578063dfb6419f146103e6578063ebe9b0f214610424578063fca884471461046157610109565b806391d14854146102d8578063a217fddf14610315578063c0dcaeeb14610340578063cb73ac561461036957610109565b80632f265cf7116100dc5780632f265cf7146101e35780632f2ff15d1461022057806336568abe1461024957806384aa3b93146102725780639149d9e11461029b57610109565b806301ffc9a71461010e5780630f7e59701461014b578063243ed11d14610176578063248a9ca3146101a6575b600080fd5b34801561011a57600080fd5b50610135600480360381019061013091906119aa565b61048c565b60405161014291906119f2565b60405180910390f35b34801561015757600080fd5b50610160610506565b60405161016d9190611aa6565b60405180910390f35b610190600480360381019061018b9190611d00565b61053f565b60405161019d91906119f2565b60405180910390f35b3480156101b257600080fd5b506101cd60048036038101906101c89190611dd2565b610761565b6040516101da9190611e0e565b60405180910390f35b3480156101ef57600080fd5b5061020a60048036038101906102059190611dd2565b610781565b6040516102179190611e38565b60405180910390f35b34801561022c57600080fd5b5061024760048036038101906102429190611e53565b610846565b005b34801561025557600080fd5b50610270600480360381019061026b9190611e53565b61086f565b005b34801561027e57600080fd5b5061029960048036038101906102949190611e93565b6108f2565b005b3480156102a757600080fd5b506102c260048036038101906102bd9190611f88565b6109f0565b6040516102cf9190611fe0565b60405180910390f35b3480156102e457600080fd5b506102ff60048036038101906102fa9190611e53565b610b51565b60405161030c91906119f2565b60405180910390f35b34801561032157600080fd5b5061032a610bbc565b6040516103379190611e0e565b60405180910390f35b34801561034c57600080fd5b5061036760048036038101906103629190611ffb565b610bc3565b005b34801561037557600080fd5b5061037e610cd8565b60405161038b9190611e0e565b60405180910390f35b3480156103a057600080fd5b506103bb60048036038101906103b69190611dd2565b610cde565b005b3480156103c957600080fd5b506103e460048036038101906103df9190611e53565b610f5a565b005b3480156103f257600080fd5b5061040d60048036038101906104089190611dd2565b610f83565b60405161041b929190612076565b60405180910390f35b34801561043057600080fd5b5061044b6004803603810190610446919061209f565b611083565b60405161045891906119f2565b60405180910390f35b34801561046d57600080fd5b506104766110eb565b6040516104839190611e0e565b60405180910390f35b60007f7965db0b000000000000000000000000000000000000000000000000000000007bffffffffffffffffffffffffffffffffffffffffffffffffffffffff1916827bffffffffffffffffffffffffffffffffffffffffffffffffffffffff191614806104ff57506104fe826111c0565b5b9050919050565b6040518060400160405280600181526020017f310000000000000000000000000000000000000000000000000000000000000081525081565b600061054d8989898961122a565b60006040518060a001604052808a81526020018981526020018881526020018b73ffffffffffffffffffffffffffffffffffffffff16815260200187815250905060006040518060a0016040528060718152602001612b33607191398051906020012082600001518360200151846040015185606001518660800151805190602001206040516020016105e5969594939291906120df565b60405160208183030381529060405280519060200120905061060a8b828888886112be565b610649576040517f08c379a00000000000000000000000000000000000000000000000000000000081526004016106409061218c565b60405180910390fd5b6001600260008d73ffffffffffffffffffffffffffffffffffffffff1673ffffffffffffffffffffffffffffffffffffffff16815260200190815260200160002060008c815260200190815260200160002060006101000a81548160ff0219169083151502179055506000803073ffffffffffffffffffffffffffffffffffffffff16898e6040516020016106df92919061223b565b6040516020818303038152906040526040516106fb9190612263565b6000604051808303816000865af19150503d8060008114610738576040519150601f19603f3d011682016040523d82523d6000602084013e61073d565b606091505b50915091508161074e578060208201fd5b8194505050505098975050505050505050565b600060016000838152602001908152602001600020600101549050919050565b60008073ffffffffffffffffffffffffffffffffffffffff166003600084815260200190815260200160002060000160009054906101000a900473ffffffffffffffffffffffffffffffffffffffff1673ffffffffffffffffffffffffffffffffffffffff161415610828576040517f08c379a000000000000000000000000000000000000000000000000000000000815260040161081f906122c6565b60405180910390fd5b60036000838152602001908152602001600020600101549050919050565b61084f82610761565b6108608161085b6113bf565b6113ce565b61086a838361146b565b505050565b6108776113bf565b73ffffffffffffffffffffffffffffffffffffffff168173ffffffffffffffffffffffffffffffffffffffff16146108e4576040517f08c379a00000000000000000000000000000000000000000000000000000000081526004016108db90612358565b60405180910390fd5b6108ee828261154b565b5050565b6109237f7b1eebef105bd5bbc0d16725b5cf2934cb42ba2f36ad8efeb6a7200f63f1198061091e61110f565b610b51565b610962576040517f08c379a0000000000000000000000000000000000000000000000000000000008152600401610959906123c4565b60405180910390fd5b6000600360008360405160200161097991906123e4565b6040516020818303038152906040528051906020012081526020019081526020016000209050818160000160006101000a81548173ffffffffffffffffffffffffffffffffffffffff021916908373ffffffffffffffffffffffffffffffffffffffff160217905550600081600101819055505050565b6000610a237f7b1eebef105bd5bbc0d16725b5cf2934cb42ba2f36ad8efeb6a7200f63f11980610a1e61110f565b610b51565b610a62576040517f08c379a0000000000000000000000000000000000000000000000000000000008152600401610a59906123c4565b60405180910390fd5b60008080600090505b8451811015610b46578260036000878481518110610a8c57610a8b6123ff565b5b60200260200101518152602001908152602001600020600101541115610b335760036000868381518110610ac357610ac26123ff565b5b6020026020010151815260200190815260200160002060010154925060036000868381518110610af657610af56123ff565b5b6020026020010151815260200190815260200160002060000160009054906101000a900473ffffffffffffffffffffffffffffffffffffffff1691505b8080610b3e9061245d565b915050610a6b565b508092505050919050565b60006001600084815260200190815260200160002060000160008373ffffffffffffffffffffffffffffffffffffffff1673ffffffffffffffffffffffffffffffffffffffff16815260200190815260200160002060009054906101000a900460ff16905092915050565b6000801b81565b610bcd858561162d565b6000604051806060016040528060358152602001612afe60359139805190602001208587604051602001610c03939291906124a6565b604051602081830303815290604052805190602001209050610c2886828686866112be565b610c67576040517f08c379a0000000000000000000000000000000000000000000000000000000008152600401610c5e9061218c565b60405180910390fd5b6001600260008873ffffffffffffffffffffffffffffffffffffffff1673ffffffffffffffffffffffffffffffffffffffff168152602001908152602001600020600087815260200190815260200160002060006101000a81548160ff021916908315150217905550505050505050565b60005481565b600073ffffffffffffffffffffffffffffffffffffffff166003600083815260200190815260200160002060000160009054906101000a900473ffffffffffffffffffffffffffffffffffffffff1673ffffffffffffffffffffffffffffffffffffffff161415610d84576040517f08c379a0000000000000000000000000000000000000000000000000000000008152600401610d7b906122c6565b60405180910390fd5b610d8c6113bf565b73ffffffffffffffffffffffffffffffffffffffff166003600083815260200190815260200160002060000160009054906101000a900473ffffffffffffffffffffffffffffffffffffffff1673ffffffffffffffffffffffffffffffffffffffff161415610e30576040517f08c379a0000000000000000000000000000000000000000000000000000000008152600401610e2790612529565b60405180910390fd5b60046000610e3c6113bf565b73ffffffffffffffffffffffffffffffffffffffff1673ffffffffffffffffffffffffffffffffffffffff16815260200190815260200160002060009054906101000a900460ff1615610ec4576040517f08c379a0000000000000000000000000000000000000000000000000000000008152600401610ebb90612595565b60405180910390fd5b6000600360008381526020019081526020016000209050600160046000610ee96113bf565b73ffffffffffffffffffffffffffffffffffffffff1673ffffffffffffffffffffffffffffffffffffffff16815260200190815260200160002060006101000a81548160ff0219169083151502179055506001816001016000828254610f4f91906125b5565b925050819055505050565b610f6382610761565b610f7481610f6f6113bf565b6113ce565b610f7e838361154b565b505050565b600080600073ffffffffffffffffffffffffffffffffffffffff166003600085815260200190815260200160002060000160009054906101000a900473ffffffffffffffffffffffffffffffffffffffff1673ffffffffffffffffffffffffffffffffffffffff16141561102c576040517f08c379a0000000000000000000000000000000000000000000000000000000008152600401611023906122c6565b60405180910390fd5b6003600084815260200190815260200160002060000160009054906101000a900473ffffffffffffffffffffffffffffffffffffffff16600360008581526020019081526020016000206001015491509150915091565b6000600260008473ffffffffffffffffffffffffffffffffffffffff1673ffffffffffffffffffffffffffffffffffffffff168152602001908152602001600020600083815260200190815260200160002060009054906101000a900460ff16905092915050565b7f7b1eebef105bd5bbc0d16725b5cf2934cb42ba2f36ad8efeb6a7200f63f1198081565b60003073ffffffffffffffffffffffffffffffffffffffff163373ffffffffffffffffffffffffffffffffffffffff1614156111b957600080368080601f016020809104026020016040519081016040528093929190818152602001838380828437600081840152601f19601f820116905080830192505050505050509050600080369050905073ffffffffffffffffffffffffffffffffffffffff8183015116925050506111bd565b3390505b90565b60007f01ffc9a7000000000000000000000000000000000000000000000000000000007bffffffffffffffffffffffffffffffffffffffffffffffffffffffff1916827bffffffffffffffffffffffffffffffffffffffffffffffffffffffff1916149050919050565b81421161126c576040517f08c379a00000000000000000000000000000000000000000000000000000000081526004016112639061267d565b60405180910390fd5b8042106112ae576040517f08c379a00000000000000000000000000000000000000000000000000000000081526004016112a59061270f565b60405180910390fd5b6112b8848461162d565b50505050565b60008073ffffffffffffffffffffffffffffffffffffffff168673ffffffffffffffffffffffffffffffffffffffff16141561132f576040517f08c379a00000000000000000000000000000000000000000000000000000000081526004016113269061277b565b60405180910390fd5b600161133a866116cf565b8386866040516000815260200160405260405161135a94939291906127aa565b6020604051602081039080840390855afa15801561137c573d6000803e3d6000fd5b5050506020604051035173ffffffffffffffffffffffffffffffffffffffff168673ffffffffffffffffffffffffffffffffffffffff1614905095945050505050565b60006113c961110f565b905090565b6113d88282610b51565b611467576113fd8173ffffffffffffffffffffffffffffffffffffffff166014611702565b61140b8360001c6020611702565b60405160200161141c9291906128c3565b6040516020818303038152906040526040517f08c379a000000000000000000000000000000000000000000000000000000000815260040161145e9190611aa6565b60405180910390fd5b5050565b6114758282610b51565b61154757600180600084815260200190815260200160002060000160008373ffffffffffffffffffffffffffffffffffffffff1673ffffffffffffffffffffffffffffffffffffffff16815260200190815260200160002060006101000a81548160ff0219169083151502179055506114ec6113bf565b73ffffffffffffffffffffffffffffffffffffffff168173ffffffffffffffffffffffffffffffffffffffff16837f2f8788117e7eff1d82e926ec794901d17c78024a50270940304540a733656f0d60405160405180910390a45b5050565b6115558282610b51565b156116295760006001600084815260200190815260200160002060000160008373ffffffffffffffffffffffffffffffffffffffff1673ffffffffffffffffffffffffffffffffffffffff16815260200190815260200160002060006101000a81548160ff0219169083151502179055506115ce6113bf565b73ffffffffffffffffffffffffffffffffffffffff168173ffffffffffffffffffffffffffffffffffffffff16837ff6391f5c32d9c69d2a47ea670b442974b53935d1edc7fd64eb21e047a839171b60405160405180910390a45b5050565b600260008373ffffffffffffffffffffffffffffffffffffffff1673ffffffffffffffffffffffffffffffffffffffff168152602001908152602001600020600082815260200190815260200160002060009054906101000a900460ff16156116cb576040517f08c379a00000000000000000000000000000000000000000000000000000000081526004016116c290612949565b60405180910390fd5b5050565b60008054826040516020016116e59291906129d6565b604051602081830303815290604052805190602001209050919050565b6060600060028360026117159190612a0d565b61171f91906125b5565b67ffffffffffffffff81111561173857611737611b66565b5b6040519080825280601f01601f19166020018201604052801561176a5781602001600182028036833780820191505090505b5090507f3000000000000000000000000000000000000000000000000000000000000000816000815181106117a2576117a16123ff565b5b60200101907effffffffffffffffffffffffffffffffffffffffffffffffffffffffffffff1916908160001a9053507f780000000000000000000000000000000000000000000000000000000000000081600181518110611806576118056123ff565b5b60200101907effffffffffffffffffffffffffffffffffffffffffffffffffffffffffffff1916908160001a905350600060018460026118469190612a0d565b61185091906125b5565b90505b60018111156118f0577f3031323334353637383961626364656600000000000000000000000000000000600f861660108110611892576118916123ff565b5b1a60f81b8282815181106118a9576118a86123ff565b5b60200101907effffffffffffffffffffffffffffffffffffffffffffffffffffffffffffff1916908160001a905350600485901c9450806118e990612a67565b9050611853565b5060008414611934576040517f08c379a000000000000000000000000000000000000000000000000000000000815260040161192b90612add565b60405180910390fd5b8091505092915050565b6000604051905090565b600080fd5b600080fd5b60007fffffffff0000000000000000000000000000000000000000000000000000000082169050919050565b61198781611952565b811461199257600080fd5b50565b6000813590506119a48161197e565b92915050565b6000602082840312156119c0576119bf611948565b5b60006119ce84828501611995565b91505092915050565b60008115159050919050565b6119ec816119d7565b82525050565b6000602082019050611a0760008301846119e3565b92915050565b600081519050919050565b600082825260208201905092915050565b60005b83811015611a47578082015181840152602081019050611a2c565b83811115611a56576000848401525b50505050565b6000601f19601f8301169050919050565b6000611a7882611a0d565b611a828185611a18565b9350611a92818560208601611a29565b611a9b81611a5c565b840191505092915050565b60006020820190508181036000830152611ac08184611a6d565b905092915050565b600073ffffffffffffffffffffffffffffffffffffffff82169050919050565b6000611af382611ac8565b9050919050565b611b0381611ae8565b8114611b0e57600080fd5b50565b600081359050611b2081611afa565b92915050565b6000819050919050565b611b3981611b26565b8114611b4457600080fd5b50565b600081359050611b5681611b30565b92915050565b600080fd5b600080fd5b7f4e487b7100000000000000000000000000000000000000000000000000000000600052604160045260246000fd5b611b9e82611a5c565b810181811067ffffffffffffffff82111715611bbd57611bbc611b66565b5b80604052505050565b6000611bd061193e565b9050611bdc8282611b95565b919050565b600067ffffffffffffffff821115611bfc57611bfb611b66565b5b611c0582611a5c565b9050602081019050919050565b82818337600083830152505050565b6000611c34611c2f84611be1565b611bc6565b905082815260208101848484011115611c5057611c4f611b61565b5b611c5b848285611c12565b509392505050565b600082601f830112611c7857611c77611b5c565b5b8135611c88848260208601611c21565b91505092915050565b6000819050919050565b611ca481611c91565b8114611caf57600080fd5b50565b600081359050611cc181611c9b565b92915050565b600060ff82169050919050565b611cdd81611cc7565b8114611ce857600080fd5b50565b600081359050611cfa81611cd4565b92915050565b600080600080600080600080610100898b031215611d2157611d20611948565b5b6000611d2f8b828c01611b11565b9850506020611d408b828c01611b47565b9750506040611d518b828c01611b47565b9650506060611d628b828c01611b47565b955050608089013567ffffffffffffffff811115611d8357611d8261194d565b5b611d8f8b828c01611c63565b94505060a0611da08b828c01611cb2565b93505060c0611db18b828c01611cb2565b92505060e0611dc28b828c01611ceb565b9150509295985092959890939650565b600060208284031215611de857611de7611948565b5b6000611df684828501611cb2565b91505092915050565b611e0881611c91565b82525050565b6000602082019050611e236000830184611dff565b92915050565b611e3281611b26565b82525050565b6000602082019050611e4d6000830184611e29565b92915050565b60008060408385031215611e6a57611e69611948565b5b6000611e7885828601611cb2565b9250506020611e8985828601611b11565b9150509250929050565b600060208284031215611ea957611ea8611948565b5b6000611eb784828501611b11565b91505092915050565b600067ffffffffffffffff821115611edb57611eda611b66565b5b602082029050602081019050919050565b600080fd5b6000611f04611eff84611ec0565b611bc6565b90508083825260208201905060208402830185811115611f2757611f26611eec565b5b835b81811015611f505780611f3c8882611cb2565b845260208401935050602081019050611f29565b5050509392505050565b600082601f830112611f6f57611f6e611b5c565b5b8135611f7f848260208601611ef1565b91505092915050565b600060208284031215611f9e57611f9d611948565b5b600082013567ffffffffffffffff811115611fbc57611fbb61194d565b5b611fc884828501611f5a565b91505092915050565b611fda81611ae8565b82525050565b6000602082019050611ff56000830184611fd1565b92915050565b600080600080600060a0868803121561201757612016611948565b5b600061202588828901611b11565b955050602061203688828901611b47565b945050604061204788828901611cb2565b935050606061205888828901611cb2565b925050608061206988828901611ceb565b9150509295509295909350565b600060408201905061208b6000830185611fd1565b6120986020830184611e29565b9392505050565b600080604083850312156120b6576120b5611948565b5b60006120c485828601611b11565b92505060206120d585828601611b47565b9150509250929050565b600060c0820190506120f46000830189611dff565b6121016020830188611e29565b61210e6040830187611e29565b61211b6060830186611e29565b6121286080830185611fd1565b61213560a0830184611dff565b979650505050505050565b7f4d6574614b6565704c616d6264613a20536967206e6f74206d61746368000000600082015250565b6000612176601d83611a18565b915061218182612140565b602082019050919050565b600060208201905081810360008301526121a581612169565b9050919050565b600081519050919050565b600081905092915050565b60006121cd826121ac565b6121d781856121b7565b93506121e7818560208601611a29565b80840191505092915050565b60008160601b9050919050565b600061220b826121f3565b9050919050565b600061221d82612200565b9050919050565b61223561223082611ae8565b612212565b82525050565b600061224782856121c2565b91506122538284612224565b6014820191508190509392505050565b600061226f82846121c2565b915081905092915050565b7f43616e64696461746520646f6573206e6f742065786973742e00000000000000600082015250565b60006122b0601983611a18565b91506122bb8261227a565b602082019050919050565b600060208201905081810360008301526122df816122a3565b9050919050565b7f416363657373436f6e74726f6c3a2063616e206f6e6c792072656e6f756e636560008201527f20726f6c657320666f722073656c660000000000000000000000000000000000602082015250565b6000612342602f83611a18565b915061234d826122e6565b604082019050919050565b6000602082019050818103600083015261237181612335565b9050919050565b7f4d6574614b6565704c616d6264613a204e6f742061646d696e00000000000000600082015250565b60006123ae601983611a18565b91506123b982612378565b602082019050919050565b600060208201905081810360008301526123dd816123a1565b9050919050565b60006123f08284612224565b60148201915081905092915050565b7f4e487b7100000000000000000000000000000000000000000000000000000000600052603260045260246000fd5b7f4e487b7100000000000000000000000000000000000000000000000000000000600052601160045260246000fd5b600061246882611b26565b91507fffffffffffffffffffffffffffffffffffffffffffffffffffffffffffffffff82141561249b5761249a61242e565b5b600182019050919050565b60006060820190506124bb6000830186611dff565b6124c86020830185611e29565b6124d56040830184611fd1565b949350505050565b7f596f752063616e6e6f7420766f746520666f7220796f757273656c662e000000600082015250565b6000612513601d83611a18565b915061251e826124dd565b602082019050919050565b6000602082019050818103600083015261254281612506565b9050919050565b7f596f75206861766520616c726561647920766f7465642e000000000000000000600082015250565b600061257f601783611a18565b915061258a82612549565b602082019050919050565b600060208201905081810360008301526125ae81612572565b9050919050565b60006125c082611b26565b91506125cb83611b26565b9250827fffffffffffffffffffffffffffffffffffffffffffffffffffffffffffffffff03821115612600576125ff61242e565b5b828201905092915050565b7f4d6574614b6565704c616d6264613a20417574686f72697a6174696f6e20697360008201527f206e6f742079657420676976656e000000000000000000000000000000000000602082015250565b6000612667602e83611a18565b91506126728261260b565b604082019050919050565b600060208201905081810360008301526126968161265a565b9050919050565b7f4d6574614b6565704c616d6264613a20417574686f72697a6174696f6e20686160008201527f7320657870697265640000000000000000000000000000000000000000000000602082015250565b60006126f9602983611a18565b91506127048261269d565b604082019050919050565b60006020820190508181036000830152612728816126ec565b9050919050565b7f4d6574614b6565704c616d6264613a20494e56414c49445f5349474e45520000600082015250565b6000612765601e83611a18565b91506127708261272f565b602082019050919050565b6000602082019050818103600083015261279481612758565b9050919050565b6127a481611cc7565b82525050565b60006080820190506127bf6000830187611dff565b6127cc602083018661279b565b6127d96040830185611dff565b6127e66060830184611dff565b95945050505050565b600081905092915050565b7f416363657373436f6e74726f6c3a206163636f756e7420000000000000000000600082015250565b60006128306017836127ef565b915061283b826127fa565b601782019050919050565b600061285182611a0d565b61285b81856127ef565b935061286b818560208601611a29565b80840191505092915050565b7f206973206d697373696e6720726f6c6520000000000000000000000000000000600082015250565b60006128ad6011836127ef565b91506128b882612877565b601182019050919050565b60006128ce82612823565b91506128da8285612846565b91506128e5826128a0565b91506128f18284612846565b91508190509392505050565b7f4d6574614b6565704c616d6264613a204e6f6e63652055736564000000000000600082015250565b6000612933601a83611a18565b915061293e826128fd565b602082019050919050565b6000602082019050818103600083015261296281612926565b9050919050565b7f1901000000000000000000000000000000000000000000000000000000000000600082015250565b600061299f6002836127ef565b91506129aa82612969565b600282019050919050565b6000819050919050565b6129d06129cb82611c91565b6129b5565b82525050565b60006129e182612992565b91506129ed82856129bf565b6020820191506129fd82846129bf565b6020820191508190509392505050565b6000612a1882611b26565b9150612a2383611b26565b9250817fffffffffffffffffffffffffffffffffffffffffffffffffffffffffffffffff0483118215151615612a5c57612a5b61242e565b5b828202905092915050565b6000612a7282611b26565b91506000821415612a8657612a8561242e565b5b600182039050919050565b7f537472696e67733a20686578206c656e67746820696e73756666696369656e74600082015250565b6000612ac7602083611a18565b9150612ad282612a91565b602082019050919050565b60006020820190508181036000830152612af681612aba565b905091905056fe4d6574614b6565704c616d62646143616e63656c4e6f6e63652875696e74323536206e6f6e63652c616464726573732066726f6d294d6574614b6565704c616d6264615472616e73616374696f6e2875696e74323536206e6f6e63652c75696e743235362076616c696446726f6d2c75696e743235362076616c69645570746f2c616464726573732066726f6d2c62797465732066756e6374696f6e5369676e617475726529a264697066735822122054ac7ea86bf4ce20e3ea008fc102c892655565e4532e2ca9b0be72a5cd84d21364736f6c63430008090033454950373132446f6d61696e28737472696e67206e616d652c737472696e672076657273696f6e2c6164647265737320766572696679696e67436f6e74726163742c627974657333322073616c7429",
  "linkReferences": {},
  "deployedLinkReferences": {}
}