{
  "_format": "hh-sol-artifact-1",
  "contractName": "Voting",
  "sourceName": "contracts/Voting.sol",
  "abi": [
    {
      "inputs": [
        {
          "internalType": "address",
          "name": "owner",
          "type": "address"
        },
        {
          "internalType": "address",
          "name": "lambdaOwner",
          "type": "address"
        },
        {
          "internalType": "string",
          "name": "lambdaName",
          "type": "string"
        }
      ],
      "stateMutability": "nonpayable",
      "type": "constructor"
    },
    {
      "anonymous": false,
      "inputs": [
        {
          "indexed": true,
          "internalType": "bytes32",
          "name": "role",
          "type": "bytes32"
        },
        {
          "indexed": true,
          "internalType": "bytes32",
          "name": "previousAdminRole",
          "type": "bytes32"
        },
        {
          "indexed": true,
          "internalType": "bytes32",
          "name": "newAdminRole",
          "type": "bytes32"
        }
      ],
      "name": "RoleAdminChanged",
      "type": "event"
    },
    {
      "anonymous": false,
      "inputs": [
        {
          "indexed": true,
          "internalType": "bytes32",
          "name": "role",
          "type": "bytes32"
        },
        {
          "indexed": true,
          "internalType": "address",
          "name": "account",
          "type": "address"
        },
        {
          "indexed": true,
          "internalType": "address",
          "name": "sender",
          "type": "address"
        }
      ],
      "name": "RoleGranted",
      "type": "event"
    },
    {
      "anonymous": false,
      "inputs": [
        {
          "indexed": true,
          "internalType": "bytes32",
          "name": "role",
          "type": "bytes32"
        },
        {
          "indexed": true,
          "internalType": "address",
          "name": "account",
          "type": "address"
        },
        {
          "indexed": true,
          "internalType": "address",
          "name": "sender",
          "type": "address"
        }
      ],
      "name": "RoleRevoked",
      "type": "event"
    },
    {
      "inputs": [],
      "name": "DEFAULT_ADMIN_ROLE",
      "outputs": [
        {
          "internalType": "bytes32",
          "name": "",
          "type": "bytes32"
        }
      ],
      "stateMutability": "view",
      "type": "function"
    },
    {
      "inputs": [],
      "name": "ERC712_VERSION",
      "outputs": [
        {
          "internalType": "string",
          "name": "",
          "type": "string"
        }
      ],
      "stateMutability": "view",
      "type": "function"
    },
    {
      "inputs": [],
      "name": "METAKEEP_LAMBDA_ADMIN_ROLE",
      "outputs": [
        {
          "internalType": "bytes32",
          "name": "",
          "type": "bytes32"
        }
      ],
      "stateMutability": "view",
      "type": "function"
    },
    {
      "inputs": [
        {
          "internalType": "address",
          "name": "userAddress",
          "type": "address"
        },
        {
          "internalType": "uint256",
          "name": "nonce",
          "type": "uint256"
        },
        {
          "internalType": "bytes32",
          "name": "sigR",
          "type": "bytes32"
        },
        {
          "internalType": "bytes32",
          "name": "sigS",
          "type": "bytes32"
        },
        {
          "internalType": "uint8",
          "name": "sigV",
          "type": "uint8"
        }
      ],
      "name": "cancelMetaKeepLambdaNonce",
      "outputs": [],
      "stateMutability": "nonpayable",
      "type": "function"
    },
    {
      "inputs": [],
      "name": "domainSeperator",
      "outputs": [
        {
          "internalType": "bytes32",
          "name": "",
          "type": "bytes32"
        }
      ],
      "stateMutability": "view",
      "type": "function"
    },
    {
      "inputs": [
        {
          "internalType": "address",
          "name": "userAddress",
          "type": "address"
        },
        {
          "internalType": "uint256",
          "name": "nonce",
          "type": "uint256"
        },
        {
          "internalType": "uint256",
          "name": "validFrom",
          "type": "uint256"
        },
        {
          "internalType": "uint256",
          "name": "validUpto",
          "type": "uint256"
        },
        {
          "internalType": "bytes",
          "name": "functionSignature",
          "type": "bytes"
        },
        {
          "internalType": "bytes32",
          "name": "sigR",
          "type": "bytes32"
        },
        {
          "internalType": "bytes32",
          "name": "sigS",
          "type": "bytes32"
        },
        {
          "internalType": "uint8",
          "name": "sigV",
          "type": "uint8"
        }
      ],
      "name": "executeMetaKeepLambdaTransaction",
      "outputs": [
        {
          "internalType": "bool",
          "name": "",
          "type": "bool"
        }
      ],
      "stateMutability": "payable",
      "type": "function"
    },
    {
      "inputs": [
        {
          "internalType": "bytes32",
          "name": "id",
          "type": "bytes32"
        }
      ],
      "name": "getCandidate",
      "outputs": [
        {
          "internalType": "address",
          "name": "",
          "type": "address"
        },
        {
          "internalType": "uint256",
          "name": "",
          "type": "uint256"
        }
      ],
      "stateMutability": "view",
      "type": "function"
    },
    {
      "inputs": [],
      "name": "getOwner",
      "outputs": [
        {
          "internalType": "address",
          "name": "",
          "type": "address"
        }
      ],
      "stateMutability": "view",
      "type": "function"
    },
    {
      "inputs": [
        {
          "internalType": "bytes32",
          "name": "role",
          "type": "bytes32"
        }
      ],
      "name": "getRoleAdmin",
      "outputs": [
        {
          "internalType": "bytes32",
          "name": "",
          "type": "bytes32"
        }
      ],
      "stateMutability": "view",
      "type": "function"
    },
    {
      "inputs": [
        {
          "internalType": "bytes32[]",
          "name": "ids",
          "type": "bytes32[]"
        }
      ],
      "name": "getWinner",
      "outputs": [
        {
          "internalType": "address",
          "name": "",
          "type": "address"
        }
      ],
      "stateMutability": "view",
      "type": "function"
    },
    {
      "inputs": [
        {
          "internalType": "bytes32",
          "name": "role",
          "type": "bytes32"
        },
        {
          "internalType": "address",
          "name": "account",
          "type": "address"
        }
      ],
      "name": "grantRole",
      "outputs": [],
      "stateMutability": "nonpayable",
      "type": "function"
    },
    {
      "inputs": [
        {
          "internalType": "bytes32",
          "name": "role",
          "type": "bytes32"
        },
        {
          "internalType": "address",
          "name": "account",
          "type": "address"
        }
      ],
      "name": "hasRole",
      "outputs": [
        {
          "internalType": "bool",
          "name": "",
          "type": "bool"
        }
      ],
      "stateMutability": "view",
      "type": "function"
    },
    {
      "inputs": [
        {
          "internalType": "address",
          "name": "userAddress",
          "type": "address"
        },
        {
          "internalType": "uint256",
          "name": "nonce",
          "type": "uint256"
        }
      ],
      "name": "metaKeepLambdaNonceState",
      "outputs": [
        {
          "internalType": "bool",
          "name": "",
          "type": "bool"
        }
      ],
      "stateMutability": "view",
      "type": "function"
    },
    {
      "inputs": [
        {
          "internalType": "address",
          "name": "candidate_address",
          "type": "address"
        }
      ],
      "name": "registerCandidate",
      "outputs": [],
      "stateMutability": "nonpayable",
      "type": "function"
    },
    {
      "inputs": [
        {
          "internalType": "bytes32",
          "name": "role",
          "type": "bytes32"
        },
        {
          "internalType": "address",
          "name": "account",
          "type": "address"
        }
      ],
      "name": "renounceRole",
      "outputs": [],
      "stateMutability": "nonpayable",
      "type": "function"
    },
    {
      "inputs": [
        {
          "internalType": "bytes32",
          "name": "role",
          "type": "bytes32"
        },
        {
          "internalType": "address",
          "name": "account",
          "type": "address"
        }
      ],
      "name": "revokeRole",
      "outputs": [],
      "stateMutability": "nonpayable",
      "type": "function"
    },
    {
      "inputs": [
        {
          "internalType": "bytes4",
          "name": "interfaceId",
          "type": "bytes4"
        }
      ],
      "name": "supportsInterface",
      "outputs": [
        {
          "internalType": "bool",
          "name": "",
          "type": "bool"
        }
      ],
      "stateMutability": "view",
      "type": "function"
    },
    {
      "inputs": [
        {
          "internalType": "bytes32",
          "name": "id",
          "type": "bytes32"
        }
      ],
      "name": "totalVotesFor",
      "outputs": [
        {
          "internalType": "uint256",
          "name": "",
          "type": "uint256"
        }
      ],
      "stateMutability": "view",
      "type": "function"
    },
    {
      "inputs": [
        {
          "internalType": "bytes32",
          "name": "id",
          "type": "bytes32"
        }
      ],
      "name": "voteForCandidate",
      "outputs": [],
      "stateMutability": "nonpayable",
      "type": "function"
    }
  ],
  "bytecode": "0x60806040523480156200001157600080fd5b5060405162003312380380620033128339818101604052810190620000379190620005ba565b818181816200004c81620000fe60201b60201c565b506200007f7f7b1eebef105bd5bbc0d16725b5cf2934cb42ba2f36ad8efeb6a7200f63f1198082620001ad60201b60201c565b620000b17f7b1eebef105bd5bbc0d16725b5cf2934cb42ba2f36ad8efeb6a7200f63f1198080620001c360201b60201c565b50505082600360006101000a81548173ffffffffffffffffffffffffffffffffffffffff021916908373ffffffffffffffffffffffffffffffffffffffff160217905550505050620006be565b6040518060800160405280604f8152602001620032c3604f91398051906020012081805190602001206040518060400160405280600181526020017f31000000000000000000000000000000000000000000000000000000000000008152508051906020012030620001756200022760201b60201c565b60001b6040516020016200018e95949392919062000661565b6040516020818303038152906040528051906020012060008190555050565b620001bf82826200023460201b60201c565b5050565b6000620001d6836200032560201b60201c565b90508160016000858152602001908152602001600020600101819055508181847fbd79b86ffe0ab8e8776151514217cd7cacd52c909f66475c3af44e129f0b00ff60405160405180910390a4505050565b6000804690508091505090565b6200024682826200034560201b60201c565b6200032157600180600084815260200190815260200160002060000160008373ffffffffffffffffffffffffffffffffffffffff1673ffffffffffffffffffffffffffffffffffffffff16815260200190815260200160002060006101000a81548160ff021916908315150217905550620002c6620003b060201b60201c565b73ffffffffffffffffffffffffffffffffffffffff168173ffffffffffffffffffffffffffffffffffffffff16837f2f8788117e7eff1d82e926ec794901d17c78024a50270940304540a733656f0d60405160405180910390a45b5050565b600060016000838152602001908152602001600020600101549050919050565b60006001600084815260200190815260200160002060000160008373ffffffffffffffffffffffffffffffffffffffff1673ffffffffffffffffffffffffffffffffffffffff16815260200190815260200160002060009054906101000a900460ff16905092915050565b600033905090565b6000604051905090565b600080fd5b600080fd5b600073ffffffffffffffffffffffffffffffffffffffff82169050919050565b6000620003f982620003cc565b9050919050565b6200040b81620003ec565b81146200041757600080fd5b50565b6000815190506200042b8162000400565b92915050565b600080fd5b600080fd5b6000601f19601f8301169050919050565b7f4e487b7100000000000000000000000000000000000000000000000000000000600052604160045260246000fd5b62000486826200043b565b810181811067ffffffffffffffff82111715620004a857620004a76200044c565b5b80604052505050565b6000620004bd620003b8565b9050620004cb82826200047b565b919050565b600067ffffffffffffffff821115620004ee57620004ed6200044c565b5b620004f9826200043b565b9050602081019050919050565b60005b838110156200052657808201518184015260208101905062000509565b8381111562000536576000848401525b50505050565b6000620005536200054d84620004d0565b620004b1565b90508281526020810184848401111562000572576200057162000436565b5b6200057f84828562000506565b509392505050565b600082601f8301126200059f576200059e62000431565b5b8151620005b18482602086016200053c565b91505092915050565b600080600060608486031215620005d657620005d5620003c2565b5b6000620005e6868287016200041a565b9350506020620005f9868287016200041a565b925050604084015167ffffffffffffffff8111156200061d576200061c620003c7565b5b6200062b8682870162000587565b9150509250925092565b6000819050919050565b6200064a8162000635565b82525050565b6200065b81620003ec565b82525050565b600060a0820190506200067860008301886200063f565b6200068760208301876200063f565b6200069660408301866200063f565b620006a5606083018562000650565b620006b460808301846200063f565b9695505050505050565b612bf580620006ce6000396000f3fe6080604052600436106101145760003560e01c80639149d9e1116100a0578063cc9ab26711610064578063cc9ab267146103ca578063d547741f146103f3578063dfb6419f1461041c578063ebe9b0f21461045a578063fca884471461049757610114565b80639149d9e1146102d157806391d148541461030e578063a217fddf1461034b578063c0dcaeeb14610376578063cb73ac561461039f57610114565b80632f265cf7116100e75780632f265cf7146101ee5780632f2ff15d1461022b57806336568abe1461025457806384aa3b931461027d578063893d20e8146102a657610114565b806301ffc9a7146101195780630f7e597014610156578063243ed11d14610181578063248a9ca3146101b1575b600080fd5b34801561012557600080fd5b50610140600480360381019061013b91906119a0565b6104c2565b60405161014d91906119e8565b60405180910390f35b34801561016257600080fd5b5061016b61053c565b6040516101789190611a9c565b60405180910390f35b61019b60048036038101906101969190611cf6565b610575565b6040516101a891906119e8565b60405180910390f35b3480156101bd57600080fd5b506101d860048036038101906101d39190611dc8565b610797565b6040516101e59190611e04565b60405180910390f35b3480156101fa57600080fd5b5061021560048036038101906102109190611dc8565b6107b7565b6040516102229190611e2e565b60405180910390f35b34801561023757600080fd5b50610252600480360381019061024d9190611e49565b61087c565b005b34801561026057600080fd5b5061027b60048036038101906102769190611e49565b6108a5565b005b34801561028957600080fd5b506102a4600480360381019061029f9190611e89565b610928565b005b3480156102b257600080fd5b506102bb610a4d565b6040516102c89190611ec5565b60405180910390f35b3480156102dd57600080fd5b506102f860048036038101906102f39190611fa8565b610a77565b6040516103059190611ec5565b60405180910390f35b34801561031a57600080fd5b5061033560048036038101906103309190611e49565b610bff565b60405161034291906119e8565b60405180910390f35b34801561035757600080fd5b50610360610c6a565b60405161036d9190611e04565b60405180910390f35b34801561038257600080fd5b5061039d60048036038101906103989190611ff1565b610c71565b005b3480156103ab57600080fd5b506103b4610d86565b6040516103c19190611e04565b60405180910390f35b3480156103d657600080fd5b506103f160048036038101906103ec9190611dc8565b610d8c565b005b3480156103ff57600080fd5b5061041a60048036038101906104159190611e49565b611008565b005b34801561042857600080fd5b50610443600480360381019061043e9190611dc8565b611031565b60405161045192919061206c565b60405180910390f35b34801561046657600080fd5b50610481600480360381019061047c9190612095565b611131565b60405161048e91906119e8565b60405180910390f35b3480156104a357600080fd5b506104ac611199565b6040516104b99190611e04565b60405180910390f35b60007f7965db0b000000000000000000000000000000000000000000000000000000007bffffffffffffffffffffffffffffffffffffffffffffffffffffffff1916827bffffffffffffffffffffffffffffffffffffffffffffffffffffffff191614806105355750610534826111bd565b5b9050919050565b6040518060400160405280600181526020017f310000000000000000000000000000000000000000000000000000000000000081525081565b600061058389898989611227565b60006040518060a001604052808a81526020018981526020018881526020018b73ffffffffffffffffffffffffffffffffffffffff16815260200187815250905060006040518060a0016040528060718152602001612b4f6071913980519060200120826000015183602001518460400151856060015186608001518051906020012060405160200161061b969594939291906120d5565b6040516020818303038152906040528051906020012090506106408b828888886112bb565b61067f576040517f08c379a000000000000000000000000000000000000000000000000000000000815260040161067690612182565b60405180910390fd5b6001600260008d73ffffffffffffffffffffffffffffffffffffffff1673ffffffffffffffffffffffffffffffffffffffff16815260200190815260200160002060008c815260200190815260200160002060006101000a81548160ff0219169083151502179055506000803073ffffffffffffffffffffffffffffffffffffffff16898e604051602001610715929190612231565b6040516020818303038152906040526040516107319190612259565b6000604051808303816000865af19150503d806000811461076e576040519150601f19603f3d011682016040523d82523d6000602084013e610773565b606091505b509150915081610784578060208201fd5b8194505050505098975050505050505050565b600060016000838152602001908152602001600020600101549050919050565b60008073ffffffffffffffffffffffffffffffffffffffff166004600084815260200190815260200160002060000160009054906101000a900473ffffffffffffffffffffffffffffffffffffffff1673ffffffffffffffffffffffffffffffffffffffff16141561085e576040517f08c379a0000000000000000000000000000000000000000000000000000000008152600401610855906122bc565b60405180910390fd5b60046000838152602001908152602001600020600101549050919050565b61088582610797565b610896816108916113bc565b6113c4565b6108a08383611461565b505050565b6108ad6113bc565b73ffffffffffffffffffffffffffffffffffffffff168173ffffffffffffffffffffffffffffffffffffffff161461091a576040517f08c379a00000000000000000000000000000000000000000000000000000000081526004016109119061234e565b60405180910390fd5b6109248282611541565b5050565b600360009054906101000a900473ffffffffffffffffffffffffffffffffffffffff1673ffffffffffffffffffffffffffffffffffffffff166109696113bc565b73ffffffffffffffffffffffffffffffffffffffff16146109bf576040517f08c379a00000000000000000000000000000000000000000000000000000000081526004016109b6906123e0565b60405180910390fd5b600060046000836040516020016109d69190612400565b6040516020818303038152906040528051906020012081526020019081526020016000209050818160000160006101000a81548173ffffffffffffffffffffffffffffffffffffffff021916908373ffffffffffffffffffffffffffffffffffffffff160217905550600081600101819055505050565b6000600360009054906101000a900473ffffffffffffffffffffffffffffffffffffffff16905090565b6000600360009054906101000a900473ffffffffffffffffffffffffffffffffffffffff1673ffffffffffffffffffffffffffffffffffffffff16610aba6113bc565b73ffffffffffffffffffffffffffffffffffffffff1614610b10576040517f08c379a0000000000000000000000000000000000000000000000000000000008152600401610b07906123e0565b60405180910390fd5b60008080600090505b8451811015610bf4578260046000878481518110610b3a57610b3961241b565b5b60200260200101518152602001908152602001600020600101541115610be15760046000868381518110610b7157610b7061241b565b5b6020026020010151815260200190815260200160002060010154925060046000868381518110610ba457610ba361241b565b5b6020026020010151815260200190815260200160002060000160009054906101000a900473ffffffffffffffffffffffffffffffffffffffff1691505b8080610bec90612479565b915050610b19565b508092505050919050565b60006001600084815260200190815260200160002060000160008373ffffffffffffffffffffffffffffffffffffffff1673ffffffffffffffffffffffffffffffffffffffff16815260200190815260200160002060009054906101000a900460ff16905092915050565b6000801b81565b610c7b8585611623565b6000604051806060016040528060358152602001612b1a60359139805190602001208587604051602001610cb1939291906124c2565b604051602081830303815290604052805190602001209050610cd686828686866112bb565b610d15576040517f08c379a0000000000000000000000000000000000000000000000000000000008152600401610d0c90612182565b60405180910390fd5b6001600260008873ffffffffffffffffffffffffffffffffffffffff1673ffffffffffffffffffffffffffffffffffffffff168152602001908152602001600020600087815260200190815260200160002060006101000a81548160ff021916908315150217905550505050505050565b60005481565b600073ffffffffffffffffffffffffffffffffffffffff166004600083815260200190815260200160002060000160009054906101000a900473ffffffffffffffffffffffffffffffffffffffff1673ffffffffffffffffffffffffffffffffffffffff161415610e32576040517f08c379a0000000000000000000000000000000000000000000000000000000008152600401610e29906122bc565b60405180910390fd5b610e3a6113bc565b73ffffffffffffffffffffffffffffffffffffffff166004600083815260200190815260200160002060000160009054906101000a900473ffffffffffffffffffffffffffffffffffffffff1673ffffffffffffffffffffffffffffffffffffffff161415610ede576040517f08c379a0000000000000000000000000000000000000000000000000000000008152600401610ed590612545565b60405180910390fd5b60056000610eea6113bc565b73ffffffffffffffffffffffffffffffffffffffff1673ffffffffffffffffffffffffffffffffffffffff16815260200190815260200160002060009054906101000a900460ff1615610f72576040517f08c379a0000000000000000000000000000000000000000000000000000000008152600401610f69906125b1565b60405180910390fd5b6000600460008381526020019081526020016000209050600160056000610f976113bc565b73ffffffffffffffffffffffffffffffffffffffff1673ffffffffffffffffffffffffffffffffffffffff16815260200190815260200160002060006101000a81548160ff0219169083151502179055506001816001016000828254610ffd91906125d1565b925050819055505050565b61101182610797565b6110228161101d6113bc565b6113c4565b61102c8383611541565b505050565b600080600073ffffffffffffffffffffffffffffffffffffffff166004600085815260200190815260200160002060000160009054906101000a900473ffffffffffffffffffffffffffffffffffffffff1673ffffffffffffffffffffffffffffffffffffffff1614156110da576040517f08c379a00000000000000000000000000000000000000000000000000000000081526004016110d1906122bc565b60405180910390fd5b6004600084815260200190815260200160002060000160009054906101000a900473ffffffffffffffffffffffffffffffffffffffff16600460008581526020019081526020016000206001015491509150915091565b6000600260008473ffffffffffffffffffffffffffffffffffffffff1673ffffffffffffffffffffffffffffffffffffffff168152602001908152602001600020600083815260200190815260200160002060009054906101000a900460ff16905092915050565b7f7b1eebef105bd5bbc0d16725b5cf2934cb42ba2f36ad8efeb6a7200f63f1198081565b60007f01ffc9a7000000000000000000000000000000000000000000000000000000007bffffffffffffffffffffffffffffffffffffffffffffffffffffffff1916827bffffffffffffffffffffffffffffffffffffffffffffffffffffffff1916149050919050565b814211611269576040517f08c379a000000000000000000000000000000000000000000000000000000000815260040161126090612699565b60405180910390fd5b8042106112ab576040517f08c379a00000000000000000000000000000000000000000000000000000000081526004016112a29061272b565b60405180910390fd5b6112b58484611623565b50505050565b60008073ffffffffffffffffffffffffffffffffffffffff168673ffffffffffffffffffffffffffffffffffffffff16141561132c576040517f08c379a000000000000000000000000000000000000000000000000000000000815260040161132390612797565b60405180910390fd5b6001611337866116c5565b8386866040516000815260200160405260405161135794939291906127c6565b6020604051602081039080840390855afa158015611379573d6000803e3d6000fd5b5050506020604051035173ffffffffffffffffffffffffffffffffffffffff168673ffffffffffffffffffffffffffffffffffffffff1614905095945050505050565b600033905090565b6113ce8282610bff565b61145d576113f38173ffffffffffffffffffffffffffffffffffffffff1660146116f8565b6114018360001c60206116f8565b6040516020016114129291906128df565b6040516020818303038152906040526040517f08c379a00000000000000000000000000000000000000000000000000000000081526004016114549190611a9c565b60405180910390fd5b5050565b61146b8282610bff565b61153d57600180600084815260200190815260200160002060000160008373ffffffffffffffffffffffffffffffffffffffff1673ffffffffffffffffffffffffffffffffffffffff16815260200190815260200160002060006101000a81548160ff0219169083151502179055506114e26113bc565b73ffffffffffffffffffffffffffffffffffffffff168173ffffffffffffffffffffffffffffffffffffffff16837f2f8788117e7eff1d82e926ec794901d17c78024a50270940304540a733656f0d60405160405180910390a45b5050565b61154b8282610bff565b1561161f5760006001600084815260200190815260200160002060000160008373ffffffffffffffffffffffffffffffffffffffff1673ffffffffffffffffffffffffffffffffffffffff16815260200190815260200160002060006101000a81548160ff0219169083151502179055506115c46113bc565b73ffffffffffffffffffffffffffffffffffffffff168173ffffffffffffffffffffffffffffffffffffffff16837ff6391f5c32d9c69d2a47ea670b442974b53935d1edc7fd64eb21e047a839171b60405160405180910390a45b5050565b600260008373ffffffffffffffffffffffffffffffffffffffff1673ffffffffffffffffffffffffffffffffffffffff168152602001908152602001600020600082815260200190815260200160002060009054906101000a900460ff16156116c1576040517f08c379a00000000000000000000000000000000000000000000000000000000081526004016116b890612965565b60405180910390fd5b5050565b60008054826040516020016116db9291906129f2565b604051602081830303815290604052805190602001209050919050565b60606000600283600261170b9190612a29565b61171591906125d1565b67ffffffffffffffff81111561172e5761172d611b5c565b5b6040519080825280601f01601f1916602001820160405280156117605781602001600182028036833780820191505090505b5090507f3000000000000000000000000000000000000000000000000000000000000000816000815181106117985761179761241b565b5b60200101907effffffffffffffffffffffffffffffffffffffffffffffffffffffffffffff1916908160001a9053507f7800000000000000000000000000000000000000000000000000000000000000816001815181106117fc576117fb61241b565b5b60200101907effffffffffffffffffffffffffffffffffffffffffffffffffffffffffffff1916908160001a9053506000600184600261183c9190612a29565b61184691906125d1565b90505b60018111156118e6577f3031323334353637383961626364656600000000000000000000000000000000600f8616601081106118885761188761241b565b5b1a60f81b82828151811061189f5761189e61241b565b5b60200101907effffffffffffffffffffffffffffffffffffffffffffffffffffffffffffff1916908160001a905350600485901c9450806118df90612a83565b9050611849565b506000841461192a576040517f08c379a000000000000000000000000000000000000000000000000000000000815260040161192190612af9565b60405180910390fd5b8091505092915050565b6000604051905090565b600080fd5b600080fd5b60007fffffffff0000000000000000000000000000000000000000000000000000000082169050919050565b61197d81611948565b811461198857600080fd5b50565b60008135905061199a81611974565b92915050565b6000602082840312156119b6576119b561193e565b5b60006119c48482850161198b565b91505092915050565b60008115159050919050565b6119e2816119cd565b82525050565b60006020820190506119fd60008301846119d9565b92915050565b600081519050919050565b600082825260208201905092915050565b60005b83811015611a3d578082015181840152602081019050611a22565b83811115611a4c576000848401525b50505050565b6000601f19601f8301169050919050565b6000611a6e82611a03565b611a788185611a0e565b9350611a88818560208601611a1f565b611a9181611a52565b840191505092915050565b60006020820190508181036000830152611ab68184611a63565b905092915050565b600073ffffffffffffffffffffffffffffffffffffffff82169050919050565b6000611ae982611abe565b9050919050565b611af981611ade565b8114611b0457600080fd5b50565b600081359050611b1681611af0565b92915050565b6000819050919050565b611b2f81611b1c565b8114611b3a57600080fd5b50565b600081359050611b4c81611b26565b92915050565b600080fd5b600080fd5b7f4e487b7100000000000000000000000000000000000000000000000000000000600052604160045260246000fd5b611b9482611a52565b810181811067ffffffffffffffff82111715611bb357611bb2611b5c565b5b80604052505050565b6000611bc6611934565b9050611bd28282611b8b565b919050565b600067ffffffffffffffff821115611bf257611bf1611b5c565b5b611bfb82611a52565b9050602081019050919050565b82818337600083830152505050565b6000611c2a611c2584611bd7565b611bbc565b905082815260208101848484011115611c4657611c45611b57565b5b611c51848285611c08565b509392505050565b600082601f830112611c6e57611c6d611b52565b5b8135611c7e848260208601611c17565b91505092915050565b6000819050919050565b611c9a81611c87565b8114611ca557600080fd5b50565b600081359050611cb781611c91565b92915050565b600060ff82169050919050565b611cd381611cbd565b8114611cde57600080fd5b50565b600081359050611cf081611cca565b92915050565b600080600080600080600080610100898b031215611d1757611d1661193e565b5b6000611d258b828c01611b07565b9850506020611d368b828c01611b3d565b9750506040611d478b828c01611b3d565b9650506060611d588b828c01611b3d565b955050608089013567ffffffffffffffff811115611d7957611d78611943565b5b611d858b828c01611c59565b94505060a0611d968b828c01611ca8565b93505060c0611da78b828c01611ca8565b92505060e0611db88b828c01611ce1565b9150509295985092959890939650565b600060208284031215611dde57611ddd61193e565b5b6000611dec84828501611ca8565b91505092915050565b611dfe81611c87565b82525050565b6000602082019050611e196000830184611df5565b92915050565b611e2881611b1c565b82525050565b6000602082019050611e436000830184611e1f565b92915050565b60008060408385031215611e6057611e5f61193e565b5b6000611e6e85828601611ca8565b9250506020611e7f85828601611b07565b9150509250929050565b600060208284031215611e9f57611e9e61193e565b5b6000611ead84828501611b07565b91505092915050565b611ebf81611ade565b82525050565b6000602082019050611eda6000830184611eb6565b92915050565b600067ffffffffffffffff821115611efb57611efa611b5c565b5b602082029050602081019050919050565b600080fd5b6000611f24611f1f84611ee0565b611bbc565b90508083825260208201905060208402830185811115611f4757611f46611f0c565b5b835b81811015611f705780611f5c8882611ca8565b845260208401935050602081019050611f49565b5050509392505050565b600082601f830112611f8f57611f8e611b52565b5b8135611f9f848260208601611f11565b91505092915050565b600060208284031215611fbe57611fbd61193e565b5b600082013567ffffffffffffffff811115611fdc57611fdb611943565b5b611fe884828501611f7a565b91505092915050565b600080600080600060a0868803121561200d5761200c61193e565b5b600061201b88828901611b07565b955050602061202c88828901611b3d565b945050604061203d88828901611ca8565b935050606061204e88828901611ca8565b925050608061205f88828901611ce1565b9150509295509295909350565b60006040820190506120816000830185611eb6565b61208e6020830184611e1f565b9392505050565b600080604083850312156120ac576120ab61193e565b5b60006120ba85828601611b07565b92505060206120cb85828601611b3d565b9150509250929050565b600060c0820190506120ea6000830189611df5565b6120f76020830188611e1f565b6121046040830187611e1f565b6121116060830186611e1f565b61211e6080830185611eb6565b61212b60a0830184611df5565b979650505050505050565b7f4d6574614b6565704c616d6264613a20536967206e6f74206d61746368000000600082015250565b600061216c601d83611a0e565b915061217782612136565b602082019050919050565b6000602082019050818103600083015261219b8161215f565b9050919050565b600081519050919050565b600081905092915050565b60006121c3826121a2565b6121cd81856121ad565b93506121dd818560208601611a1f565b80840191505092915050565b60008160601b9050919050565b6000612201826121e9565b9050919050565b6000612213826121f6565b9050919050565b61222b61222682611ade565b612208565b82525050565b600061223d82856121b8565b9150612249828461221a565b6014820191508190509392505050565b600061226582846121b8565b915081905092915050565b7f43616e64696461746520646f6573206e6f742065786973742e00000000000000600082015250565b60006122a6601983611a0e565b91506122b182612270565b602082019050919050565b600060208201905081810360008301526122d581612299565b9050919050565b7f416363657373436f6e74726f6c3a2063616e206f6e6c792072656e6f756e636560008201527f20726f6c657320666f722073656c660000000000000000000000000000000000602082015250565b6000612338602f83611a0e565b9150612343826122dc565b604082019050919050565b600060208201905081810360008301526123678161232b565b9050919050565b7f4f6e6c79206f776e65722063616e2063616c6c20746869732066756e6374696f60008201527f6e2e000000000000000000000000000000000000000000000000000000000000602082015250565b60006123ca602283611a0e565b91506123d58261236e565b604082019050919050565b600060208201905081810360008301526123f9816123bd565b9050919050565b600061240c828461221a565b60148201915081905092915050565b7f4e487b7100000000000000000000000000000000000000000000000000000000600052603260045260246000fd5b7f4e487b7100000000000000000000000000000000000000000000000000000000600052601160045260246000fd5b600061248482611b1c565b91507fffffffffffffffffffffffffffffffffffffffffffffffffffffffffffffffff8214156124b7576124b661244a565b5b600182019050919050565b60006060820190506124d76000830186611df5565b6124e46020830185611e1f565b6124f16040830184611eb6565b949350505050565b7f596f752063616e6e6f7420766f746520666f7220796f757273656c662e000000600082015250565b600061252f601d83611a0e565b915061253a826124f9565b602082019050919050565b6000602082019050818103600083015261255e81612522565b9050919050565b7f596f75206861766520616c726561647920766f7465642e000000000000000000600082015250565b600061259b601783611a0e565b91506125a682612565565b602082019050919050565b600060208201905081810360008301526125ca8161258e565b9050919050565b60006125dc82611b1c565b91506125e783611b1c565b9250827fffffffffffffffffffffffffffffffffffffffffffffffffffffffffffffffff0382111561261c5761261b61244a565b5b828201905092915050565b7f4d6574614b6565704c616d6264613a20417574686f72697a6174696f6e20697360008201527f206e6f742079657420676976656e000000000000000000000000000000000000602082015250565b6000612683602e83611a0e565b915061268e82612627565b604082019050919050565b600060208201905081810360008301526126b281612676565b9050919050565b7f4d6574614b6565704c616d6264613a20417574686f72697a6174696f6e20686160008201527f7320657870697265640000000000000000000000000000000000000000000000602082015250565b6000612715602983611a0e565b9150612720826126b9565b604082019050919050565b6000602082019050818103600083015261274481612708565b9050919050565b7f4d6574614b6565704c616d6264613a20494e56414c49445f5349474e45520000600082015250565b6000612781601e83611a0e565b915061278c8261274b565b602082019050919050565b600060208201905081810360008301526127b081612774565b9050919050565b6127c081611cbd565b82525050565b60006080820190506127db6000830187611df5565b6127e860208301866127b7565b6127f56040830185611df5565b6128026060830184611df5565b95945050505050565b600081905092915050565b7f416363657373436f6e74726f6c3a206163636f756e7420000000000000000000600082015250565b600061284c60178361280b565b915061285782612816565b601782019050919050565b600061286d82611a03565b612877818561280b565b9350612887818560208601611a1f565b80840191505092915050565b7f206973206d697373696e6720726f6c6520000000000000000000000000000000600082015250565b60006128c960118361280b565b91506128d482612893565b601182019050919050565b60006128ea8261283f565b91506128f68285612862565b9150612901826128bc565b915061290d8284612862565b91508190509392505050565b7f4d6574614b6565704c616d6264613a204e6f6e63652055736564000000000000600082015250565b600061294f601a83611a0e565b915061295a82612919565b602082019050919050565b6000602082019050818103600083015261297e81612942565b9050919050565b7f1901000000000000000000000000000000000000000000000000000000000000600082015250565b60006129bb60028361280b565b91506129c682612985565b600282019050919050565b6000819050919050565b6129ec6129e782611c87565b6129d1565b82525050565b60006129fd826129ae565b9150612a0982856129db565b602082019150612a1982846129db565b6020820191508190509392505050565b6000612a3482611b1c565b9150612a3f83611b1c565b9250817fffffffffffffffffffffffffffffffffffffffffffffffffffffffffffffffff0483118215151615612a7857612a7761244a565b5b828202905092915050565b6000612a8e82611b1c565b91506000821415612aa257612aa161244a565b5b600182039050919050565b7f537472696e67733a20686578206c656e67746820696e73756666696369656e74600082015250565b6000612ae3602083611a0e565b9150612aee82612aad565b602082019050919050565b60006020820190508181036000830152612b1281612ad6565b905091905056fe4d6574614b6565704c616d62646143616e63656c4e6f6e63652875696e74323536206e6f6e63652c616464726573732066726f6d294d6574614b6565704c616d6264615472616e73616374696f6e2875696e74323536206e6f6e63652c75696e743235362076616c696446726f6d2c75696e743235362076616c69645570746f2c616464726573732066726f6d2c62797465732066756e6374696f6e5369676e617475726529a26469706673582212209537b31cf3bd0d9519b6debe195fabcfa7b89f4ba0a6756d7d3af672124cda5264736f6c63430008090033454950373132446f6d61696e28737472696e67206e616d652c737472696e672076657273696f6e2c6164647265737320766572696679696e67436f6e74726163742c627974657333322073616c7429",
  "linkReferences": {},
  "deployedLinkReferences": {}
}