{"contracts/Voting.sol":{"Voting":{"abi":[{"inputs":[{"internalType":"address","name":"lambdaOwner","type":"address"},{"internalType":"string","name":"lambdaName","type":"string"}],"stateMutability":"nonpayable","type":"constructor"},{"anonymous":false,"inputs":[{"indexed":true,"internalType":"bytes32","name":"role","type":"bytes32"},{"indexed":true,"internalType":"bytes32","name":"previousAdminRole","type":"bytes32"},{"indexed":true,"internalType":"bytes32","name":"newAdminRole","type":"bytes32"}],"name":"RoleAdminChanged","type":"event"},{"anonymous":false,"inputs":[{"indexed":true,"internalType":"bytes32","name":"role","type":"bytes32"},{"indexed":true,"internalType":"address","name":"account","type":"address"},{"indexed":true,"internalType":"address","name":"sender","type":"address"}],"name":"RoleGranted","type":"event"},{"anonymous":false,"inputs":[{"indexed":true,"internalType":"bytes32","name":"role","type":"bytes32"},{"indexed":true,"internalType":"address","name":"account","type":"address"},{"indexed":true,"internalType":"address","name":"sender","type":"address"}],"name":"RoleRevoked","type":"event"},{"inputs":[],"name":"DEFAULT_ADMIN_ROLE","outputs":[{"internalType":"bytes32","name":"","type":"bytes32"}],"stateMutability":"view","type":"function"},{"inputs":[],"name":"ERC712_VERSION","outputs":[{"internalType":"string","name":"","type":"string"}],"stateMutability":"view","type":"function"},{"inputs":[],"name":"METAKEEP_LAMBDA_ADMIN_ROLE","outputs":[{"internalType":"bytes32","name":"","type":"bytes32"}],"stateMutability":"view","type":"function"},{"inputs":[{"internalType":"address","name":"userAddress","type":"address"},{"internalType":"uint256","name":"nonce","type":"uint256"},{"internalType":"bytes32","name":"sigR","type":"bytes32"},{"internalType":"bytes32","name":"sigS","type":"bytes32"},{"internalType":"uint8","name":"sigV","type":"uint8"}],"name":"cancelMetaKeepLambdaNonce","outputs":[],"stateMutability":"nonpayable","type":"function"},{"inputs":[],"name":"domainSeperator","outputs":[{"internalType":"bytes32","name":"","type":"bytes32"}],"stateMutability":"view","type":"function"},{"inputs":[{"internalType":"address","name":"userAddress","type":"address"},{"internalType":"uint256","name":"nonce","type":"uint256"},{"internalType":"uint256","name":"validFrom","type":"uint256"},{"internalType":"uint256","name":"validUpto","type":"uint256"},{"internalType":"bytes","name":"functionSignature","type":"bytes"},{"internalType":"bytes32","name":"sigR","type":"bytes32"},{"internalType":"bytes32","name":"sigS","type":"bytes32"},{"internalType":"uint8","name":"sigV","type":"uint8"}],"name":"executeMetaKeepLambdaTransaction","outputs":[{"internalType":"bool","name":"","type":"bool"}],"stateMutability":"payable","type":"function"},{"inputs":[{"internalType":"bytes32","name":"id","type":"bytes32"}],"name":"getCandidate","outputs":[{"internalType":"address","name":"","type":"address"},{"internalType":"uint256","name":"","type":"uint256"}],"stateMutability":"view","type":"function"},{"inputs":[{"internalType":"bytes32","name":"role","type":"bytes32"}],"name":"getRoleAdmin","outputs":[{"internalType":"bytes32","name":"","type":"bytes32"}],"stateMutability":"view","type":"function"},{"inputs":[{"internalType":"bytes32[]","name":"ids","type":"bytes32[]"}],"name":"getWinner","outputs":[{"internalType":"address","name":"","type":"address"}],"stateMutability":"view","type":"function"},{"inputs":[{"internalType":"bytes32","name":"role","type":"bytes32"},{"internalType":"address","name":"account","type":"address"}],"name":"grantRole","outputs":[],"stateMutability":"nonpayable","type":"function"},{"inputs":[{"internalType":"bytes32","name":"role","type":"bytes32"},{"internalType":"address","name":"account","type":"address"}],"name":"hasRole","outputs":[{"internalType":"bool","name":"","type":"bool"}],"stateMutability":"view","type":"function"},{"inputs":[{"internalType":"address","name":"userAddress","type":"address"},{"internalType":"uint256","name":"nonce","type":"uint256"}],"name":"metaKeepLambdaNonceState","outputs":[{"internalType":"bool","name":"","type":"bool"}],"stateMutability":"view","type":"function"},{"inputs":[{"internalType":"address","name":"candidate_address","type":"address"}],"name":"registerCandidate","outputs":[],"stateMutability":"nonpayable","type":"function"},{"inputs":[{"internalType":"bytes32","name":"role","type":"bytes32"},{"internalType":"address","name":"account","type":"address"}],"name":"renounceRole","outputs":[],"stateMutability":"nonpayable","type":"function"},{"inputs":[{"internalType":"bytes32","name":"role","type":"bytes32"},{"internalType":"address","name":"account","type":"address"}],"name":"revokeRole","outputs":[],"stateMutability":"nonpayable","type":"function"},{"inputs":[{"internalType":"bytes4","name":"interfaceId","type":"bytes4"}],"name":"supportsInterface","outputs":[{"internalType":"bool","name":"","type":"bool"}],"stateMutability":"view","type":"function"},{"inputs":[{"internalType":"bytes32","name":"id","type":"bytes32"}],"name":"totalVotesFor","outputs":[{"internalType":"uint256","name":"","type":"uint256"}],"stateMutability":"view","type":"function"},{"inputs":[{"internalType":"bytes32","name":"id","type":"bytes32"}],"name":"voteForCandidate","outputs":[],"stateMutability":"nonpayable","type":"function"}],"evm":{"bytecode":{"linkReferences":{},"object":"60806040523480156200001157600080fd5b50604051620033663803806200336683398181016040528101906200003791906200063f565b818181816200004c81620000bc60201b60201c565b506200007f7f7b1eebef105bd5bbc0d16725b5cf2934cb42ba2f36ad8efeb6a7200f63f11980826200016b60201b60201c565b620000b17f7b1eebef105bd5bbc0d16725b5cf2934cb42ba2f36ad8efeb6a7200f63f11980806200018160201b60201c565b50505050506200072e565b6040518060800160405280604f815260200162003317604f91398051906020012081805190602001206040518060400160405280600181526020017f3100000000000000000000000000000000000000000000000000000000000000815250805190602001203062000133620001e560201b60201c565b60001b6040516020016200014c959493929190620006d1565b6040516020818303038152906040528051906020012060008190555050565b6200017d8282620001f260201b60201c565b5050565b60006200019483620002e360201b60201c565b90508160016000858152602001908152602001600020600101819055508181847fbd79b86ffe0ab8e8776151514217cd7cacd52c909f66475c3af44e129f0b00ff60405160405180910390a4505050565b6000804690508091505090565b6200020482826200030360201b60201c565b620002df57600180600084815260200190815260200160002060000160008373ffffffffffffffffffffffffffffffffffffffff1673ffffffffffffffffffffffffffffffffffffffff16815260200190815260200160002060006101000a81548160ff021916908315150217905550620002846200036e60201b60201c565b73ffffffffffffffffffffffffffffffffffffffff168173ffffffffffffffffffffffffffffffffffffffff16837f2f8788117e7eff1d82e926ec794901d17c78024a50270940304540a733656f0d60405160405180910390a45b5050565b600060016000838152602001908152602001600020600101549050919050565b60006001600084815260200190815260200160002060000160008373ffffffffffffffffffffffffffffffffffffffff1673ffffffffffffffffffffffffffffffffffffffff16815260200190815260200160002060009054906101000a900460ff16905092915050565b6000620003856200038a60201b6200110f1760201c565b905090565b60003073ffffffffffffffffffffffffffffffffffffffff163373ffffffffffffffffffffffffffffffffffffffff1614156200043657600080368080601f016020809104026020016040519081016040528093929190818152602001838380828437600081840152601f19601f820116905080830192505050505050509050600080369050905073ffffffffffffffffffffffffffffffffffffffff8183015116925050506200043a565b3390505b90565b6000604051905090565b600080fd5b600080fd5b600073ffffffffffffffffffffffffffffffffffffffff82169050919050565b60006200047e8262000451565b9050919050565b620004908162000471565b81146200049c57600080fd5b50565b600081519050620004b08162000485565b92915050565b600080fd5b600080fd5b6000601f19601f8301169050919050565b7f4e487b7100000000000000000000000000000000000000000000000000000000600052604160045260246000fd5b6200050b82620004c0565b810181811067ffffffffffffffff821117156200052d576200052c620004d1565b5b80604052505050565b6000620005426200043d565b905062000550828262000500565b919050565b600067ffffffffffffffff821115620005735762000572620004d1565b5b6200057e82620004c0565b9050602081019050919050565b60005b83811015620005ab5780820151818401526020810190506200058e565b83811115620005bb576000848401525b50505050565b6000620005d8620005d28462000555565b62000536565b905082815260208101848484011115620005f757620005f6620004bb565b5b620006048482856200058b565b509392505050565b600082601f830112620006245762000623620004b6565b5b815162000636848260208601620005c1565b91505092915050565b6000806040838503121562000659576200065862000447565b5b600062000669858286016200049f565b925050602083015167ffffffffffffffff8111156200068d576200068c6200044c565b5b6200069b858286016200060c565b9150509250929050565b6000819050919050565b620006ba81620006a5565b82525050565b620006cb8162000471565b82525050565b600060a082019050620006e86000830188620006af565b620006f76020830187620006af565b620007066040830186620006af565b620007156060830185620006c0565b620007246080830184620006af565b9695505050505050565b612bd9806200073e6000396000f3fe6080604052600436106101095760003560e01c806391d1485411610095578063cc9ab26711610064578063cc9ab26714610394578063d547741f146103bd578063dfb6419f146103e6578063ebe9b0f214610424578063fca884471461046157610109565b806391d14854146102d8578063a217fddf14610315578063c0dcaeeb14610340578063cb73ac561461036957610109565b80632f265cf7116100dc5780632f265cf7146101e35780632f2ff15d1461022057806336568abe1461024957806384aa3b93146102725780639149d9e11461029b57610109565b806301ffc9a71461010e5780630f7e59701461014b578063243ed11d14610176578063248a9ca3146101a6575b600080fd5b34801561011a57600080fd5b50610135600480360381019061013091906119aa565b61048c565b60405161014291906119f2565b60405180910390f35b34801561015757600080fd5b50610160610506565b60405161016d9190611aa6565b60405180910390f35b610190600480360381019061018b9190611d00565b61053f565b60405161019d91906119f2565b60405180910390f35b3480156101b257600080fd5b506101cd60048036038101906101c89190611dd2565b610761565b6040516101da9190611e0e565b60405180910390f35b3480156101ef57600080fd5b5061020a60048036038101906102059190611dd2565b610781565b6040516102179190611e38565b60405180910390f35b34801561022c57600080fd5b5061024760048036038101906102429190611e53565b610846565b005b34801561025557600080fd5b50610270600480360381019061026b9190611e53565b61086f565b005b34801561027e57600080fd5b5061029960048036038101906102949190611e93565b6108f2565b005b3480156102a757600080fd5b506102c260048036038101906102bd9190611f88565b6109f0565b6040516102cf9190611fe0565b60405180910390f35b3480156102e457600080fd5b506102ff60048036038101906102fa9190611e53565b610b51565b60405161030c91906119f2565b60405180910390f35b34801561032157600080fd5b5061032a610bbc565b6040516103379190611e0e565b60405180910390f35b34801561034c57600080fd5b5061036760048036038101906103629190611ffb565b610bc3565b005b34801561037557600080fd5b5061037e610cd8565b60405161038b9190611e0e565b60405180910390f35b3480156103a057600080fd5b506103bb60048036038101906103b69190611dd2565b610cde565b005b3480156103c957600080fd5b506103e460048036038101906103df9190611e53565b610f5a565b005b3480156103f257600080fd5b5061040d60048036038101906104089190611dd2565b610f83565b60405161041b929190612076565b60405180910390f35b34801561043057600080fd5b5061044b6004803603810190610446919061209f565b611083565b60405161045891906119f2565b60405180910390f35b34801561046d57600080fd5b506104766110eb565b6040516104839190611e0e565b60405180910390f35b60007f7965db0b000000000000000000000000000000000000000000000000000000007bffffffffffffffffffffffffffffffffffffffffffffffffffffffff1916827bffffffffffffffffffffffffffffffffffffffffffffffffffffffff191614806104ff57506104fe826111c0565b5b9050919050565b6040518060400160405280600181526020017f310000000000000000000000000000000000000000000000000000000000000081525081565b600061054d8989898961122a565b60006040518060a001604052808a81526020018981526020018881526020018b73ffffffffffffffffffffffffffffffffffffffff16815260200187815250905060006040518060a0016040528060718152602001612b33607191398051906020012082600001518360200151846040015185606001518660800151805190602001206040516020016105e5969594939291906120df565b60405160208183030381529060405280519060200120905061060a8b828888886112be565b610649576040517f08c379a00000000000000000000000000000000000000000000000000000000081526004016106409061218c565b60405180910390fd5b6001600260008d73ffffffffffffffffffffffffffffffffffffffff1673ffffffffffffffffffffffffffffffffffffffff16815260200190815260200160002060008c815260200190815260200160002060006101000a81548160ff0219169083151502179055506000803073ffffffffffffffffffffffffffffffffffffffff16898e6040516020016106df92919061223b565b6040516020818303038152906040526040516106fb9190612263565b6000604051808303816000865af19150503d8060008114610738576040519150601f19603f3d011682016040523d82523d6000602084013e61073d565b606091505b50915091508161074e578060208201fd5b8194505050505098975050505050505050565b600060016000838152602001908152602001600020600101549050919050565b60008073ffffffffffffffffffffffffffffffffffffffff166003600084815260200190815260200160002060000160009054906101000a900473ffffffffffffffffffffffffffffffffffffffff1673ffffffffffffffffffffffffffffffffffffffff161415610828576040517f08c379a000000000000000000000000000000000000000000000000000000000815260040161081f906122c6565b60405180910390fd5b60036000838152602001908152602001600020600101549050919050565b61084f82610761565b6108608161085b6113bf565b6113ce565b61086a838361146b565b505050565b6108776113bf565b73ffffffffffffffffffffffffffffffffffffffff168173ffffffffffffffffffffffffffffffffffffffff16146108e4576040517f08c379a00000000000000000000000000000000000000000000000000000000081526004016108db90612358565b60405180910390fd5b6108ee828261154b565b5050565b6109237f7b1eebef105bd5bbc0d16725b5cf2934cb42ba2f36ad8efeb6a7200f63f1198061091e61110f565b610b51565b610962576040517f08c379a0000000000000000000000000000000000000000000000000000000008152600401610959906123c4565b60405180910390fd5b6000600360008360405160200161097991906123e4565b6040516020818303038152906040528051906020012081526020019081526020016000209050818160000160006101000a81548173ffffffffffffffffffffffffffffffffffffffff021916908373ffffffffffffffffffffffffffffffffffffffff160217905550600081600101819055505050565b6000610a237f7b1eebef105bd5bbc0d16725b5cf2934cb42ba2f36ad8efeb6a7200f63f11980610a1e61110f565b610b51565b610a62576040517f08c379a0000000000000000000000000000000000000000000000000000000008152600401610a59906123c4565b60405180910390fd5b60008080600090505b8451811015610b46578260036000878481518110610a8c57610a8b6123ff565b5b60200260200101518152602001908152602001600020600101541115610b335760036000868381518110610ac357610ac26123ff565b5b6020026020010151815260200190815260200160002060010154925060036000868381518110610af657610af56123ff565b5b6020026020010151815260200190815260200160002060000160009054906101000a900473ffffffffffffffffffffffffffffffffffffffff1691505b8080610b3e9061245d565b915050610a6b565b508092505050919050565b60006001600084815260200190815260200160002060000160008373ffffffffffffffffffffffffffffffffffffffff1673ffffffffffffffffffffffffffffffffffffffff16815260200190815260200160002060009054906101000a900460ff16905092915050565b6000801b81565b610bcd858561162d565b6000604051806060016040528060358152602001612afe60359139805190602001208587604051602001610c03939291906124a6565b604051602081830303815290604052805190602001209050610c2886828686866112be565b610c67576040517f08c379a0000000000000000000000000000000000000000000000000000000008152600401610c5e9061218c565b60405180910390fd5b6001600260008873ffffffffffffffffffffffffffffffffffffffff1673ffffffffffffffffffffffffffffffffffffffff168152602001908152602001600020600087815260200190815260200160002060006101000a81548160ff021916908315150217905550505050505050565b60005481565b600073ffffffffffffffffffffffffffffffffffffffff166003600083815260200190815260200160002060000160009054906101000a900473ffffffffffffffffffffffffffffffffffffffff1673ffffffffffffffffffffffffffffffffffffffff161415610d84576040517f08c379a0000000000000000000000000000000000000000000000000000000008152600401610d7b906122c6565b60405180910390fd5b610d8c6113bf565b73ffffffffffffffffffffffffffffffffffffffff166003600083815260200190815260200160002060000160009054906101000a900473ffffffffffffffffffffffffffffffffffffffff1673ffffffffffffffffffffffffffffffffffffffff161415610e30576040517f08c379a0000000000000000000000000000000000000000000000000000000008152600401610e2790612529565b60405180910390fd5b60046000610e3c6113bf565b73ffffffffffffffffffffffffffffffffffffffff1673ffffffffffffffffffffffffffffffffffffffff16815260200190815260200160002060009054906101000a900460ff1615610ec4576040517f08c379a0000000000000000000000000000000000000000000000000000000008152600401610ebb90612595565b60405180910390fd5b6000600360008381526020019081526020016000209050600160046000610ee96113bf565b73ffffffffffffffffffffffffffffffffffffffff1673ffffffffffffffffffffffffffffffffffffffff16815260200190815260200160002060006101000a81548160ff0219169083151502179055506001816001016000828254610f4f91906125b5565b925050819055505050565b610f6382610761565b610f7481610f6f6113bf565b6113ce565b610f7e838361154b565b505050565b600080600073ffffffffffffffffffffffffffffffffffffffff166003600085815260200190815260200160002060000160009054906101000a900473ffffffffffffffffffffffffffffffffffffffff1673ffffffffffffffffffffffffffffffffffffffff16141561102c576040517f08c379a0000000000000000000000000000000000000000000000000000000008152600401611023906122c6565b60405180910390fd5b6003600084815260200190815260200160002060000160009054906101000a900473ffffffffffffffffffffffffffffffffffffffff16600360008581526020019081526020016000206001015491509150915091565b6000600260008473ffffffffffffffffffffffffffffffffffffffff1673ffffffffffffffffffffffffffffffffffffffff168152602001908152602001600020600083815260200190815260200160002060009054906101000a900460ff16905092915050565b7f7b1eebef105bd5bbc0d16725b5cf2934cb42ba2f36ad8efeb6a7200f63f1198081565b60003073ffffffffffffffffffffffffffffffffffffffff163373ffffffffffffffffffffffffffffffffffffffff1614156111b957600080368080601f016020809104026020016040519081016040528093929190818152602001838380828437600081840152601f19601f820116905080830192505050505050509050600080369050905073ffffffffffffffffffffffffffffffffffffffff8183015116925050506111bd565b3390505b90565b60007f01ffc9a7000000000000000000000000000000000000000000000000000000007bffffffffffffffffffffffffffffffffffffffffffffffffffffffff1916827bffffffffffffffffffffffffffffffffffffffffffffffffffffffff1916149050919050565b81421161126c576040517f08c379a00000000000000000000000000000000000000000000000000000000081526004016112639061267d565b60405180910390fd5b8042106112ae576040517f08c379a00000000000000000000000000000000000000000000000000000000081526004016112a59061270f565b60405180910390fd5b6112b8848461162d565b50505050565b60008073ffffffffffffffffffffffffffffffffffffffff168673ffffffffffffffffffffffffffffffffffffffff16141561132f576040517f08c379a00000000000000000000000000000000000000000000000000000000081526004016113269061277b565b60405180910390fd5b600161133a866116cf565b8386866040516000815260200160405260405161135a94939291906127aa565b6020604051602081039080840390855afa15801561137c573d6000803e3d6000fd5b5050506020604051035173ffffffffffffffffffffffffffffffffffffffff168673ffffffffffffffffffffffffffffffffffffffff1614905095945050505050565b60006113c961110f565b905090565b6113d88282610b51565b611467576113fd8173ffffffffffffffffffffffffffffffffffffffff166014611702565b61140b8360001c6020611702565b60405160200161141c9291906128c3565b6040516020818303038152906040526040517f08c379a000000000000000000000000000000000000000000000000000000000815260040161145e9190611aa6565b60405180910390fd5b5050565b6114758282610b51565b61154757600180600084815260200190815260200160002060000160008373ffffffffffffffffffffffffffffffffffffffff1673ffffffffffffffffffffffffffffffffffffffff16815260200190815260200160002060006101000a81548160ff0219169083151502179055506114ec6113bf565b73ffffffffffffffffffffffffffffffffffffffff168173ffffffffffffffffffffffffffffffffffffffff16837f2f8788117e7eff1d82e926ec794901d17c78024a50270940304540a733656f0d60405160405180910390a45b5050565b6115558282610b51565b156116295760006001600084815260200190815260200160002060000160008373ffffffffffffffffffffffffffffffffffffffff1673ffffffffffffffffffffffffffffffffffffffff16815260200190815260200160002060006101000a81548160ff0219169083151502179055506115ce6113bf565b73ffffffffffffffffffffffffffffffffffffffff168173ffffffffffffffffffffffffffffffffffffffff16837ff6391f5c32d9c69d2a47ea670b442974b53935d1edc7fd64eb21e047a839171b60405160405180910390a45b5050565b600260008373ffffffffffffffffffffffffffffffffffffffff1673ffffffffffffffffffffffffffffffffffffffff168152602001908152602001600020600082815260200190815260200160002060009054906101000a900460ff16156116cb576040517f08c379a00000000000000000000000000000000000000000000000000000000081526004016116c290612949565b60405180910390fd5b5050565b60008054826040516020016116e59291906129d6565b604051602081830303815290604052805190602001209050919050565b6060600060028360026117159190612a0d565b61171f91906125b5565b67ffffffffffffffff81111561173857611737611b66565b5b6040519080825280601f01601f19166020018201604052801561176a5781602001600182028036833780820191505090505b5090507f3000000000000000000000000000000000000000000000000000000000000000816000815181106117a2576117a16123ff565b5b60200101907effffffffffffffffffffffffffffffffffffffffffffffffffffffffffffff1916908160001a9053507f780000000000000000000000000000000000000000000000000000000000000081600181518110611806576118056123ff565b5b60200101907effffffffffffffffffffffffffffffffffffffffffffffffffffffffffffff1916908160001a905350600060018460026118469190612a0d565b61185091906125b5565b90505b60018111156118f0577f3031323334353637383961626364656600000000000000000000000000000000600f861660108110611892576118916123ff565b5b1a60f81b8282815181106118a9576118a86123ff565b5b60200101907effffffffffffffffffffffffffffffffffffffffffffffffffffffffffffff1916908160001a905350600485901c9450806118e990612a67565b9050611853565b5060008414611934576040517f08c379a000000000000000000000000000000000000000000000000000000000815260040161192b90612add565b60405180910390fd5b8091505092915050565b6000604051905090565b600080fd5b600080fd5b60007fffffffff0000000000000000000000000000000000000000000000000000000082169050919050565b61198781611952565b811461199257600080fd5b50565b6000813590506119a48161197e565b92915050565b6000602082840312156119c0576119bf611948565b5b60006119ce84828501611995565b91505092915050565b60008115159050919050565b6119ec816119d7565b82525050565b6000602082019050611a0760008301846119e3565b92915050565b600081519050919050565b600082825260208201905092915050565b60005b83811015611a47578082015181840152602081019050611a2c565b83811115611a56576000848401525b50505050565b6000601f19601f8301169050919050565b6000611a7882611a0d565b611a828185611a18565b9350611a92818560208601611a29565b611a9b81611a5c565b840191505092915050565b60006020820190508181036000830152611ac08184611a6d565b905092915050565b600073ffffffffffffffffffffffffffffffffffffffff82169050919050565b6000611af382611ac8565b9050919050565b611b0381611ae8565b8114611b0e57600080fd5b50565b600081359050611b2081611afa565b92915050565b6000819050919050565b611b3981611b26565b8114611b4457600080fd5b50565b600081359050611b5681611b30565b92915050565b600080fd5b600080fd5b7f4e487b7100000000000000000000000000000000000000000000000000000000600052604160045260246000fd5b611b9e82611a5c565b810181811067ffffffffffffffff82111715611bbd57611bbc611b66565b5b80604052505050565b6000611bd061193e565b9050611bdc8282611b95565b919050565b600067ffffffffffffffff821115611bfc57611bfb611b66565b5b611c0582611a5c565b9050602081019050919050565b82818337600083830152505050565b6000611c34611c2f84611be1565b611bc6565b905082815260208101848484011115611c5057611c4f611b61565b5b611c5b848285611c12565b509392505050565b600082601f830112611c7857611c77611b5c565b5b8135611c88848260208601611c21565b91505092915050565b6000819050919050565b611ca481611c91565b8114611caf57600080fd5b50565b600081359050611cc181611c9b565b92915050565b600060ff82169050919050565b611cdd81611cc7565b8114611ce857600080fd5b50565b600081359050611cfa81611cd4565b92915050565b600080600080600080600080610100898b031215611d2157611d20611948565b5b6000611d2f8b828c01611b11565b9850506020611d408b828c01611b47565b9750506040611d518b828c01611b47565b9650506060611d628b828c01611b47565b955050608089013567ffffffffffffffff811115611d8357611d8261194d565b5b611d8f8b828c01611c63565b94505060a0611da08b828c01611cb2565b93505060c0611db18b828c01611cb2565b92505060e0611dc28b828c01611ceb565b9150509295985092959890939650565b600060208284031215611de857611de7611948565b5b6000611df684828501611cb2565b91505092915050565b611e0881611c91565b82525050565b6000602082019050611e236000830184611dff565b92915050565b611e3281611b26565b82525050565b6000602082019050611e4d6000830184611e29565b92915050565b60008060408385031215611e6a57611e69611948565b5b6000611e7885828601611cb2565b9250506020611e8985828601611b11565b9150509250929050565b600060208284031215611ea957611ea8611948565b5b6000611eb784828501611b11565b91505092915050565b600067ffffffffffffffff821115611edb57611eda611b66565b5b602082029050602081019050919050565b600080fd5b6000611f04611eff84611ec0565b611bc6565b90508083825260208201905060208402830185811115611f2757611f26611eec565b5b835b81811015611f505780611f3c8882611cb2565b845260208401935050602081019050611f29565b5050509392505050565b600082601f830112611f6f57611f6e611b5c565b5b8135611f7f848260208601611ef1565b91505092915050565b600060208284031215611f9e57611f9d611948565b5b600082013567ffffffffffffffff811115611fbc57611fbb61194d565b5b611fc884828501611f5a565b91505092915050565b611fda81611ae8565b82525050565b6000602082019050611ff56000830184611fd1565b92915050565b600080600080600060a0868803121561201757612016611948565b5b600061202588828901611b11565b955050602061203688828901611b47565b945050604061204788828901611cb2565b935050606061205888828901611cb2565b925050608061206988828901611ceb565b9150509295509295909350565b600060408201905061208b6000830185611fd1565b6120986020830184611e29565b9392505050565b600080604083850312156120b6576120b5611948565b5b60006120c485828601611b11565b92505060206120d585828601611b47565b9150509250929050565b600060c0820190506120f46000830189611dff565b6121016020830188611e29565b61210e6040830187611e29565b61211b6060830186611e29565b6121286080830185611fd1565b61213560a0830184611dff565b979650505050505050565b7f4d6574614b6565704c616d6264613a20536967206e6f74206d61746368000000600082015250565b6000612176601d83611a18565b915061218182612140565b602082019050919050565b600060208201905081810360008301526121a581612169565b9050919050565b600081519050919050565b600081905092915050565b60006121cd826121ac565b6121d781856121b7565b93506121e7818560208601611a29565b80840191505092915050565b60008160601b9050919050565b600061220b826121f3565b9050919050565b600061221d82612200565b9050919050565b61223561223082611ae8565b612212565b82525050565b600061224782856121c2565b91506122538284612224565b6014820191508190509392505050565b600061226f82846121c2565b915081905092915050565b7f43616e64696461746520646f6573206e6f742065786973742e00000000000000600082015250565b60006122b0601983611a18565b91506122bb8261227a565b602082019050919050565b600060208201905081810360008301526122df816122a3565b9050919050565b7f416363657373436f6e74726f6c3a2063616e206f6e6c792072656e6f756e636560008201527f20726f6c657320666f722073656c660000000000000000000000000000000000602082015250565b6000612342602f83611a18565b915061234d826122e6565b604082019050919050565b6000602082019050818103600083015261237181612335565b9050919050565b7f4d6574614b6565704c616d6264613a204e6f742061646d696e00000000000000600082015250565b60006123ae601983611a18565b91506123b982612378565b602082019050919050565b600060208201905081810360008301526123dd816123a1565b9050919050565b60006123f08284612224565b60148201915081905092915050565b7f4e487b7100000000000000000000000000000000000000000000000000000000600052603260045260246000fd5b7f4e487b7100000000000000000000000000000000000000000000000000000000600052601160045260246000fd5b600061246882611b26565b91507fffffffffffffffffffffffffffffffffffffffffffffffffffffffffffffffff82141561249b5761249a61242e565b5b600182019050919050565b60006060820190506124bb6000830186611dff565b6124c86020830185611e29565b6124d56040830184611fd1565b949350505050565b7f596f752063616e6e6f7420766f746520666f7220796f757273656c662e000000600082015250565b6000612513601d83611a18565b915061251e826124dd565b602082019050919050565b6000602082019050818103600083015261254281612506565b9050919050565b7f596f75206861766520616c726561647920766f7465642e000000000000000000600082015250565b600061257f601783611a18565b915061258a82612549565b602082019050919050565b600060208201905081810360008301526125ae81612572565b9050919050565b60006125c082611b26565b91506125cb83611b26565b9250827fffffffffffffffffffffffffffffffffffffffffffffffffffffffffffffffff03821115612600576125ff61242e565b5b828201905092915050565b7f4d6574614b6565704c616d6264613a20417574686f72697a6174696f6e20697360008201527f206e6f742079657420676976656e000000000000000000000000000000000000602082015250565b6000612667602e83611a18565b91506126728261260b565b604082019050919050565b600060208201905081810360008301526126968161265a565b9050919050565b7f4d6574614b6565704c616d6264613a20417574686f72697a6174696f6e20686160008201527f7320657870697265640000000000000000000000000000000000000000000000602082015250565b60006126f9602983611a18565b91506127048261269d565b604082019050919050565b60006020820190508181036000830152612728816126ec565b9050919050565b7f4d6574614b6565704c616d6264613a20494e56414c49445f5349474e45520000600082015250565b6000612765601e83611a18565b91506127708261272f565b602082019050919050565b6000602082019050818103600083015261279481612758565b9050919050565b6127a481611cc7565b82525050565b60006080820190506127bf6000830187611dff565b6127cc602083018661279b565b6127d96040830185611dff565b6127e66060830184611dff565b95945050505050565b600081905092915050565b7f416363657373436f6e74726f6c3a206163636f756e7420000000000000000000600082015250565b60006128306017836127ef565b915061283b826127fa565b601782019050919050565b600061285182611a0d565b61285b81856127ef565b935061286b818560208601611a29565b80840191505092915050565b7f206973206d697373696e6720726f6c6520000000000000000000000000000000600082015250565b60006128ad6011836127ef565b91506128b882612877565b601182019050919050565b60006128ce82612823565b91506128da8285612846565b91506128e5826128a0565b91506128f18284612846565b91508190509392505050565b7f4d6574614b6565704c616d6264613a204e6f6e63652055736564000000000000600082015250565b6000612933601a83611a18565b915061293e826128fd565b602082019050919050565b6000602082019050818103600083015261296281612926565b9050919050565b7f1901000000000000000000000000000000000000000000000000000000000000600082015250565b600061299f6002836127ef565b91506129aa82612969565b600282019050919050565b6000819050919050565b6129d06129cb82611c91565b6129b5565b82525050565b60006129e182612992565b91506129ed82856129bf565b6020820191506129fd82846129bf565b6020820191508190509392505050565b6000612a1882611b26565b9150612a2383611b26565b9250817fffffffffffffffffffffffffffffffffffffffffffffffffffffffffffffffff0483118215151615612a5c57612a5b61242e565b5b828202905092915050565b6000612a7282611b26565b91506000821415612a8657612a8561242e565b5b600182039050919050565b7f537472696e67733a20686578206c656e67746820696e73756666696369656e74600082015250565b6000612ac7602083611a18565b9150612ad282612a91565b602082019050919050565b60006020820190508181036000830152612af681612aba565b905091905056fe4d6574614b6565704c616d62646143616e63656c4e6f6e63652875696e74323536206e6f6e63652c616464726573732066726f6d294d6574614b6565704c616d6264615472616e73616374696f6e2875696e74323536206e6f6e63652c75696e743235362076616c696446726f6d2c75696e743235362076616c69645570746f2c616464726573732066726f6d2c62797465732066756e6374696f6e5369676e617475726529a26469706673582212201551cdb269ffd6e2ca2166965818de8a308e897e38f50cec9dcad905b33d123b64736f6c63430008090033454950373132446f6d61696e28737472696e67206e616d652c737472696e672076657273696f6e2c6164647265737320766572696679696e67436f6e74726163742c627974657333322073616c7429","opcodes":"PUSH1 0x80 PUSH1 0x40 MSTORE CALLVALUE DUP1 ISZERO PUSH3 0x11 JUMPI PUSH1 0x0 DUP1 REVERT JUMPDEST POP PUSH1 0x40 MLOAD PUSH3 0x3366 CODESIZE SUB DUP1 PUSH3 0x3366 DUP4 CODECOPY DUP2 DUP2 ADD PUSH1 0x40 MSTORE DUP2 ADD SWAP1 PUSH3 0x37 SWAP2 SWAP1 PUSH3 0x63F JUMP JUMPDEST DUP2 DUP2 DUP2 DUP2 PUSH3 0x4C DUP2 PUSH3 0xBC PUSH1 0x20 SHL PUSH1 0x20 SHR JUMP JUMPDEST POP PUSH3 0x7F PUSH32 0x7B1EEBEF105BD5BBC0D16725B5CF2934CB42BA2F36AD8EFEB6A7200F63F11980 DUP3 PUSH3 0x16B PUSH1 0x20 SHL PUSH1 0x20 SHR JUMP JUMPDEST PUSH3 0xB1 PUSH32 0x7B1EEBEF105BD5BBC0D16725B5CF2934CB42BA2F36AD8EFEB6A7200F63F11980 DUP1 PUSH3 0x181 PUSH1 0x20 SHL PUSH1 0x20 SHR JUMP JUMPDEST POP POP POP POP POP PUSH3 0x72E JUMP JUMPDEST PUSH1 0x40 MLOAD DUP1 PUSH1 0x80 ADD PUSH1 0x40 MSTORE DUP1 PUSH1 0x4F DUP2 MSTORE PUSH1 0x20 ADD PUSH3 0x3317 PUSH1 0x4F SWAP2 CODECOPY DUP1 MLOAD SWAP1 PUSH1 0x20 ADD KECCAK256 DUP2 DUP1 MLOAD SWAP1 PUSH1 0x20 ADD KECCAK256 PUSH1 0x40 MLOAD DUP1 PUSH1 0x40 ADD PUSH1 0x40 MSTORE DUP1 PUSH1 0x1 DUP2 MSTORE PUSH1 0x20 ADD PUSH32 0x3100000000000000000000000000000000000000000000000000000000000000 DUP2 MSTORE POP DUP1 MLOAD SWAP1 PUSH1 0x20 ADD KECCAK256 ADDRESS PUSH3 0x133 PUSH3 0x1E5 PUSH1 0x20 SHL PUSH1 0x20 SHR JUMP JUMPDEST PUSH1 0x0 SHL PUSH1 0x40 MLOAD PUSH1 0x20 ADD PUSH3 0x14C SWAP6 SWAP5 SWAP4 SWAP3 SWAP2 SWAP1 PUSH3 0x6D1 JUMP JUMPDEST PUSH1 0x40 MLOAD PUSH1 0x20 DUP2 DUP4 SUB SUB DUP2 MSTORE SWAP1 PUSH1 0x40 MSTORE DUP1 MLOAD SWAP1 PUSH1 0x20 ADD KECCAK256 PUSH1 0x0 DUP2 SWAP1 SSTORE POP POP JUMP JUMPDEST PUSH3 0x17D DUP3 DUP3 PUSH3 0x1F2 PUSH1 0x20 SHL PUSH1 0x20 SHR JUMP JUMPDEST POP POP JUMP JUMPDEST PUSH1 0x0 PUSH3 0x194 DUP4 PUSH3 0x2E3 PUSH1 0x20 SHL PUSH1 0x20 SHR JUMP JUMPDEST SWAP1 POP DUP2 PUSH1 0x1 PUSH1 0x0 DUP6 DUP2 MSTORE PUSH1 0x20 ADD SWAP1 DUP2 MSTORE PUSH1 0x20 ADD PUSH1 0x0 KECCAK256 PUSH1 0x1 ADD DUP2 SWAP1 SSTORE POP DUP2 DUP2 DUP5 PUSH32 0xBD79B86FFE0AB8E8776151514217CD7CACD52C909F66475C3AF44E129F0B00FF PUSH1 0x40 MLOAD PUSH1 0x40 MLOAD DUP1 SWAP2 SUB SWAP1 LOG4 POP POP POP JUMP JUMPDEST PUSH1 0x0 DUP1 CHAINID SWAP1 POP DUP1 SWAP2 POP POP SWAP1 JUMP JUMPDEST PUSH3 0x204 DUP3 DUP3 PUSH3 0x303 PUSH1 0x20 SHL PUSH1 0x20 SHR JUMP JUMPDEST PUSH3 0x2DF JUMPI PUSH1 0x1 DUP1 PUSH1 0x0 DUP5 DUP2 MSTORE PUSH1 0x20 ADD SWAP1 DUP2 MSTORE PUSH1 0x20 ADD PUSH1 0x0 KECCAK256 PUSH1 0x0 ADD PUSH1 0x0 DUP4 PUSH20 0xFFFFFFFFFFFFFFFFFFFFFFFFFFFFFFFFFFFFFFFF AND PUSH20 0xFFFFFFFFFFFFFFFFFFFFFFFFFFFFFFFFFFFFFFFF AND DUP2 MSTORE PUSH1 0x20 ADD SWAP1 DUP2 MSTORE PUSH1 0x20 ADD PUSH1 0x0 KECCAK256 PUSH1 0x0 PUSH2 0x100 EXP DUP2 SLOAD DUP2 PUSH1 0xFF MUL NOT AND SWAP1 DUP4 ISZERO ISZERO MUL OR SWAP1 SSTORE POP PUSH3 0x284 PUSH3 0x36E PUSH1 0x20 SHL PUSH1 0x20 SHR JUMP JUMPDEST PUSH20 0xFFFFFFFFFFFFFFFFFFFFFFFFFFFFFFFFFFFFFFFF AND DUP2 PUSH20 0xFFFFFFFFFFFFFFFFFFFFFFFFFFFFFFFFFFFFFFFF AND DUP4 PUSH32 0x2F8788117E7EFF1D82E926EC794901D17C78024A50270940304540A733656F0D PUSH1 0x40 MLOAD PUSH1 0x40 MLOAD DUP1 SWAP2 SUB SWAP1 LOG4 JUMPDEST POP POP JUMP JUMPDEST PUSH1 0x0 PUSH1 0x1 PUSH1 0x0 DUP4 DUP2 MSTORE PUSH1 0x20 ADD SWAP1 DUP2 MSTORE PUSH1 0x20 ADD PUSH1 0x0 KECCAK256 PUSH1 0x1 ADD SLOAD SWAP1 POP SWAP2 SWAP1 POP JUMP JUMPDEST PUSH1 0x0 PUSH1 0x1 PUSH1 0x0 DUP5 DUP2 MSTORE PUSH1 0x20 ADD SWAP1 DUP2 MSTORE PUSH1 0x20 ADD PUSH1 0x0 KECCAK256 PUSH1 0x0 ADD PUSH1 0x0 DUP4 PUSH20 0xFFFFFFFFFFFFFFFFFFFFFFFFFFFFFFFFFFFFFFFF AND PUSH20 0xFFFFFFFFFFFFFFFFFFFFFFFFFFFFFFFFFFFFFFFF AND DUP2 MSTORE PUSH1 0x20 ADD SWAP1 DUP2 MSTORE PUSH1 0x20 ADD PUSH1 0x0 KECCAK256 PUSH1 0x0 SWAP1 SLOAD SWAP1 PUSH2 0x100 EXP SWAP1 DIV PUSH1 0xFF AND SWAP1 POP SWAP3 SWAP2 POP POP JUMP JUMPDEST PUSH1 0x0 PUSH3 0x385 PUSH3 0x38A PUSH1 0x20 SHL PUSH3 0x110F OR PUSH1 0x20 SHR JUMP JUMPDEST SWAP1 POP SWAP1 JUMP JUMPDEST PUSH1 0x0 ADDRESS PUSH20 0xFFFFFFFFFFFFFFFFFFFFFFFFFFFFFFFFFFFFFFFF AND CALLER PUSH20 0xFFFFFFFFFFFFFFFFFFFFFFFFFFFFFFFFFFFFFFFF AND EQ ISZERO PUSH3 0x436 JUMPI PUSH1 0x0 DUP1 CALLDATASIZE DUP1 DUP1 PUSH1 0x1F ADD PUSH1 0x20 DUP1 SWAP2 DIV MUL PUSH1 0x20 ADD PUSH1 0x40 MLOAD SWAP1 DUP2 ADD PUSH1 0x40 MSTORE DUP1 SWAP4 SWAP3 SWAP2 SWAP1 DUP2 DUP2 MSTORE PUSH1 0x20 ADD DUP4 DUP4 DUP1 DUP3 DUP5 CALLDATACOPY PUSH1 0x0 DUP2 DUP5 ADD MSTORE PUSH1 0x1F NOT PUSH1 0x1F DUP3 ADD AND SWAP1 POP DUP1 DUP4 ADD SWAP3 POP POP POP POP POP POP POP SWAP1 POP PUSH1 0x0 DUP1 CALLDATASIZE SWAP1 POP SWAP1 POP PUSH20 0xFFFFFFFFFFFFFFFFFFFFFFFFFFFFFFFFFFFFFFFF DUP2 DUP4 ADD MLOAD AND SWAP3 POP POP POP PUSH3 0x43A JUMP JUMPDEST CALLER SWAP1 POP JUMPDEST SWAP1 JUMP JUMPDEST PUSH1 0x0 PUSH1 0x40 MLOAD SWAP1 POP SWAP1 JUMP JUMPDEST PUSH1 0x0 DUP1 REVERT JUMPDEST PUSH1 0x0 DUP1 REVERT JUMPDEST PUSH1 0x0 PUSH20 0xFFFFFFFFFFFFFFFFFFFFFFFFFFFFFFFFFFFFFFFF DUP3 AND SWAP1 POP SWAP2 SWAP1 POP JUMP JUMPDEST PUSH1 0x0 PUSH3 0x47E DUP3 PUSH3 0x451 JUMP JUMPDEST SWAP1 POP SWAP2 SWAP1 POP JUMP JUMPDEST PUSH3 0x490 DUP2 PUSH3 0x471 JUMP JUMPDEST DUP2 EQ PUSH3 0x49C JUMPI PUSH1 0x0 DUP1 REVERT JUMPDEST POP JUMP JUMPDEST PUSH1 0x0 DUP2 MLOAD SWAP1 POP PUSH3 0x4B0 DUP2 PUSH3 0x485 JUMP JUMPDEST SWAP3 SWAP2 POP POP JUMP JUMPDEST PUSH1 0x0 DUP1 REVERT JUMPDEST PUSH1 0x0 DUP1 REVERT JUMPDEST PUSH1 0x0 PUSH1 0x1F NOT PUSH1 0x1F DUP4 ADD AND SWAP1 POP SWAP2 SWAP1 POP JUMP JUMPDEST PUSH32 0x4E487B7100000000000000000000000000000000000000000000000000000000 PUSH1 0x0 MSTORE PUSH1 0x41 PUSH1 0x4 MSTORE PUSH1 0x24 PUSH1 0x0 REVERT JUMPDEST PUSH3 0x50B DUP3 PUSH3 0x4C0 JUMP JUMPDEST DUP2 ADD DUP2 DUP2 LT PUSH8 0xFFFFFFFFFFFFFFFF DUP3 GT OR ISZERO PUSH3 0x52D JUMPI PUSH3 0x52C PUSH3 0x4D1 JUMP JUMPDEST JUMPDEST DUP1 PUSH1 0x40 MSTORE POP POP POP JUMP JUMPDEST PUSH1 0x0 PUSH3 0x542 PUSH3 0x43D JUMP JUMPDEST SWAP1 POP PUSH3 0x550 DUP3 DUP3 PUSH3 0x500 JUMP JUMPDEST SWAP2 SWAP1 POP JUMP JUMPDEST PUSH1 0x0 PUSH8 0xFFFFFFFFFFFFFFFF DUP3 GT ISZERO PUSH3 0x573 JUMPI PUSH3 0x572 PUSH3 0x4D1 JUMP JUMPDEST JUMPDEST PUSH3 0x57E DUP3 PUSH3 0x4C0 JUMP JUMPDEST SWAP1 POP PUSH1 0x20 DUP2 ADD SWAP1 POP SWAP2 SWAP1 POP JUMP JUMPDEST PUSH1 0x0 JUMPDEST DUP4 DUP2 LT ISZERO PUSH3 0x5AB JUMPI DUP1 DUP3 ADD MLOAD DUP2 DUP5 ADD MSTORE PUSH1 0x20 DUP2 ADD SWAP1 POP PUSH3 0x58E JUMP JUMPDEST DUP4 DUP2 GT ISZERO PUSH3 0x5BB JUMPI PUSH1 0x0 DUP5 DUP5 ADD MSTORE JUMPDEST POP POP POP POP JUMP JUMPDEST PUSH1 0x0 PUSH3 0x5D8 PUSH3 0x5D2 DUP5 PUSH3 0x555 JUMP JUMPDEST PUSH3 0x536 JUMP JUMPDEST SWAP1 POP DUP3 DUP2 MSTORE PUSH1 0x20 DUP2 ADD DUP5 DUP5 DUP5 ADD GT ISZERO PUSH3 0x5F7 JUMPI PUSH3 0x5F6 PUSH3 0x4BB JUMP JUMPDEST JUMPDEST PUSH3 0x604 DUP5 DUP3 DUP6 PUSH3 0x58B JUMP JUMPDEST POP SWAP4 SWAP3 POP POP POP JUMP JUMPDEST PUSH1 0x0 DUP3 PUSH1 0x1F DUP4 ADD SLT PUSH3 0x624 JUMPI PUSH3 0x623 PUSH3 0x4B6 JUMP JUMPDEST JUMPDEST DUP2 MLOAD PUSH3 0x636 DUP5 DUP3 PUSH1 0x20 DUP7 ADD PUSH3 0x5C1 JUMP JUMPDEST SWAP2 POP POP SWAP3 SWAP2 POP POP JUMP JUMPDEST PUSH1 0x0 DUP1 PUSH1 0x40 DUP4 DUP6 SUB SLT ISZERO PUSH3 0x659 JUMPI PUSH3 0x658 PUSH3 0x447 JUMP JUMPDEST JUMPDEST PUSH1 0x0 PUSH3 0x669 DUP6 DUP3 DUP7 ADD PUSH3 0x49F JUMP JUMPDEST SWAP3 POP POP PUSH1 0x20 DUP4 ADD MLOAD PUSH8 0xFFFFFFFFFFFFFFFF DUP2 GT ISZERO PUSH3 0x68D JUMPI PUSH3 0x68C PUSH3 0x44C JUMP JUMPDEST JUMPDEST PUSH3 0x69B DUP6 DUP3 DUP7 ADD PUSH3 0x60C JUMP JUMPDEST SWAP2 POP POP SWAP3 POP SWAP3 SWAP1 POP JUMP JUMPDEST PUSH1 0x0 DUP2 SWAP1 POP SWAP2 SWAP1 POP JUMP JUMPDEST PUSH3 0x6BA DUP2 PUSH3 0x6A5 JUMP JUMPDEST DUP3 MSTORE POP POP JUMP JUMPDEST PUSH3 0x6CB DUP2 PUSH3 0x471 JUMP JUMPDEST DUP3 MSTORE POP POP JUMP JUMPDEST PUSH1 0x0 PUSH1 0xA0 DUP3 ADD SWAP1 POP PUSH3 0x6E8 PUSH1 0x0 DUP4 ADD DUP9 PUSH3 0x6AF JUMP JUMPDEST PUSH3 0x6F7 PUSH1 0x20 DUP4 ADD DUP8 PUSH3 0x6AF JUMP JUMPDEST PUSH3 0x706 PUSH1 0x40 DUP4 ADD DUP7 PUSH3 0x6AF JUMP JUMPDEST PUSH3 0x715 PUSH1 0x60 DUP4 ADD DUP6 PUSH3 0x6C0 JUMP JUMPDEST PUSH3 0x724 PUSH1 0x80 DUP4 ADD DUP5 PUSH3 0x6AF JUMP JUMPDEST SWAP7 SWAP6 POP POP POP POP POP POP JUMP JUMPDEST PUSH2 0x2BD9 DUP1 PUSH3 0x73E PUSH1 0x0 CODECOPY PUSH1 0x0 RETURN INVALID PUSH1 0x80 PUSH1 0x40 MSTORE PUSH1 0x4 CALLDATASIZE LT PUSH2 0x109 JUMPI PUSH1 0x0 CALLDATALOAD PUSH1 0xE0 SHR DUP1 PUSH4 0x91D14854 GT PUSH2 0x95 JUMPI DUP1 PUSH4 0xCC9AB267 GT PUSH2 0x64 JUMPI DUP1 PUSH4 0xCC9AB267 EQ PUSH2 0x394 JUMPI DUP1 PUSH4 0xD547741F EQ PUSH2 0x3BD JUMPI DUP1 PUSH4 0xDFB6419F EQ PUSH2 0x3E6 JUMPI DUP1 PUSH4 0xEBE9B0F2 EQ PUSH2 0x424 JUMPI DUP1 PUSH4 0xFCA88447 EQ PUSH2 0x461 JUMPI PUSH2 0x109 JUMP JUMPDEST DUP1 PUSH4 0x91D14854 EQ PUSH2 0x2D8 JUMPI DUP1 PUSH4 0xA217FDDF EQ PUSH2 0x315 JUMPI DUP1 PUSH4 0xC0DCAEEB EQ PUSH2 0x340 JUMPI DUP1 PUSH4 0xCB73AC56 EQ PUSH2 0x369 JUMPI PUSH2 0x109 JUMP JUMPDEST DUP1 PUSH4 0x2F265CF7 GT PUSH2 0xDC JUMPI DUP1 PUSH4 0x2F265CF7 EQ PUSH2 0x1E3 JUMPI DUP1 PUSH4 0x2F2FF15D EQ PUSH2 0x220 JUMPI DUP1 PUSH4 0x36568ABE EQ PUSH2 0x249 JUMPI DUP1 PUSH4 0x84AA3B93 EQ PUSH2 0x272 JUMPI DUP1 PUSH4 0x9149D9E1 EQ PUSH2 0x29B JUMPI PUSH2 0x109 JUMP JUMPDEST DUP1 PUSH4 0x1FFC9A7 EQ PUSH2 0x10E JUMPI DUP1 PUSH4 0xF7E5970 EQ PUSH2 0x14B JUMPI DUP1 PUSH4 0x243ED11D EQ PUSH2 0x176 JUMPI DUP1 PUSH4 0x248A9CA3 EQ PUSH2 0x1A6 JUMPI JUMPDEST PUSH1 0x0 DUP1 REVERT JUMPDEST CALLVALUE DUP1 ISZERO PUSH2 0x11A JUMPI PUSH1 0x0 DUP1 REVERT JUMPDEST POP PUSH2 0x135 PUSH1 0x4 DUP1 CALLDATASIZE SUB DUP2 ADD SWAP1 PUSH2 0x130 SWAP2 SWAP1 PUSH2 0x19AA JUMP JUMPDEST PUSH2 0x48C JUMP JUMPDEST PUSH1 0x40 MLOAD PUSH2 0x142 SWAP2 SWAP1 PUSH2 0x19F2 JUMP JUMPDEST PUSH1 0x40 MLOAD DUP1 SWAP2 SUB SWAP1 RETURN JUMPDEST CALLVALUE DUP1 ISZERO PUSH2 0x157 JUMPI PUSH1 0x0 DUP1 REVERT JUMPDEST POP PUSH2 0x160 PUSH2 0x506 JUMP JUMPDEST PUSH1 0x40 MLOAD PUSH2 0x16D SWAP2 SWAP1 PUSH2 0x1AA6 JUMP JUMPDEST PUSH1 0x40 MLOAD DUP1 SWAP2 SUB SWAP1 RETURN JUMPDEST PUSH2 0x190 PUSH1 0x4 DUP1 CALLDATASIZE SUB DUP2 ADD SWAP1 PUSH2 0x18B SWAP2 SWAP1 PUSH2 0x1D00 JUMP JUMPDEST PUSH2 0x53F JUMP JUMPDEST PUSH1 0x40 MLOAD PUSH2 0x19D SWAP2 SWAP1 PUSH2 0x19F2 JUMP JUMPDEST PUSH1 0x40 MLOAD DUP1 SWAP2 SUB SWAP1 RETURN JUMPDEST CALLVALUE DUP1 ISZERO PUSH2 0x1B2 JUMPI PUSH1 0x0 DUP1 REVERT JUMPDEST POP PUSH2 0x1CD PUSH1 0x4 DUP1 CALLDATASIZE SUB DUP2 ADD SWAP1 PUSH2 0x1C8 SWAP2 SWAP1 PUSH2 0x1DD2 JUMP JUMPDEST PUSH2 0x761 JUMP JUMPDEST PUSH1 0x40 MLOAD PUSH2 0x1DA SWAP2 SWAP1 PUSH2 0x1E0E JUMP JUMPDEST PUSH1 0x40 MLOAD DUP1 SWAP2 SUB SWAP1 RETURN JUMPDEST CALLVALUE DUP1 ISZERO PUSH2 0x1EF JUMPI PUSH1 0x0 DUP1 REVERT JUMPDEST POP PUSH2 0x20A PUSH1 0x4 DUP1 CALLDATASIZE SUB DUP2 ADD SWAP1 PUSH2 0x205 SWAP2 SWAP1 PUSH2 0x1DD2 JUMP JUMPDEST PUSH2 0x781 JUMP JUMPDEST PUSH1 0x40 MLOAD PUSH2 0x217 SWAP2 SWAP1 PUSH2 0x1E38 JUMP JUMPDEST PUSH1 0x40 MLOAD DUP1 SWAP2 SUB SWAP1 RETURN JUMPDEST CALLVALUE DUP1 ISZERO PUSH2 0x22C JUMPI PUSH1 0x0 DUP1 REVERT JUMPDEST POP PUSH2 0x247 PUSH1 0x4 DUP1 CALLDATASIZE SUB DUP2 ADD SWAP1 PUSH2 0x242 SWAP2 SWAP1 PUSH2 0x1E53 JUMP JUMPDEST PUSH2 0x846 JUMP JUMPDEST STOP JUMPDEST CALLVALUE DUP1 ISZERO PUSH2 0x255 JUMPI PUSH1 0x0 DUP1 REVERT JUMPDEST POP PUSH2 0x270 PUSH1 0x4 DUP1 CALLDATASIZE SUB DUP2 ADD SWAP1 PUSH2 0x26B SWAP2 SWAP1 PUSH2 0x1E53 JUMP JUMPDEST PUSH2 0x86F JUMP JUMPDEST STOP JUMPDEST CALLVALUE DUP1 ISZERO PUSH2 0x27E JUMPI PUSH1 0x0 DUP1 REVERT JUMPDEST POP PUSH2 0x299 PUSH1 0x4 DUP1 CALLDATASIZE SUB DUP2 ADD SWAP1 PUSH2 0x294 SWAP2 SWAP1 PUSH2 0x1E93 JUMP JUMPDEST PUSH2 0x8F2 JUMP JUMPDEST STOP JUMPDEST CALLVALUE DUP1 ISZERO PUSH2 0x2A7 JUMPI PUSH1 0x0 DUP1 REVERT JUMPDEST POP PUSH2 0x2C2 PUSH1 0x4 DUP1 CALLDATASIZE SUB DUP2 ADD SWAP1 PUSH2 0x2BD SWAP2 SWAP1 PUSH2 0x1F88 JUMP JUMPDEST PUSH2 0x9F0 JUMP JUMPDEST PUSH1 0x40 MLOAD PUSH2 0x2CF SWAP2 SWAP1 PUSH2 0x1FE0 JUMP JUMPDEST PUSH1 0x40 MLOAD DUP1 SWAP2 SUB SWAP1 RETURN JUMPDEST CALLVALUE DUP1 ISZERO PUSH2 0x2E4 JUMPI PUSH1 0x0 DUP1 REVERT JUMPDEST POP PUSH2 0x2FF PUSH1 0x4 DUP1 CALLDATASIZE SUB DUP2 ADD SWAP1 PUSH2 0x2FA SWAP2 SWAP1 PUSH2 0x1E53 JUMP JUMPDEST PUSH2 0xB51 JUMP JUMPDEST PUSH1 0x40 MLOAD PUSH2 0x30C SWAP2 SWAP1 PUSH2 0x19F2 JUMP JUMPDEST PUSH1 0x40 MLOAD DUP1 SWAP2 SUB SWAP1 RETURN JUMPDEST CALLVALUE DUP1 ISZERO PUSH2 0x321 JUMPI PUSH1 0x0 DUP1 REVERT JUMPDEST POP PUSH2 0x32A PUSH2 0xBBC JUMP JUMPDEST PUSH1 0x40 MLOAD PUSH2 0x337 SWAP2 SWAP1 PUSH2 0x1E0E JUMP JUMPDEST PUSH1 0x40 MLOAD DUP1 SWAP2 SUB SWAP1 RETURN JUMPDEST CALLVALUE DUP1 ISZERO PUSH2 0x34C JUMPI PUSH1 0x0 DUP1 REVERT JUMPDEST POP PUSH2 0x367 PUSH1 0x4 DUP1 CALLDATASIZE SUB DUP2 ADD SWAP1 PUSH2 0x362 SWAP2 SWAP1 PUSH2 0x1FFB JUMP JUMPDEST PUSH2 0xBC3 JUMP JUMPDEST STOP JUMPDEST CALLVALUE DUP1 ISZERO PUSH2 0x375 JUMPI PUSH1 0x0 DUP1 REVERT JUMPDEST POP PUSH2 0x37E PUSH2 0xCD8 JUMP JUMPDEST PUSH1 0x40 MLOAD PUSH2 0x38B SWAP2 SWAP1 PUSH2 0x1E0E JUMP JUMPDEST PUSH1 0x40 MLOAD DUP1 SWAP2 SUB SWAP1 RETURN JUMPDEST CALLVALUE DUP1 ISZERO PUSH2 0x3A0 JUMPI PUSH1 0x0 DUP1 REVERT JUMPDEST POP PUSH2 0x3BB PUSH1 0x4 DUP1 CALLDATASIZE SUB DUP2 ADD SWAP1 PUSH2 0x3B6 SWAP2 SWAP1 PUSH2 0x1DD2 JUMP JUMPDEST PUSH2 0xCDE JUMP JUMPDEST STOP JUMPDEST CALLVALUE DUP1 ISZERO PUSH2 0x3C9 JUMPI PUSH1 0x0 DUP1 REVERT JUMPDEST POP PUSH2 0x3E4 PUSH1 0x4 DUP1 CALLDATASIZE SUB DUP2 ADD SWAP1 PUSH2 0x3DF SWAP2 SWAP1 PUSH2 0x1E53 JUMP JUMPDEST PUSH2 0xF5A JUMP JUMPDEST STOP JUMPDEST CALLVALUE DUP1 ISZERO PUSH2 0x3F2 JUMPI PUSH1 0x0 DUP1 REVERT JUMPDEST POP PUSH2 0x40D PUSH1 0x4 DUP1 CALLDATASIZE SUB DUP2 ADD SWAP1 PUSH2 0x408 SWAP2 SWAP1 PUSH2 0x1DD2 JUMP JUMPDEST PUSH2 0xF83 JUMP JUMPDEST PUSH1 0x40 MLOAD PUSH2 0x41B SWAP3 SWAP2 SWAP1 PUSH2 0x2076 JUMP JUMPDEST PUSH1 0x40 MLOAD DUP1 SWAP2 SUB SWAP1 RETURN JUMPDEST CALLVALUE DUP1 ISZERO PUSH2 0x430 JUMPI PUSH1 0x0 DUP1 REVERT JUMPDEST POP PUSH2 0x44B PUSH1 0x4 DUP1 CALLDATASIZE SUB DUP2 ADD SWAP1 PUSH2 0x446 SWAP2 SWAP1 PUSH2 0x209F JUMP JUMPDEST PUSH2 0x1083 JUMP JUMPDEST PUSH1 0x40 MLOAD PUSH2 0x458 SWAP2 SWAP1 PUSH2 0x19F2 JUMP JUMPDEST PUSH1 0x40 MLOAD DUP1 SWAP2 SUB SWAP1 RETURN JUMPDEST CALLVALUE DUP1 ISZERO PUSH2 0x46D JUMPI PUSH1 0x0 DUP1 REVERT JUMPDEST POP PUSH2 0x476 PUSH2 0x10EB JUMP JUMPDEST PUSH1 0x40 MLOAD PUSH2 0x483 SWAP2 SWAP1 PUSH2 0x1E0E JUMP JUMPDEST PUSH1 0x40 MLOAD DUP1 SWAP2 SUB SWAP1 RETURN JUMPDEST PUSH1 0x0 PUSH32 0x7965DB0B00000000000000000000000000000000000000000000000000000000 PUSH28 0xFFFFFFFFFFFFFFFFFFFFFFFFFFFFFFFFFFFFFFFFFFFFFFFFFFFFFFFF NOT AND DUP3 PUSH28 0xFFFFFFFFFFFFFFFFFFFFFFFFFFFFFFFFFFFFFFFFFFFFFFFFFFFFFFFF NOT AND EQ DUP1 PUSH2 0x4FF JUMPI POP PUSH2 0x4FE DUP3 PUSH2 0x11C0 JUMP JUMPDEST JUMPDEST SWAP1 POP SWAP2 SWAP1 POP JUMP JUMPDEST PUSH1 0x40 MLOAD DUP1 PUSH1 0x40 ADD PUSH1 0x40 MSTORE DUP1 PUSH1 0x1 DUP2 MSTORE PUSH1 0x20 ADD PUSH32 0x3100000000000000000000000000000000000000000000000000000000000000 DUP2 MSTORE POP DUP2 JUMP JUMPDEST PUSH1 0x0 PUSH2 0x54D DUP10 DUP10 DUP10 DUP10 PUSH2 0x122A JUMP JUMPDEST PUSH1 0x0 PUSH1 0x40 MLOAD DUP1 PUSH1 0xA0 ADD PUSH1 0x40 MSTORE DUP1 DUP11 DUP2 MSTORE PUSH1 0x20 ADD DUP10 DUP2 MSTORE PUSH1 0x20 ADD DUP9 DUP2 MSTORE PUSH1 0x20 ADD DUP12 PUSH20 0xFFFFFFFFFFFFFFFFFFFFFFFFFFFFFFFFFFFFFFFF AND DUP2 MSTORE PUSH1 0x20 ADD DUP8 DUP2 MSTORE POP SWAP1 POP PUSH1 0x0 PUSH1 0x40 MLOAD DUP1 PUSH1 0xA0 ADD PUSH1 0x40 MSTORE DUP1 PUSH1 0x71 DUP2 MSTORE PUSH1 0x20 ADD PUSH2 0x2B33 PUSH1 0x71 SWAP2 CODECOPY DUP1 MLOAD SWAP1 PUSH1 0x20 ADD KECCAK256 DUP3 PUSH1 0x0 ADD MLOAD DUP4 PUSH1 0x20 ADD MLOAD DUP5 PUSH1 0x40 ADD MLOAD DUP6 PUSH1 0x60 ADD MLOAD DUP7 PUSH1 0x80 ADD MLOAD DUP1 MLOAD SWAP1 PUSH1 0x20 ADD KECCAK256 PUSH1 0x40 MLOAD PUSH1 0x20 ADD PUSH2 0x5E5 SWAP7 SWAP6 SWAP5 SWAP4 SWAP3 SWAP2 SWAP1 PUSH2 0x20DF JUMP JUMPDEST PUSH1 0x40 MLOAD PUSH1 0x20 DUP2 DUP4 SUB SUB DUP2 MSTORE SWAP1 PUSH1 0x40 MSTORE DUP1 MLOAD SWAP1 PUSH1 0x20 ADD KECCAK256 SWAP1 POP PUSH2 0x60A DUP12 DUP3 DUP9 DUP9 DUP9 PUSH2 0x12BE JUMP JUMPDEST PUSH2 0x649 JUMPI PUSH1 0x40 MLOAD PUSH32 0x8C379A000000000000000000000000000000000000000000000000000000000 DUP2 MSTORE PUSH1 0x4 ADD PUSH2 0x640 SWAP1 PUSH2 0x218C JUMP JUMPDEST PUSH1 0x40 MLOAD DUP1 SWAP2 SUB SWAP1 REVERT JUMPDEST PUSH1 0x1 PUSH1 0x2 PUSH1 0x0 DUP14 PUSH20 0xFFFFFFFFFFFFFFFFFFFFFFFFFFFFFFFFFFFFFFFF AND PUSH20 0xFFFFFFFFFFFFFFFFFFFFFFFFFFFFFFFFFFFFFFFF AND DUP2 MSTORE PUSH1 0x20 ADD SWAP1 DUP2 MSTORE PUSH1 0x20 ADD PUSH1 0x0 KECCAK256 PUSH1 0x0 DUP13 DUP2 MSTORE PUSH1 0x20 ADD SWAP1 DUP2 MSTORE PUSH1 0x20 ADD PUSH1 0x0 KECCAK256 PUSH1 0x0 PUSH2 0x100 EXP DUP2 SLOAD DUP2 PUSH1 0xFF MUL NOT AND SWAP1 DUP4 ISZERO ISZERO MUL OR SWAP1 SSTORE POP PUSH1 0x0 DUP1 ADDRESS PUSH20 0xFFFFFFFFFFFFFFFFFFFFFFFFFFFFFFFFFFFFFFFF AND DUP10 DUP15 PUSH1 0x40 MLOAD PUSH1 0x20 ADD PUSH2 0x6DF SWAP3 SWAP2 SWAP1 PUSH2 0x223B JUMP JUMPDEST PUSH1 0x40 MLOAD PUSH1 0x20 DUP2 DUP4 SUB SUB DUP2 MSTORE SWAP1 PUSH1 0x40 MSTORE PUSH1 0x40 MLOAD PUSH2 0x6FB SWAP2 SWAP1 PUSH2 0x2263 JUMP JUMPDEST PUSH1 0x0 PUSH1 0x40 MLOAD DUP1 DUP4 SUB DUP2 PUSH1 0x0 DUP7 GAS CALL SWAP2 POP POP RETURNDATASIZE DUP1 PUSH1 0x0 DUP2 EQ PUSH2 0x738 JUMPI PUSH1 0x40 MLOAD SWAP2 POP PUSH1 0x1F NOT PUSH1 0x3F RETURNDATASIZE ADD AND DUP3 ADD PUSH1 0x40 MSTORE RETURNDATASIZE DUP3 MSTORE RETURNDATASIZE PUSH1 0x0 PUSH1 0x20 DUP5 ADD RETURNDATACOPY PUSH2 0x73D JUMP JUMPDEST PUSH1 0x60 SWAP2 POP JUMPDEST POP SWAP2 POP SWAP2 POP DUP2 PUSH2 0x74E JUMPI DUP1 PUSH1 0x20 DUP3 ADD REVERT JUMPDEST DUP2 SWAP5 POP POP POP POP POP SWAP9 SWAP8 POP POP POP POP POP POP POP POP JUMP JUMPDEST PUSH1 0x0 PUSH1 0x1 PUSH1 0x0 DUP4 DUP2 MSTORE PUSH1 0x20 ADD SWAP1 DUP2 MSTORE PUSH1 0x20 ADD PUSH1 0x0 KECCAK256 PUSH1 0x1 ADD SLOAD SWAP1 POP SWAP2 SWAP1 POP JUMP JUMPDEST PUSH1 0x0 DUP1 PUSH20 0xFFFFFFFFFFFFFFFFFFFFFFFFFFFFFFFFFFFFFFFF AND PUSH1 0x3 PUSH1 0x0 DUP5 DUP2 MSTORE PUSH1 0x20 ADD SWAP1 DUP2 MSTORE PUSH1 0x20 ADD PUSH1 0x0 KECCAK256 PUSH1 0x0 ADD PUSH1 0x0 SWAP1 SLOAD SWAP1 PUSH2 0x100 EXP SWAP1 DIV PUSH20 0xFFFFFFFFFFFFFFFFFFFFFFFFFFFFFFFFFFFFFFFF AND PUSH20 0xFFFFFFFFFFFFFFFFFFFFFFFFFFFFFFFFFFFFFFFF AND EQ ISZERO PUSH2 0x828 JUMPI PUSH1 0x40 MLOAD PUSH32 0x8C379A000000000000000000000000000000000000000000000000000000000 DUP2 MSTORE PUSH1 0x4 ADD PUSH2 0x81F SWAP1 PUSH2 0x22C6 JUMP JUMPDEST PUSH1 0x40 MLOAD DUP1 SWAP2 SUB SWAP1 REVERT JUMPDEST PUSH1 0x3 PUSH1 0x0 DUP4 DUP2 MSTORE PUSH1 0x20 ADD SWAP1 DUP2 MSTORE PUSH1 0x20 ADD PUSH1 0x0 KECCAK256 PUSH1 0x1 ADD SLOAD SWAP1 POP SWAP2 SWAP1 POP JUMP JUMPDEST PUSH2 0x84F DUP3 PUSH2 0x761 JUMP JUMPDEST PUSH2 0x860 DUP2 PUSH2 0x85B PUSH2 0x13BF JUMP JUMPDEST PUSH2 0x13CE JUMP JUMPDEST PUSH2 0x86A DUP4 DUP4 PUSH2 0x146B JUMP JUMPDEST POP POP POP JUMP JUMPDEST PUSH2 0x877 PUSH2 0x13BF JUMP JUMPDEST PUSH20 0xFFFFFFFFFFFFFFFFFFFFFFFFFFFFFFFFFFFFFFFF AND DUP2 PUSH20 0xFFFFFFFFFFFFFFFFFFFFFFFFFFFFFFFFFFFFFFFF AND EQ PUSH2 0x8E4 JUMPI PUSH1 0x40 MLOAD PUSH32 0x8C379A000000000000000000000000000000000000000000000000000000000 DUP2 MSTORE PUSH1 0x4 ADD PUSH2 0x8DB SWAP1 PUSH2 0x2358 JUMP JUMPDEST PUSH1 0x40 MLOAD DUP1 SWAP2 SUB SWAP1 REVERT JUMPDEST PUSH2 0x8EE DUP3 DUP3 PUSH2 0x154B JUMP JUMPDEST POP POP JUMP JUMPDEST PUSH2 0x923 PUSH32 0x7B1EEBEF105BD5BBC0D16725B5CF2934CB42BA2F36AD8EFEB6A7200F63F11980 PUSH2 0x91E PUSH2 0x110F JUMP JUMPDEST PUSH2 0xB51 JUMP JUMPDEST PUSH2 0x962 JUMPI PUSH1 0x40 MLOAD PUSH32 0x8C379A000000000000000000000000000000000000000000000000000000000 DUP2 MSTORE PUSH1 0x4 ADD PUSH2 0x959 SWAP1 PUSH2 0x23C4 JUMP JUMPDEST PUSH1 0x40 MLOAD DUP1 SWAP2 SUB SWAP1 REVERT JUMPDEST PUSH1 0x0 PUSH1 0x3 PUSH1 0x0 DUP4 PUSH1 0x40 MLOAD PUSH1 0x20 ADD PUSH2 0x979 SWAP2 SWAP1 PUSH2 0x23E4 JUMP JUMPDEST PUSH1 0x40 MLOAD PUSH1 0x20 DUP2 DUP4 SUB SUB DUP2 MSTORE SWAP1 PUSH1 0x40 MSTORE DUP1 MLOAD SWAP1 PUSH1 0x20 ADD KECCAK256 DUP2 MSTORE PUSH1 0x20 ADD SWAP1 DUP2 MSTORE PUSH1 0x20 ADD PUSH1 0x0 KECCAK256 SWAP1 POP DUP2 DUP2 PUSH1 0x0 ADD PUSH1 0x0 PUSH2 0x100 EXP DUP2 SLOAD DUP2 PUSH20 0xFFFFFFFFFFFFFFFFFFFFFFFFFFFFFFFFFFFFFFFF MUL NOT AND SWAP1 DUP4 PUSH20 0xFFFFFFFFFFFFFFFFFFFFFFFFFFFFFFFFFFFFFFFF AND MUL OR SWAP1 SSTORE POP PUSH1 0x0 DUP2 PUSH1 0x1 ADD DUP2 SWAP1 SSTORE POP POP POP JUMP JUMPDEST PUSH1 0x0 PUSH2 0xA23 PUSH32 0x7B1EEBEF105BD5BBC0D16725B5CF2934CB42BA2F36AD8EFEB6A7200F63F11980 PUSH2 0xA1E PUSH2 0x110F JUMP JUMPDEST PUSH2 0xB51 JUMP JUMPDEST PUSH2 0xA62 JUMPI PUSH1 0x40 MLOAD PUSH32 0x8C379A000000000000000000000000000000000000000000000000000000000 DUP2 MSTORE PUSH1 0x4 ADD PUSH2 0xA59 SWAP1 PUSH2 0x23C4 JUMP JUMPDEST PUSH1 0x40 MLOAD DUP1 SWAP2 SUB SWAP1 REVERT JUMPDEST PUSH1 0x0 DUP1 DUP1 PUSH1 0x0 SWAP1 POP JUMPDEST DUP5 MLOAD DUP2 LT ISZERO PUSH2 0xB46 JUMPI DUP3 PUSH1 0x3 PUSH1 0x0 DUP8 DUP5 DUP2 MLOAD DUP2 LT PUSH2 0xA8C JUMPI PUSH2 0xA8B PUSH2 0x23FF JUMP JUMPDEST JUMPDEST PUSH1 0x20 MUL PUSH1 0x20 ADD ADD MLOAD DUP2 MSTORE PUSH1 0x20 ADD SWAP1 DUP2 MSTORE PUSH1 0x20 ADD PUSH1 0x0 KECCAK256 PUSH1 0x1 ADD SLOAD GT ISZERO PUSH2 0xB33 JUMPI PUSH1 0x3 PUSH1 0x0 DUP7 DUP4 DUP2 MLOAD DUP2 LT PUSH2 0xAC3 JUMPI PUSH2 0xAC2 PUSH2 0x23FF JUMP JUMPDEST JUMPDEST PUSH1 0x20 MUL PUSH1 0x20 ADD ADD MLOAD DUP2 MSTORE PUSH1 0x20 ADD SWAP1 DUP2 MSTORE PUSH1 0x20 ADD PUSH1 0x0 KECCAK256 PUSH1 0x1 ADD SLOAD SWAP3 POP PUSH1 0x3 PUSH1 0x0 DUP7 DUP4 DUP2 MLOAD DUP2 LT PUSH2 0xAF6 JUMPI PUSH2 0xAF5 PUSH2 0x23FF JUMP JUMPDEST JUMPDEST PUSH1 0x20 MUL PUSH1 0x20 ADD ADD MLOAD DUP2 MSTORE PUSH1 0x20 ADD SWAP1 DUP2 MSTORE PUSH1 0x20 ADD PUSH1 0x0 KECCAK256 PUSH1 0x0 ADD PUSH1 0x0 SWAP1 SLOAD SWAP1 PUSH2 0x100 EXP SWAP1 DIV PUSH20 0xFFFFFFFFFFFFFFFFFFFFFFFFFFFFFFFFFFFFFFFF AND SWAP2 POP JUMPDEST DUP1 DUP1 PUSH2 0xB3E SWAP1 PUSH2 0x245D JUMP JUMPDEST SWAP2 POP POP PUSH2 0xA6B JUMP JUMPDEST POP DUP1 SWAP3 POP POP POP SWAP2 SWAP1 POP JUMP JUMPDEST PUSH1 0x0 PUSH1 0x1 PUSH1 0x0 DUP5 DUP2 MSTORE PUSH1 0x20 ADD SWAP1 DUP2 MSTORE PUSH1 0x20 ADD PUSH1 0x0 KECCAK256 PUSH1 0x0 ADD PUSH1 0x0 DUP4 PUSH20 0xFFFFFFFFFFFFFFFFFFFFFFFFFFFFFFFFFFFFFFFF AND PUSH20 0xFFFFFFFFFFFFFFFFFFFFFFFFFFFFFFFFFFFFFFFF AND DUP2 MSTORE PUSH1 0x20 ADD SWAP1 DUP2 MSTORE PUSH1 0x20 ADD PUSH1 0x0 KECCAK256 PUSH1 0x0 SWAP1 SLOAD SWAP1 PUSH2 0x100 EXP SWAP1 DIV PUSH1 0xFF AND SWAP1 POP SWAP3 SWAP2 POP POP JUMP JUMPDEST PUSH1 0x0 DUP1 SHL DUP2 JUMP JUMPDEST PUSH2 0xBCD DUP6 DUP6 PUSH2 0x162D JUMP JUMPDEST PUSH1 0x0 PUSH1 0x40 MLOAD DUP1 PUSH1 0x60 ADD PUSH1 0x40 MSTORE DUP1 PUSH1 0x35 DUP2 MSTORE PUSH1 0x20 ADD PUSH2 0x2AFE PUSH1 0x35 SWAP2 CODECOPY DUP1 MLOAD SWAP1 PUSH1 0x20 ADD KECCAK256 DUP6 DUP8 PUSH1 0x40 MLOAD PUSH1 0x20 ADD PUSH2 0xC03 SWAP4 SWAP3 SWAP2 SWAP1 PUSH2 0x24A6 JUMP JUMPDEST PUSH1 0x40 MLOAD PUSH1 0x20 DUP2 DUP4 SUB SUB DUP2 MSTORE SWAP1 PUSH1 0x40 MSTORE DUP1 MLOAD SWAP1 PUSH1 0x20 ADD KECCAK256 SWAP1 POP PUSH2 0xC28 DUP7 DUP3 DUP7 DUP7 DUP7 PUSH2 0x12BE JUMP JUMPDEST PUSH2 0xC67 JUMPI PUSH1 0x40 MLOAD PUSH32 0x8C379A000000000000000000000000000000000000000000000000000000000 DUP2 MSTORE PUSH1 0x4 ADD PUSH2 0xC5E SWAP1 PUSH2 0x218C JUMP JUMPDEST PUSH1 0x40 MLOAD DUP1 SWAP2 SUB SWAP1 REVERT JUMPDEST PUSH1 0x1 PUSH1 0x2 PUSH1 0x0 DUP9 PUSH20 0xFFFFFFFFFFFFFFFFFFFFFFFFFFFFFFFFFFFFFFFF AND PUSH20 0xFFFFFFFFFFFFFFFFFFFFFFFFFFFFFFFFFFFFFFFF AND DUP2 MSTORE PUSH1 0x20 ADD SWAP1 DUP2 MSTORE PUSH1 0x20 ADD PUSH1 0x0 KECCAK256 PUSH1 0x0 DUP8 DUP2 MSTORE PUSH1 0x20 ADD SWAP1 DUP2 MSTORE PUSH1 0x20 ADD PUSH1 0x0 KECCAK256 PUSH1 0x0 PUSH2 0x100 EXP DUP2 SLOAD DUP2 PUSH1 0xFF MUL NOT AND SWAP1 DUP4 ISZERO ISZERO MUL OR SWAP1 SSTORE POP POP POP POP POP POP POP JUMP JUMPDEST PUSH1 0x0 SLOAD DUP2 JUMP JUMPDEST PUSH1 0x0 PUSH20 0xFFFFFFFFFFFFFFFFFFFFFFFFFFFFFFFFFFFFFFFF AND PUSH1 0x3 PUSH1 0x0 DUP4 DUP2 MSTORE PUSH1 0x20 ADD SWAP1 DUP2 MSTORE PUSH1 0x20 ADD PUSH1 0x0 KECCAK256 PUSH1 0x0 ADD PUSH1 0x0 SWAP1 SLOAD SWAP1 PUSH2 0x100 EXP SWAP1 DIV PUSH20 0xFFFFFFFFFFFFFFFFFFFFFFFFFFFFFFFFFFFFFFFF AND PUSH20 0xFFFFFFFFFFFFFFFFFFFFFFFFFFFFFFFFFFFFFFFF AND EQ ISZERO PUSH2 0xD84 JUMPI PUSH1 0x40 MLOAD PUSH32 0x8C379A000000000000000000000000000000000000000000000000000000000 DUP2 MSTORE PUSH1 0x4 ADD PUSH2 0xD7B SWAP1 PUSH2 0x22C6 JUMP JUMPDEST PUSH1 0x40 MLOAD DUP1 SWAP2 SUB SWAP1 REVERT JUMPDEST PUSH2 0xD8C PUSH2 0x13BF JUMP JUMPDEST PUSH20 0xFFFFFFFFFFFFFFFFFFFFFFFFFFFFFFFFFFFFFFFF AND PUSH1 0x3 PUSH1 0x0 DUP4 DUP2 MSTORE PUSH1 0x20 ADD SWAP1 DUP2 MSTORE PUSH1 0x20 ADD PUSH1 0x0 KECCAK256 PUSH1 0x0 ADD PUSH1 0x0 SWAP1 SLOAD SWAP1 PUSH2 0x100 EXP SWAP1 DIV PUSH20 0xFFFFFFFFFFFFFFFFFFFFFFFFFFFFFFFFFFFFFFFF AND PUSH20 0xFFFFFFFFFFFFFFFFFFFFFFFFFFFFFFFFFFFFFFFF AND EQ ISZERO PUSH2 0xE30 JUMPI PUSH1 0x40 MLOAD PUSH32 0x8C379A000000000000000000000000000000000000000000000000000000000 DUP2 MSTORE PUSH1 0x4 ADD PUSH2 0xE27 SWAP1 PUSH2 0x2529 JUMP JUMPDEST PUSH1 0x40 MLOAD DUP1 SWAP2 SUB SWAP1 REVERT JUMPDEST PUSH1 0x4 PUSH1 0x0 PUSH2 0xE3C PUSH2 0x13BF JUMP JUMPDEST PUSH20 0xFFFFFFFFFFFFFFFFFFFFFFFFFFFFFFFFFFFFFFFF AND PUSH20 0xFFFFFFFFFFFFFFFFFFFFFFFFFFFFFFFFFFFFFFFF AND DUP2 MSTORE PUSH1 0x20 ADD SWAP1 DUP2 MSTORE PUSH1 0x20 ADD PUSH1 0x0 KECCAK256 PUSH1 0x0 SWAP1 SLOAD SWAP1 PUSH2 0x100 EXP SWAP1 DIV PUSH1 0xFF AND ISZERO PUSH2 0xEC4 JUMPI PUSH1 0x40 MLOAD PUSH32 0x8C379A000000000000000000000000000000000000000000000000000000000 DUP2 MSTORE PUSH1 0x4 ADD PUSH2 0xEBB SWAP1 PUSH2 0x2595 JUMP JUMPDEST PUSH1 0x40 MLOAD DUP1 SWAP2 SUB SWAP1 REVERT JUMPDEST PUSH1 0x0 PUSH1 0x3 PUSH1 0x0 DUP4 DUP2 MSTORE PUSH1 0x20 ADD SWAP1 DUP2 MSTORE PUSH1 0x20 ADD PUSH1 0x0 KECCAK256 SWAP1 POP PUSH1 0x1 PUSH1 0x4 PUSH1 0x0 PUSH2 0xEE9 PUSH2 0x13BF JUMP JUMPDEST PUSH20 0xFFFFFFFFFFFFFFFFFFFFFFFFFFFFFFFFFFFFFFFF AND PUSH20 0xFFFFFFFFFFFFFFFFFFFFFFFFFFFFFFFFFFFFFFFF AND DUP2 MSTORE PUSH1 0x20 ADD SWAP1 DUP2 MSTORE PUSH1 0x20 ADD PUSH1 0x0 KECCAK256 PUSH1 0x0 PUSH2 0x100 EXP DUP2 SLOAD DUP2 PUSH1 0xFF MUL NOT AND SWAP1 DUP4 ISZERO ISZERO MUL OR SWAP1 SSTORE POP PUSH1 0x1 DUP2 PUSH1 0x1 ADD PUSH1 0x0 DUP3 DUP3 SLOAD PUSH2 0xF4F SWAP2 SWAP1 PUSH2 0x25B5 JUMP JUMPDEST SWAP3 POP POP DUP2 SWAP1 SSTORE POP POP POP JUMP JUMPDEST PUSH2 0xF63 DUP3 PUSH2 0x761 JUMP JUMPDEST PUSH2 0xF74 DUP2 PUSH2 0xF6F PUSH2 0x13BF JUMP JUMPDEST PUSH2 0x13CE JUMP JUMPDEST PUSH2 0xF7E DUP4 DUP4 PUSH2 0x154B JUMP JUMPDEST POP POP POP JUMP JUMPDEST PUSH1 0x0 DUP1 PUSH1 0x0 PUSH20 0xFFFFFFFFFFFFFFFFFFFFFFFFFFFFFFFFFFFFFFFF AND PUSH1 0x3 PUSH1 0x0 DUP6 DUP2 MSTORE PUSH1 0x20 ADD SWAP1 DUP2 MSTORE PUSH1 0x20 ADD PUSH1 0x0 KECCAK256 PUSH1 0x0 ADD PUSH1 0x0 SWAP1 SLOAD SWAP1 PUSH2 0x100 EXP SWAP1 DIV PUSH20 0xFFFFFFFFFFFFFFFFFFFFFFFFFFFFFFFFFFFFFFFF AND PUSH20 0xFFFFFFFFFFFFFFFFFFFFFFFFFFFFFFFFFFFFFFFF AND EQ ISZERO PUSH2 0x102C JUMPI PUSH1 0x40 MLOAD PUSH32 0x8C379A000000000000000000000000000000000000000000000000000000000 DUP2 MSTORE PUSH1 0x4 ADD PUSH2 0x1023 SWAP1 PUSH2 0x22C6 JUMP JUMPDEST PUSH1 0x40 MLOAD DUP1 SWAP2 SUB SWAP1 REVERT JUMPDEST PUSH1 0x3 PUSH1 0x0 DUP5 DUP2 MSTORE PUSH1 0x20 ADD SWAP1 DUP2 MSTORE PUSH1 0x20 ADD PUSH1 0x0 KECCAK256 PUSH1 0x0 ADD PUSH1 0x0 SWAP1 SLOAD SWAP1 PUSH2 0x100 EXP SWAP1 DIV PUSH20 0xFFFFFFFFFFFFFFFFFFFFFFFFFFFFFFFFFFFFFFFF AND PUSH1 0x3 PUSH1 0x0 DUP6 DUP2 MSTORE PUSH1 0x20 ADD SWAP1 DUP2 MSTORE PUSH1 0x20 ADD PUSH1 0x0 KECCAK256 PUSH1 0x1 ADD SLOAD SWAP2 POP SWAP2 POP SWAP2 POP SWAP2 JUMP JUMPDEST PUSH1 0x0 PUSH1 0x2 PUSH1 0x0 DUP5 PUSH20 0xFFFFFFFFFFFFFFFFFFFFFFFFFFFFFFFFFFFFFFFF AND PUSH20 0xFFFFFFFFFFFFFFFFFFFFFFFFFFFFFFFFFFFFFFFF AND DUP2 MSTORE PUSH1 0x20 ADD SWAP1 DUP2 MSTORE PUSH1 0x20 ADD PUSH1 0x0 KECCAK256 PUSH1 0x0 DUP4 DUP2 MSTORE PUSH1 0x20 ADD SWAP1 DUP2 MSTORE PUSH1 0x20 ADD PUSH1 0x0 KECCAK256 PUSH1 0x0 SWAP1 SLOAD SWAP1 PUSH2 0x100 EXP SWAP1 DIV PUSH1 0xFF AND SWAP1 POP SWAP3 SWAP2 POP POP JUMP JUMPDEST PUSH32 0x7B1EEBEF105BD5BBC0D16725B5CF2934CB42BA2F36AD8EFEB6A7200F63F11980 DUP2 JUMP JUMPDEST PUSH1 0x0 ADDRESS PUSH20 0xFFFFFFFFFFFFFFFFFFFFFFFFFFFFFFFFFFFFFFFF AND CALLER PUSH20 0xFFFFFFFFFFFFFFFFFFFFFFFFFFFFFFFFFFFFFFFF AND EQ ISZERO PUSH2 0x11B9 JUMPI PUSH1 0x0 DUP1 CALLDATASIZE DUP1 DUP1 PUSH1 0x1F ADD PUSH1 0x20 DUP1 SWAP2 DIV MUL PUSH1 0x20 ADD PUSH1 0x40 MLOAD SWAP1 DUP2 ADD PUSH1 0x40 MSTORE DUP1 SWAP4 SWAP3 SWAP2 SWAP1 DUP2 DUP2 MSTORE PUSH1 0x20 ADD DUP4 DUP4 DUP1 DUP3 DUP5 CALLDATACOPY PUSH1 0x0 DUP2 DUP5 ADD MSTORE PUSH1 0x1F NOT PUSH1 0x1F DUP3 ADD AND SWAP1 POP DUP1 DUP4 ADD SWAP3 POP POP POP POP POP POP POP SWAP1 POP PUSH1 0x0 DUP1 CALLDATASIZE SWAP1 POP SWAP1 POP PUSH20 0xFFFFFFFFFFFFFFFFFFFFFFFFFFFFFFFFFFFFFFFF DUP2 DUP4 ADD MLOAD AND SWAP3 POP POP POP PUSH2 0x11BD JUMP JUMPDEST CALLER SWAP1 POP JUMPDEST SWAP1 JUMP JUMPDEST PUSH1 0x0 PUSH32 0x1FFC9A700000000000000000000000000000000000000000000000000000000 PUSH28 0xFFFFFFFFFFFFFFFFFFFFFFFFFFFFFFFFFFFFFFFFFFFFFFFFFFFFFFFF NOT AND DUP3 PUSH28 0xFFFFFFFFFFFFFFFFFFFFFFFFFFFFFFFFFFFFFFFFFFFFFFFFFFFFFFFF NOT AND EQ SWAP1 POP SWAP2 SWAP1 POP JUMP JUMPDEST DUP2 TIMESTAMP GT PUSH2 0x126C JUMPI PUSH1 0x40 MLOAD PUSH32 0x8C379A000000000000000000000000000000000000000000000000000000000 DUP2 MSTORE PUSH1 0x4 ADD PUSH2 0x1263 SWAP1 PUSH2 0x267D JUMP JUMPDEST PUSH1 0x40 MLOAD DUP1 SWAP2 SUB SWAP1 REVERT JUMPDEST DUP1 TIMESTAMP LT PUSH2 0x12AE JUMPI PUSH1 0x40 MLOAD PUSH32 0x8C379A000000000000000000000000000000000000000000000000000000000 DUP2 MSTORE PUSH1 0x4 ADD PUSH2 0x12A5 SWAP1 PUSH2 0x270F JUMP JUMPDEST PUSH1 0x40 MLOAD DUP1 SWAP2 SUB SWAP1 REVERT JUMPDEST PUSH2 0x12B8 DUP5 DUP5 PUSH2 0x162D JUMP JUMPDEST POP POP POP POP JUMP JUMPDEST PUSH1 0x0 DUP1 PUSH20 0xFFFFFFFFFFFFFFFFFFFFFFFFFFFFFFFFFFFFFFFF AND DUP7 PUSH20 0xFFFFFFFFFFFFFFFFFFFFFFFFFFFFFFFFFFFFFFFF AND EQ ISZERO PUSH2 0x132F JUMPI PUSH1 0x40 MLOAD PUSH32 0x8C379A000000000000000000000000000000000000000000000000000000000 DUP2 MSTORE PUSH1 0x4 ADD PUSH2 0x1326 SWAP1 PUSH2 0x277B JUMP JUMPDEST PUSH1 0x40 MLOAD DUP1 SWAP2 SUB SWAP1 REVERT JUMPDEST PUSH1 0x1 PUSH2 0x133A DUP7 PUSH2 0x16CF JUMP JUMPDEST DUP4 DUP7 DUP7 PUSH1 0x40 MLOAD PUSH1 0x0 DUP2 MSTORE PUSH1 0x20 ADD PUSH1 0x40 MSTORE PUSH1 0x40 MLOAD PUSH2 0x135A SWAP5 SWAP4 SWAP3 SWAP2 SWAP1 PUSH2 0x27AA JUMP JUMPDEST PUSH1 0x20 PUSH1 0x40 MLOAD PUSH1 0x20 DUP2 SUB SWAP1 DUP1 DUP5 SUB SWAP1 DUP6 GAS STATICCALL ISZERO DUP1 ISZERO PUSH2 0x137C JUMPI RETURNDATASIZE PUSH1 0x0 DUP1 RETURNDATACOPY RETURNDATASIZE PUSH1 0x0 REVERT JUMPDEST POP POP POP PUSH1 0x20 PUSH1 0x40 MLOAD SUB MLOAD PUSH20 0xFFFFFFFFFFFFFFFFFFFFFFFFFFFFFFFFFFFFFFFF AND DUP7 PUSH20 0xFFFFFFFFFFFFFFFFFFFFFFFFFFFFFFFFFFFFFFFF AND EQ SWAP1 POP SWAP6 SWAP5 POP POP POP POP POP JUMP JUMPDEST PUSH1 0x0 PUSH2 0x13C9 PUSH2 0x110F JUMP JUMPDEST SWAP1 POP SWAP1 JUMP JUMPDEST PUSH2 0x13D8 DUP3 DUP3 PUSH2 0xB51 JUMP JUMPDEST PUSH2 0x1467 JUMPI PUSH2 0x13FD DUP2 PUSH20 0xFFFFFFFFFFFFFFFFFFFFFFFFFFFFFFFFFFFFFFFF AND PUSH1 0x14 PUSH2 0x1702 JUMP JUMPDEST PUSH2 0x140B DUP4 PUSH1 0x0 SHR PUSH1 0x20 PUSH2 0x1702 JUMP JUMPDEST PUSH1 0x40 MLOAD PUSH1 0x20 ADD PUSH2 0x141C SWAP3 SWAP2 SWAP1 PUSH2 0x28C3 JUMP JUMPDEST PUSH1 0x40 MLOAD PUSH1 0x20 DUP2 DUP4 SUB SUB DUP2 MSTORE SWAP1 PUSH1 0x40 MSTORE PUSH1 0x40 MLOAD PUSH32 0x8C379A000000000000000000000000000000000000000000000000000000000 DUP2 MSTORE PUSH1 0x4 ADD PUSH2 0x145E SWAP2 SWAP1 PUSH2 0x1AA6 JUMP JUMPDEST PUSH1 0x40 MLOAD DUP1 SWAP2 SUB SWAP1 REVERT JUMPDEST POP POP JUMP JUMPDEST PUSH2 0x1475 DUP3 DUP3 PUSH2 0xB51 JUMP JUMPDEST PUSH2 0x1547 JUMPI PUSH1 0x1 DUP1 PUSH1 0x0 DUP5 DUP2 MSTORE PUSH1 0x20 ADD SWAP1 DUP2 MSTORE PUSH1 0x20 ADD PUSH1 0x0 KECCAK256 PUSH1 0x0 ADD PUSH1 0x0 DUP4 PUSH20 0xFFFFFFFFFFFFFFFFFFFFFFFFFFFFFFFFFFFFFFFF AND PUSH20 0xFFFFFFFFFFFFFFFFFFFFFFFFFFFFFFFFFFFFFFFF AND DUP2 MSTORE PUSH1 0x20 ADD SWAP1 DUP2 MSTORE PUSH1 0x20 ADD PUSH1 0x0 KECCAK256 PUSH1 0x0 PUSH2 0x100 EXP DUP2 SLOAD DUP2 PUSH1 0xFF MUL NOT AND SWAP1 DUP4 ISZERO ISZERO MUL OR SWAP1 SSTORE POP PUSH2 0x14EC PUSH2 0x13BF JUMP JUMPDEST PUSH20 0xFFFFFFFFFFFFFFFFFFFFFFFFFFFFFFFFFFFFFFFF AND DUP2 PUSH20 0xFFFFFFFFFFFFFFFFFFFFFFFFFFFFFFFFFFFFFFFF AND DUP4 PUSH32 0x2F8788117E7EFF1D82E926EC794901D17C78024A50270940304540A733656F0D PUSH1 0x40 MLOAD PUSH1 0x40 MLOAD DUP1 SWAP2 SUB SWAP1 LOG4 JUMPDEST POP POP JUMP JUMPDEST PUSH2 0x1555 DUP3 DUP3 PUSH2 0xB51 JUMP JUMPDEST ISZERO PUSH2 0x1629 JUMPI PUSH1 0x0 PUSH1 0x1 PUSH1 0x0 DUP5 DUP2 MSTORE PUSH1 0x20 ADD SWAP1 DUP2 MSTORE PUSH1 0x20 ADD PUSH1 0x0 KECCAK256 PUSH1 0x0 ADD PUSH1 0x0 DUP4 PUSH20 0xFFFFFFFFFFFFFFFFFFFFFFFFFFFFFFFFFFFFFFFF AND PUSH20 0xFFFFFFFFFFFFFFFFFFFFFFFFFFFFFFFFFFFFFFFF AND DUP2 MSTORE PUSH1 0x20 ADD SWAP1 DUP2 MSTORE PUSH1 0x20 ADD PUSH1 0x0 KECCAK256 PUSH1 0x0 PUSH2 0x100 EXP DUP2 SLOAD DUP2 PUSH1 0xFF MUL NOT AND SWAP1 DUP4 ISZERO ISZERO MUL OR SWAP1 SSTORE POP PUSH2 0x15CE PUSH2 0x13BF JUMP JUMPDEST PUSH20 0xFFFFFFFFFFFFFFFFFFFFFFFFFFFFFFFFFFFFFFFF AND DUP2 PUSH20 0xFFFFFFFFFFFFFFFFFFFFFFFFFFFFFFFFFFFFFFFF AND DUP4 PUSH32 0xF6391F5C32D9C69D2A47EA670B442974B53935D1EDC7FD64EB21E047A839171B PUSH1 0x40 MLOAD PUSH1 0x40 MLOAD DUP1 SWAP2 SUB SWAP1 LOG4 JUMPDEST POP POP JUMP JUMPDEST PUSH1 0x2 PUSH1 0x0 DUP4 PUSH20 0xFFFFFFFFFFFFFFFFFFFFFFFFFFFFFFFFFFFFFFFF AND PUSH20 0xFFFFFFFFFFFFFFFFFFFFFFFFFFFFFFFFFFFFFFFF AND DUP2 MSTORE PUSH1 0x20 ADD SWAP1 DUP2 MSTORE PUSH1 0x20 ADD PUSH1 0x0 KECCAK256 PUSH1 0x0 DUP3 DUP2 MSTORE PUSH1 0x20 ADD SWAP1 DUP2 MSTORE PUSH1 0x20 ADD PUSH1 0x0 KECCAK256 PUSH1 0x0 SWAP1 SLOAD SWAP1 PUSH2 0x100 EXP SWAP1 DIV PUSH1 0xFF AND ISZERO PUSH2 0x16CB JUMPI PUSH1 0x40 MLOAD PUSH32 0x8C379A000000000000000000000000000000000000000000000000000000000 DUP2 MSTORE PUSH1 0x4 ADD PUSH2 0x16C2 SWAP1 PUSH2 0x2949 JUMP JUMPDEST PUSH1 0x40 MLOAD DUP1 SWAP2 SUB SWAP1 REVERT JUMPDEST POP POP JUMP JUMPDEST PUSH1 0x0 DUP1 SLOAD DUP3 PUSH1 0x40 MLOAD PUSH1 0x20 ADD PUSH2 0x16E5 SWAP3 SWAP2 SWAP1 PUSH2 0x29D6 JUMP JUMPDEST PUSH1 0x40 MLOAD PUSH1 0x20 DUP2 DUP4 SUB SUB DUP2 MSTORE SWAP1 PUSH1 0x40 MSTORE DUP1 MLOAD SWAP1 PUSH1 0x20 ADD KECCAK256 SWAP1 POP SWAP2 SWAP1 POP JUMP JUMPDEST PUSH1 0x60 PUSH1 0x0 PUSH1 0x2 DUP4 PUSH1 0x2 PUSH2 0x1715 SWAP2 SWAP1 PUSH2 0x2A0D JUMP JUMPDEST PUSH2 0x171F SWAP2 SWAP1 PUSH2 0x25B5 JUMP JUMPDEST PUSH8 0xFFFFFFFFFFFFFFFF DUP2 GT ISZERO PUSH2 0x1738 JUMPI PUSH2 0x1737 PUSH2 0x1B66 JUMP JUMPDEST JUMPDEST PUSH1 0x40 MLOAD SWAP1 DUP1 DUP3 MSTORE DUP1 PUSH1 0x1F ADD PUSH1 0x1F NOT AND PUSH1 0x20 ADD DUP3 ADD PUSH1 0x40 MSTORE DUP1 ISZERO PUSH2 0x176A JUMPI DUP2 PUSH1 0x20 ADD PUSH1 0x1 DUP3 MUL DUP1 CALLDATASIZE DUP4 CALLDATACOPY DUP1 DUP3 ADD SWAP2 POP POP SWAP1 POP JUMPDEST POP SWAP1 POP PUSH32 0x3000000000000000000000000000000000000000000000000000000000000000 DUP2 PUSH1 0x0 DUP2 MLOAD DUP2 LT PUSH2 0x17A2 JUMPI PUSH2 0x17A1 PUSH2 0x23FF JUMP JUMPDEST JUMPDEST PUSH1 0x20 ADD ADD SWAP1 PUSH31 0xFFFFFFFFFFFFFFFFFFFFFFFFFFFFFFFFFFFFFFFFFFFFFFFFFFFFFFFFFFFFFF NOT AND SWAP1 DUP2 PUSH1 0x0 BYTE SWAP1 MSTORE8 POP PUSH32 0x7800000000000000000000000000000000000000000000000000000000000000 DUP2 PUSH1 0x1 DUP2 MLOAD DUP2 LT PUSH2 0x1806 JUMPI PUSH2 0x1805 PUSH2 0x23FF JUMP JUMPDEST JUMPDEST PUSH1 0x20 ADD ADD SWAP1 PUSH31 0xFFFFFFFFFFFFFFFFFFFFFFFFFFFFFFFFFFFFFFFFFFFFFFFFFFFFFFFFFFFFFF NOT AND SWAP1 DUP2 PUSH1 0x0 BYTE SWAP1 MSTORE8 POP PUSH1 0x0 PUSH1 0x1 DUP5 PUSH1 0x2 PUSH2 0x1846 SWAP2 SWAP1 PUSH2 0x2A0D JUMP JUMPDEST PUSH2 0x1850 SWAP2 SWAP1 PUSH2 0x25B5 JUMP JUMPDEST SWAP1 POP JUMPDEST PUSH1 0x1 DUP2 GT ISZERO PUSH2 0x18F0 JUMPI PUSH32 0x3031323334353637383961626364656600000000000000000000000000000000 PUSH1 0xF DUP7 AND PUSH1 0x10 DUP2 LT PUSH2 0x1892 JUMPI PUSH2 0x1891 PUSH2 0x23FF JUMP JUMPDEST JUMPDEST BYTE PUSH1 0xF8 SHL DUP3 DUP3 DUP2 MLOAD DUP2 LT PUSH2 0x18A9 JUMPI PUSH2 0x18A8 PUSH2 0x23FF JUMP JUMPDEST JUMPDEST PUSH1 0x20 ADD ADD SWAP1 PUSH31 0xFFFFFFFFFFFFFFFFFFFFFFFFFFFFFFFFFFFFFFFFFFFFFFFFFFFFFFFFFFFFFF NOT AND SWAP1 DUP2 PUSH1 0x0 BYTE SWAP1 MSTORE8 POP PUSH1 0x4 DUP6 SWAP1 SHR SWAP5 POP DUP1 PUSH2 0x18E9 SWAP1 PUSH2 0x2A67 JUMP JUMPDEST SWAP1 POP PUSH2 0x1853 JUMP JUMPDEST POP PUSH1 0x0 DUP5 EQ PUSH2 0x1934 JUMPI PUSH1 0x40 MLOAD PUSH32 0x8C379A000000000000000000000000000000000000000000000000000000000 DUP2 MSTORE PUSH1 0x4 ADD PUSH2 0x192B SWAP1 PUSH2 0x2ADD JUMP JUMPDEST PUSH1 0x40 MLOAD DUP1 SWAP2 SUB SWAP1 REVERT JUMPDEST DUP1 SWAP2 POP POP SWAP3 SWAP2 POP POP JUMP JUMPDEST PUSH1 0x0 PUSH1 0x40 MLOAD SWAP1 POP SWAP1 JUMP JUMPDEST PUSH1 0x0 DUP1 REVERT JUMPDEST PUSH1 0x0 DUP1 REVERT JUMPDEST PUSH1 0x0 PUSH32 0xFFFFFFFF00000000000000000000000000000000000000000000000000000000 DUP3 AND SWAP1 POP SWAP2 SWAP1 POP JUMP JUMPDEST PUSH2 0x1987 DUP2 PUSH2 0x1952 JUMP JUMPDEST DUP2 EQ PUSH2 0x1992 JUMPI PUSH1 0x0 DUP1 REVERT JUMPDEST POP JUMP JUMPDEST PUSH1 0x0 DUP2 CALLDATALOAD SWAP1 POP PUSH2 0x19A4 DUP2 PUSH2 0x197E JUMP JUMPDEST SWAP3 SWAP2 POP POP JUMP JUMPDEST PUSH1 0x0 PUSH1 0x20 DUP3 DUP5 SUB SLT ISZERO PUSH2 0x19C0 JUMPI PUSH2 0x19BF PUSH2 0x1948 JUMP JUMPDEST JUMPDEST PUSH1 0x0 PUSH2 0x19CE DUP5 DUP3 DUP6 ADD PUSH2 0x1995 JUMP JUMPDEST SWAP2 POP POP SWAP3 SWAP2 POP POP JUMP JUMPDEST PUSH1 0x0 DUP2 ISZERO ISZERO SWAP1 POP SWAP2 SWAP1 POP JUMP JUMPDEST PUSH2 0x19EC DUP2 PUSH2 0x19D7 JUMP JUMPDEST DUP3 MSTORE POP POP JUMP JUMPDEST PUSH1 0x0 PUSH1 0x20 DUP3 ADD SWAP1 POP PUSH2 0x1A07 PUSH1 0x0 DUP4 ADD DUP5 PUSH2 0x19E3 JUMP JUMPDEST SWAP3 SWAP2 POP POP JUMP JUMPDEST PUSH1 0x0 DUP2 MLOAD SWAP1 POP SWAP2 SWAP1 POP JUMP JUMPDEST PUSH1 0x0 DUP3 DUP3 MSTORE PUSH1 0x20 DUP3 ADD SWAP1 POP SWAP3 SWAP2 POP POP JUMP JUMPDEST PUSH1 0x0 JUMPDEST DUP4 DUP2 LT ISZERO PUSH2 0x1A47 JUMPI DUP1 DUP3 ADD MLOAD DUP2 DUP5 ADD MSTORE PUSH1 0x20 DUP2 ADD SWAP1 POP PUSH2 0x1A2C JUMP JUMPDEST DUP4 DUP2 GT ISZERO PUSH2 0x1A56 JUMPI PUSH1 0x0 DUP5 DUP5 ADD MSTORE JUMPDEST POP POP POP POP JUMP JUMPDEST PUSH1 0x0 PUSH1 0x1F NOT PUSH1 0x1F DUP4 ADD AND SWAP1 POP SWAP2 SWAP1 POP JUMP JUMPDEST PUSH1 0x0 PUSH2 0x1A78 DUP3 PUSH2 0x1A0D JUMP JUMPDEST PUSH2 0x1A82 DUP2 DUP6 PUSH2 0x1A18 JUMP JUMPDEST SWAP4 POP PUSH2 0x1A92 DUP2 DUP6 PUSH1 0x20 DUP7 ADD PUSH2 0x1A29 JUMP JUMPDEST PUSH2 0x1A9B DUP2 PUSH2 0x1A5C JUMP JUMPDEST DUP5 ADD SWAP2 POP POP SWAP3 SWAP2 POP POP JUMP JUMPDEST PUSH1 0x0 PUSH1 0x20 DUP3 ADD SWAP1 POP DUP2 DUP2 SUB PUSH1 0x0 DUP4 ADD MSTORE PUSH2 0x1AC0 DUP2 DUP5 PUSH2 0x1A6D JUMP JUMPDEST SWAP1 POP SWAP3 SWAP2 POP POP JUMP JUMPDEST PUSH1 0x0 PUSH20 0xFFFFFFFFFFFFFFFFFFFFFFFFFFFFFFFFFFFFFFFF DUP3 AND SWAP1 POP SWAP2 SWAP1 POP JUMP JUMPDEST PUSH1 0x0 PUSH2 0x1AF3 DUP3 PUSH2 0x1AC8 JUMP JUMPDEST SWAP1 POP SWAP2 SWAP1 POP JUMP JUMPDEST PUSH2 0x1B03 DUP2 PUSH2 0x1AE8 JUMP JUMPDEST DUP2 EQ PUSH2 0x1B0E JUMPI PUSH1 0x0 DUP1 REVERT JUMPDEST POP JUMP JUMPDEST PUSH1 0x0 DUP2 CALLDATALOAD SWAP1 POP PUSH2 0x1B20 DUP2 PUSH2 0x1AFA JUMP JUMPDEST SWAP3 SWAP2 POP POP JUMP JUMPDEST PUSH1 0x0 DUP2 SWAP1 POP SWAP2 SWAP1 POP JUMP JUMPDEST PUSH2 0x1B39 DUP2 PUSH2 0x1B26 JUMP JUMPDEST DUP2 EQ PUSH2 0x1B44 JUMPI PUSH1 0x0 DUP1 REVERT JUMPDEST POP JUMP JUMPDEST PUSH1 0x0 DUP2 CALLDATALOAD SWAP1 POP PUSH2 0x1B56 DUP2 PUSH2 0x1B30 JUMP JUMPDEST SWAP3 SWAP2 POP POP JUMP JUMPDEST PUSH1 0x0 DUP1 REVERT JUMPDEST PUSH1 0x0 DUP1 REVERT JUMPDEST PUSH32 0x4E487B7100000000000000000000000000000000000000000000000000000000 PUSH1 0x0 MSTORE PUSH1 0x41 PUSH1 0x4 MSTORE PUSH1 0x24 PUSH1 0x0 REVERT JUMPDEST PUSH2 0x1B9E DUP3 PUSH2 0x1A5C JUMP JUMPDEST DUP2 ADD DUP2 DUP2 LT PUSH8 0xFFFFFFFFFFFFFFFF DUP3 GT OR ISZERO PUSH2 0x1BBD JUMPI PUSH2 0x1BBC PUSH2 0x1B66 JUMP JUMPDEST JUMPDEST DUP1 PUSH1 0x40 MSTORE POP POP POP JUMP JUMPDEST PUSH1 0x0 PUSH2 0x1BD0 PUSH2 0x193E JUMP JUMPDEST SWAP1 POP PUSH2 0x1BDC DUP3 DUP3 PUSH2 0x1B95 JUMP JUMPDEST SWAP2 SWAP1 POP JUMP JUMPDEST PUSH1 0x0 PUSH8 0xFFFFFFFFFFFFFFFF DUP3 GT ISZERO PUSH2 0x1BFC JUMPI PUSH2 0x1BFB PUSH2 0x1B66 JUMP JUMPDEST JUMPDEST PUSH2 0x1C05 DUP3 PUSH2 0x1A5C JUMP JUMPDEST SWAP1 POP PUSH1 0x20 DUP2 ADD SWAP1 POP SWAP2 SWAP1 POP JUMP JUMPDEST DUP3 DUP2 DUP4 CALLDATACOPY PUSH1 0x0 DUP4 DUP4 ADD MSTORE POP POP POP JUMP JUMPDEST PUSH1 0x0 PUSH2 0x1C34 PUSH2 0x1C2F DUP5 PUSH2 0x1BE1 JUMP JUMPDEST PUSH2 0x1BC6 JUMP JUMPDEST SWAP1 POP DUP3 DUP2 MSTORE PUSH1 0x20 DUP2 ADD DUP5 DUP5 DUP5 ADD GT ISZERO PUSH2 0x1C50 JUMPI PUSH2 0x1C4F PUSH2 0x1B61 JUMP JUMPDEST JUMPDEST PUSH2 0x1C5B DUP5 DUP3 DUP6 PUSH2 0x1C12 JUMP JUMPDEST POP SWAP4 SWAP3 POP POP POP JUMP JUMPDEST PUSH1 0x0 DUP3 PUSH1 0x1F DUP4 ADD SLT PUSH2 0x1C78 JUMPI PUSH2 0x1C77 PUSH2 0x1B5C JUMP JUMPDEST JUMPDEST DUP2 CALLDATALOAD PUSH2 0x1C88 DUP5 DUP3 PUSH1 0x20 DUP7 ADD PUSH2 0x1C21 JUMP JUMPDEST SWAP2 POP POP SWAP3 SWAP2 POP POP JUMP JUMPDEST PUSH1 0x0 DUP2 SWAP1 POP SWAP2 SWAP1 POP JUMP JUMPDEST PUSH2 0x1CA4 DUP2 PUSH2 0x1C91 JUMP JUMPDEST DUP2 EQ PUSH2 0x1CAF JUMPI PUSH1 0x0 DUP1 REVERT JUMPDEST POP JUMP JUMPDEST PUSH1 0x0 DUP2 CALLDATALOAD SWAP1 POP PUSH2 0x1CC1 DUP2 PUSH2 0x1C9B JUMP JUMPDEST SWAP3 SWAP2 POP POP JUMP JUMPDEST PUSH1 0x0 PUSH1 0xFF DUP3 AND SWAP1 POP SWAP2 SWAP1 POP JUMP JUMPDEST PUSH2 0x1CDD DUP2 PUSH2 0x1CC7 JUMP JUMPDEST DUP2 EQ PUSH2 0x1CE8 JUMPI PUSH1 0x0 DUP1 REVERT JUMPDEST POP JUMP JUMPDEST PUSH1 0x0 DUP2 CALLDATALOAD SWAP1 POP PUSH2 0x1CFA DUP2 PUSH2 0x1CD4 JUMP JUMPDEST SWAP3 SWAP2 POP POP JUMP JUMPDEST PUSH1 0x0 DUP1 PUSH1 0x0 DUP1 PUSH1 0x0 DUP1 PUSH1 0x0 DUP1 PUSH2 0x100 DUP10 DUP12 SUB SLT ISZERO PUSH2 0x1D21 JUMPI PUSH2 0x1D20 PUSH2 0x1948 JUMP JUMPDEST JUMPDEST PUSH1 0x0 PUSH2 0x1D2F DUP12 DUP3 DUP13 ADD PUSH2 0x1B11 JUMP JUMPDEST SWAP9 POP POP PUSH1 0x20 PUSH2 0x1D40 DUP12 DUP3 DUP13 ADD PUSH2 0x1B47 JUMP JUMPDEST SWAP8 POP POP PUSH1 0x40 PUSH2 0x1D51 DUP12 DUP3 DUP13 ADD PUSH2 0x1B47 JUMP JUMPDEST SWAP7 POP POP PUSH1 0x60 PUSH2 0x1D62 DUP12 DUP3 DUP13 ADD PUSH2 0x1B47 JUMP JUMPDEST SWAP6 POP POP PUSH1 0x80 DUP10 ADD CALLDATALOAD PUSH8 0xFFFFFFFFFFFFFFFF DUP2 GT ISZERO PUSH2 0x1D83 JUMPI PUSH2 0x1D82 PUSH2 0x194D JUMP JUMPDEST JUMPDEST PUSH2 0x1D8F DUP12 DUP3 DUP13 ADD PUSH2 0x1C63 JUMP JUMPDEST SWAP5 POP POP PUSH1 0xA0 PUSH2 0x1DA0 DUP12 DUP3 DUP13 ADD PUSH2 0x1CB2 JUMP JUMPDEST SWAP4 POP POP PUSH1 0xC0 PUSH2 0x1DB1 DUP12 DUP3 DUP13 ADD PUSH2 0x1CB2 JUMP JUMPDEST SWAP3 POP POP PUSH1 0xE0 PUSH2 0x1DC2 DUP12 DUP3 DUP13 ADD PUSH2 0x1CEB JUMP JUMPDEST SWAP2 POP POP SWAP3 SWAP6 SWAP9 POP SWAP3 SWAP6 SWAP9 SWAP1 SWAP4 SWAP7 POP JUMP JUMPDEST PUSH1 0x0 PUSH1 0x20 DUP3 DUP5 SUB SLT ISZERO PUSH2 0x1DE8 JUMPI PUSH2 0x1DE7 PUSH2 0x1948 JUMP JUMPDEST JUMPDEST PUSH1 0x0 PUSH2 0x1DF6 DUP5 DUP3 DUP6 ADD PUSH2 0x1CB2 JUMP JUMPDEST SWAP2 POP POP SWAP3 SWAP2 POP POP JUMP JUMPDEST PUSH2 0x1E08 DUP2 PUSH2 0x1C91 JUMP JUMPDEST DUP3 MSTORE POP POP JUMP JUMPDEST PUSH1 0x0 PUSH1 0x20 DUP3 ADD SWAP1 POP PUSH2 0x1E23 PUSH1 0x0 DUP4 ADD DUP5 PUSH2 0x1DFF JUMP JUMPDEST SWAP3 SWAP2 POP POP JUMP JUMPDEST PUSH2 0x1E32 DUP2 PUSH2 0x1B26 JUMP JUMPDEST DUP3 MSTORE POP POP JUMP JUMPDEST PUSH1 0x0 PUSH1 0x20 DUP3 ADD SWAP1 POP PUSH2 0x1E4D PUSH1 0x0 DUP4 ADD DUP5 PUSH2 0x1E29 JUMP JUMPDEST SWAP3 SWAP2 POP POP JUMP JUMPDEST PUSH1 0x0 DUP1 PUSH1 0x40 DUP4 DUP6 SUB SLT ISZERO PUSH2 0x1E6A JUMPI PUSH2 0x1E69 PUSH2 0x1948 JUMP JUMPDEST JUMPDEST PUSH1 0x0 PUSH2 0x1E78 DUP6 DUP3 DUP7 ADD PUSH2 0x1CB2 JUMP JUMPDEST SWAP3 POP POP PUSH1 0x20 PUSH2 0x1E89 DUP6 DUP3 DUP7 ADD PUSH2 0x1B11 JUMP JUMPDEST SWAP2 POP POP SWAP3 POP SWAP3 SWAP1 POP JUMP JUMPDEST PUSH1 0x0 PUSH1 0x20 DUP3 DUP5 SUB SLT ISZERO PUSH2 0x1EA9 JUMPI PUSH2 0x1EA8 PUSH2 0x1948 JUMP JUMPDEST JUMPDEST PUSH1 0x0 PUSH2 0x1EB7 DUP5 DUP3 DUP6 ADD PUSH2 0x1B11 JUMP JUMPDEST SWAP2 POP POP SWAP3 SWAP2 POP POP JUMP JUMPDEST PUSH1 0x0 PUSH8 0xFFFFFFFFFFFFFFFF DUP3 GT ISZERO PUSH2 0x1EDB JUMPI PUSH2 0x1EDA PUSH2 0x1B66 JUMP JUMPDEST JUMPDEST PUSH1 0x20 DUP3 MUL SWAP1 POP PUSH1 0x20 DUP2 ADD SWAP1 POP SWAP2 SWAP1 POP JUMP JUMPDEST PUSH1 0x0 DUP1 REVERT JUMPDEST PUSH1 0x0 PUSH2 0x1F04 PUSH2 0x1EFF DUP5 PUSH2 0x1EC0 JUMP JUMPDEST PUSH2 0x1BC6 JUMP JUMPDEST SWAP1 POP DUP1 DUP4 DUP3 MSTORE PUSH1 0x20 DUP3 ADD SWAP1 POP PUSH1 0x20 DUP5 MUL DUP4 ADD DUP6 DUP2 GT ISZERO PUSH2 0x1F27 JUMPI PUSH2 0x1F26 PUSH2 0x1EEC JUMP JUMPDEST JUMPDEST DUP4 JUMPDEST DUP2 DUP2 LT ISZERO PUSH2 0x1F50 JUMPI DUP1 PUSH2 0x1F3C DUP9 DUP3 PUSH2 0x1CB2 JUMP JUMPDEST DUP5 MSTORE PUSH1 0x20 DUP5 ADD SWAP4 POP POP PUSH1 0x20 DUP2 ADD SWAP1 POP PUSH2 0x1F29 JUMP JUMPDEST POP POP POP SWAP4 SWAP3 POP POP POP JUMP JUMPDEST PUSH1 0x0 DUP3 PUSH1 0x1F DUP4 ADD SLT PUSH2 0x1F6F JUMPI PUSH2 0x1F6E PUSH2 0x1B5C JUMP JUMPDEST JUMPDEST DUP2 CALLDATALOAD PUSH2 0x1F7F DUP5 DUP3 PUSH1 0x20 DUP7 ADD PUSH2 0x1EF1 JUMP JUMPDEST SWAP2 POP POP SWAP3 SWAP2 POP POP JUMP JUMPDEST PUSH1 0x0 PUSH1 0x20 DUP3 DUP5 SUB SLT ISZERO PUSH2 0x1F9E JUMPI PUSH2 0x1F9D PUSH2 0x1948 JUMP JUMPDEST JUMPDEST PUSH1 0x0 DUP3 ADD CALLDATALOAD PUSH8 0xFFFFFFFFFFFFFFFF DUP2 GT ISZERO PUSH2 0x1FBC JUMPI PUSH2 0x1FBB PUSH2 0x194D JUMP JUMPDEST JUMPDEST PUSH2 0x1FC8 DUP5 DUP3 DUP6 ADD PUSH2 0x1F5A JUMP JUMPDEST SWAP2 POP POP SWAP3 SWAP2 POP POP JUMP JUMPDEST PUSH2 0x1FDA DUP2 PUSH2 0x1AE8 JUMP JUMPDEST DUP3 MSTORE POP POP JUMP JUMPDEST PUSH1 0x0 PUSH1 0x20 DUP3 ADD SWAP1 POP PUSH2 0x1FF5 PUSH1 0x0 DUP4 ADD DUP5 PUSH2 0x1FD1 JUMP JUMPDEST SWAP3 SWAP2 POP POP JUMP JUMPDEST PUSH1 0x0 DUP1 PUSH1 0x0 DUP1 PUSH1 0x0 PUSH1 0xA0 DUP7 DUP9 SUB SLT ISZERO PUSH2 0x2017 JUMPI PUSH2 0x2016 PUSH2 0x1948 JUMP JUMPDEST JUMPDEST PUSH1 0x0 PUSH2 0x2025 DUP9 DUP3 DUP10 ADD PUSH2 0x1B11 JUMP JUMPDEST SWAP6 POP POP PUSH1 0x20 PUSH2 0x2036 DUP9 DUP3 DUP10 ADD PUSH2 0x1B47 JUMP JUMPDEST SWAP5 POP POP PUSH1 0x40 PUSH2 0x2047 DUP9 DUP3 DUP10 ADD PUSH2 0x1CB2 JUMP JUMPDEST SWAP4 POP POP PUSH1 0x60 PUSH2 0x2058 DUP9 DUP3 DUP10 ADD PUSH2 0x1CB2 JUMP JUMPDEST SWAP3 POP POP PUSH1 0x80 PUSH2 0x2069 DUP9 DUP3 DUP10 ADD PUSH2 0x1CEB JUMP JUMPDEST SWAP2 POP POP SWAP3 SWAP6 POP SWAP3 SWAP6 SWAP1 SWAP4 POP JUMP JUMPDEST PUSH1 0x0 PUSH1 0x40 DUP3 ADD SWAP1 POP PUSH2 0x208B PUSH1 0x0 DUP4 ADD DUP6 PUSH2 0x1FD1 JUMP JUMPDEST PUSH2 0x2098 PUSH1 0x20 DUP4 ADD DUP5 PUSH2 0x1E29 JUMP JUMPDEST SWAP4 SWAP3 POP POP POP JUMP JUMPDEST PUSH1 0x0 DUP1 PUSH1 0x40 DUP4 DUP6 SUB SLT ISZERO PUSH2 0x20B6 JUMPI PUSH2 0x20B5 PUSH2 0x1948 JUMP JUMPDEST JUMPDEST PUSH1 0x0 PUSH2 0x20C4 DUP6 DUP3 DUP7 ADD PUSH2 0x1B11 JUMP JUMPDEST SWAP3 POP POP PUSH1 0x20 PUSH2 0x20D5 DUP6 DUP3 DUP7 ADD PUSH2 0x1B47 JUMP JUMPDEST SWAP2 POP POP SWAP3 POP SWAP3 SWAP1 POP JUMP JUMPDEST PUSH1 0x0 PUSH1 0xC0 DUP3 ADD SWAP1 POP PUSH2 0x20F4 PUSH1 0x0 DUP4 ADD DUP10 PUSH2 0x1DFF JUMP JUMPDEST PUSH2 0x2101 PUSH1 0x20 DUP4 ADD DUP9 PUSH2 0x1E29 JUMP JUMPDEST PUSH2 0x210E PUSH1 0x40 DUP4 ADD DUP8 PUSH2 0x1E29 JUMP JUMPDEST PUSH2 0x211B PUSH1 0x60 DUP4 ADD DUP7 PUSH2 0x1E29 JUMP JUMPDEST PUSH2 0x2128 PUSH1 0x80 DUP4 ADD DUP6 PUSH2 0x1FD1 JUMP JUMPDEST PUSH2 0x2135 PUSH1 0xA0 DUP4 ADD DUP5 PUSH2 0x1DFF JUMP JUMPDEST SWAP8 SWAP7 POP POP POP POP POP POP POP JUMP JUMPDEST PUSH32 0x4D6574614B6565704C616D6264613A20536967206E6F74206D61746368000000 PUSH1 0x0 DUP3 ADD MSTORE POP JUMP JUMPDEST PUSH1 0x0 PUSH2 0x2176 PUSH1 0x1D DUP4 PUSH2 0x1A18 JUMP JUMPDEST SWAP2 POP PUSH2 0x2181 DUP3 PUSH2 0x2140 JUMP JUMPDEST PUSH1 0x20 DUP3 ADD SWAP1 POP SWAP2 SWAP1 POP JUMP JUMPDEST PUSH1 0x0 PUSH1 0x20 DUP3 ADD SWAP1 POP DUP2 DUP2 SUB PUSH1 0x0 DUP4 ADD MSTORE PUSH2 0x21A5 DUP2 PUSH2 0x2169 JUMP JUMPDEST SWAP1 POP SWAP2 SWAP1 POP JUMP JUMPDEST PUSH1 0x0 DUP2 MLOAD SWAP1 POP SWAP2 SWAP1 POP JUMP JUMPDEST PUSH1 0x0 DUP2 SWAP1 POP SWAP3 SWAP2 POP POP JUMP JUMPDEST PUSH1 0x0 PUSH2 0x21CD DUP3 PUSH2 0x21AC JUMP JUMPDEST PUSH2 0x21D7 DUP2 DUP6 PUSH2 0x21B7 JUMP JUMPDEST SWAP4 POP PUSH2 0x21E7 DUP2 DUP6 PUSH1 0x20 DUP7 ADD PUSH2 0x1A29 JUMP JUMPDEST DUP1 DUP5 ADD SWAP2 POP POP SWAP3 SWAP2 POP POP JUMP JUMPDEST PUSH1 0x0 DUP2 PUSH1 0x60 SHL SWAP1 POP SWAP2 SWAP1 POP JUMP JUMPDEST PUSH1 0x0 PUSH2 0x220B DUP3 PUSH2 0x21F3 JUMP JUMPDEST SWAP1 POP SWAP2 SWAP1 POP JUMP JUMPDEST PUSH1 0x0 PUSH2 0x221D DUP3 PUSH2 0x2200 JUMP JUMPDEST SWAP1 POP SWAP2 SWAP1 POP JUMP JUMPDEST PUSH2 0x2235 PUSH2 0x2230 DUP3 PUSH2 0x1AE8 JUMP JUMPDEST PUSH2 0x2212 JUMP JUMPDEST DUP3 MSTORE POP POP JUMP JUMPDEST PUSH1 0x0 PUSH2 0x2247 DUP3 DUP6 PUSH2 0x21C2 JUMP JUMPDEST SWAP2 POP PUSH2 0x2253 DUP3 DUP5 PUSH2 0x2224 JUMP JUMPDEST PUSH1 0x14 DUP3 ADD SWAP2 POP DUP2 SWAP1 POP SWAP4 SWAP3 POP POP POP JUMP JUMPDEST PUSH1 0x0 PUSH2 0x226F DUP3 DUP5 PUSH2 0x21C2 JUMP JUMPDEST SWAP2 POP DUP2 SWAP1 POP SWAP3 SWAP2 POP POP JUMP JUMPDEST PUSH32 0x43616E64696461746520646F6573206E6F742065786973742E00000000000000 PUSH1 0x0 DUP3 ADD MSTORE POP JUMP JUMPDEST PUSH1 0x0 PUSH2 0x22B0 PUSH1 0x19 DUP4 PUSH2 0x1A18 JUMP JUMPDEST SWAP2 POP PUSH2 0x22BB DUP3 PUSH2 0x227A JUMP JUMPDEST PUSH1 0x20 DUP3 ADD SWAP1 POP SWAP2 SWAP1 POP JUMP JUMPDEST PUSH1 0x0 PUSH1 0x20 DUP3 ADD SWAP1 POP DUP2 DUP2 SUB PUSH1 0x0 DUP4 ADD MSTORE PUSH2 0x22DF DUP2 PUSH2 0x22A3 JUMP JUMPDEST SWAP1 POP SWAP2 SWAP1 POP JUMP JUMPDEST PUSH32 0x416363657373436F6E74726F6C3A2063616E206F6E6C792072656E6F756E6365 PUSH1 0x0 DUP3 ADD MSTORE PUSH32 0x20726F6C657320666F722073656C660000000000000000000000000000000000 PUSH1 0x20 DUP3 ADD MSTORE POP JUMP JUMPDEST PUSH1 0x0 PUSH2 0x2342 PUSH1 0x2F DUP4 PUSH2 0x1A18 JUMP JUMPDEST SWAP2 POP PUSH2 0x234D DUP3 PUSH2 0x22E6 JUMP JUMPDEST PUSH1 0x40 DUP3 ADD SWAP1 POP SWAP2 SWAP1 POP JUMP JUMPDEST PUSH1 0x0 PUSH1 0x20 DUP3 ADD SWAP1 POP DUP2 DUP2 SUB PUSH1 0x0 DUP4 ADD MSTORE PUSH2 0x2371 DUP2 PUSH2 0x2335 JUMP JUMPDEST SWAP1 POP SWAP2 SWAP1 POP JUMP JUMPDEST PUSH32 0x4D6574614B6565704C616D6264613A204E6F742061646D696E00000000000000 PUSH1 0x0 DUP3 ADD MSTORE POP JUMP JUMPDEST PUSH1 0x0 PUSH2 0x23AE PUSH1 0x19 DUP4 PUSH2 0x1A18 JUMP JUMPDEST SWAP2 POP PUSH2 0x23B9 DUP3 PUSH2 0x2378 JUMP JUMPDEST PUSH1 0x20 DUP3 ADD SWAP1 POP SWAP2 SWAP1 POP JUMP JUMPDEST PUSH1 0x0 PUSH1 0x20 DUP3 ADD SWAP1 POP DUP2 DUP2 SUB PUSH1 0x0 DUP4 ADD MSTORE PUSH2 0x23DD DUP2 PUSH2 0x23A1 JUMP JUMPDEST SWAP1 POP SWAP2 SWAP1 POP JUMP JUMPDEST PUSH1 0x0 PUSH2 0x23F0 DUP3 DUP5 PUSH2 0x2224 JUMP JUMPDEST PUSH1 0x14 DUP3 ADD SWAP2 POP DUP2 SWAP1 POP SWAP3 SWAP2 POP POP JUMP JUMPDEST PUSH32 0x4E487B7100000000000000000000000000000000000000000000000000000000 PUSH1 0x0 MSTORE PUSH1 0x32 PUSH1 0x4 MSTORE PUSH1 0x24 PUSH1 0x0 REVERT JUMPDEST PUSH32 0x4E487B7100000000000000000000000000000000000000000000000000000000 PUSH1 0x0 MSTORE PUSH1 0x11 PUSH1 0x4 MSTORE PUSH1 0x24 PUSH1 0x0 REVERT JUMPDEST PUSH1 0x0 PUSH2 0x2468 DUP3 PUSH2 0x1B26 JUMP JUMPDEST SWAP2 POP PUSH32 0xFFFFFFFFFFFFFFFFFFFFFFFFFFFFFFFFFFFFFFFFFFFFFFFFFFFFFFFFFFFFFFFF DUP3 EQ ISZERO PUSH2 0x249B JUMPI PUSH2 0x249A PUSH2 0x242E JUMP JUMPDEST JUMPDEST PUSH1 0x1 DUP3 ADD SWAP1 POP SWAP2 SWAP1 POP JUMP JUMPDEST PUSH1 0x0 PUSH1 0x60 DUP3 ADD SWAP1 POP PUSH2 0x24BB PUSH1 0x0 DUP4 ADD DUP7 PUSH2 0x1DFF JUMP JUMPDEST PUSH2 0x24C8 PUSH1 0x20 DUP4 ADD DUP6 PUSH2 0x1E29 JUMP JUMPDEST PUSH2 0x24D5 PUSH1 0x40 DUP4 ADD DUP5 PUSH2 0x1FD1 JUMP JUMPDEST SWAP5 SWAP4 POP POP POP POP JUMP JUMPDEST PUSH32 0x596F752063616E6E6F7420766F746520666F7220796F757273656C662E000000 PUSH1 0x0 DUP3 ADD MSTORE POP JUMP JUMPDEST PUSH1 0x0 PUSH2 0x2513 PUSH1 0x1D DUP4 PUSH2 0x1A18 JUMP JUMPDEST SWAP2 POP PUSH2 0x251E DUP3 PUSH2 0x24DD JUMP JUMPDEST PUSH1 0x20 DUP3 ADD SWAP1 POP SWAP2 SWAP1 POP JUMP JUMPDEST PUSH1 0x0 PUSH1 0x20 DUP3 ADD SWAP1 POP DUP2 DUP2 SUB PUSH1 0x0 DUP4 ADD MSTORE PUSH2 0x2542 DUP2 PUSH2 0x2506 JUMP JUMPDEST SWAP1 POP SWAP2 SWAP1 POP JUMP JUMPDEST PUSH32 0x596F75206861766520616C726561647920766F7465642E000000000000000000 PUSH1 0x0 DUP3 ADD MSTORE POP JUMP JUMPDEST PUSH1 0x0 PUSH2 0x257F PUSH1 0x17 DUP4 PUSH2 0x1A18 JUMP JUMPDEST SWAP2 POP PUSH2 0x258A DUP3 PUSH2 0x2549 JUMP JUMPDEST PUSH1 0x20 DUP3 ADD SWAP1 POP SWAP2 SWAP1 POP JUMP JUMPDEST PUSH1 0x0 PUSH1 0x20 DUP3 ADD SWAP1 POP DUP2 DUP2 SUB PUSH1 0x0 DUP4 ADD MSTORE PUSH2 0x25AE DUP2 PUSH2 0x2572 JUMP JUMPDEST SWAP1 POP SWAP2 SWAP1 POP JUMP JUMPDEST PUSH1 0x0 PUSH2 0x25C0 DUP3 PUSH2 0x1B26 JUMP JUMPDEST SWAP2 POP PUSH2 0x25CB DUP4 PUSH2 0x1B26 JUMP JUMPDEST SWAP3 POP DUP3 PUSH32 0xFFFFFFFFFFFFFFFFFFFFFFFFFFFFFFFFFFFFFFFFFFFFFFFFFFFFFFFFFFFFFFFF SUB DUP3 GT ISZERO PUSH2 0x2600 JUMPI PUSH2 0x25FF PUSH2 0x242E JUMP JUMPDEST JUMPDEST DUP3 DUP3 ADD SWAP1 POP SWAP3 SWAP2 POP POP JUMP JUMPDEST PUSH32 0x4D6574614B6565704C616D6264613A20417574686F72697A6174696F6E206973 PUSH1 0x0 DUP3 ADD MSTORE PUSH32 0x206E6F742079657420676976656E000000000000000000000000000000000000 PUSH1 0x20 DUP3 ADD MSTORE POP JUMP JUMPDEST PUSH1 0x0 PUSH2 0x2667 PUSH1 0x2E DUP4 PUSH2 0x1A18 JUMP JUMPDEST SWAP2 POP PUSH2 0x2672 DUP3 PUSH2 0x260B JUMP JUMPDEST PUSH1 0x40 DUP3 ADD SWAP1 POP SWAP2 SWAP1 POP JUMP JUMPDEST PUSH1 0x0 PUSH1 0x20 DUP3 ADD SWAP1 POP DUP2 DUP2 SUB PUSH1 0x0 DUP4 ADD MSTORE PUSH2 0x2696 DUP2 PUSH2 0x265A JUMP JUMPDEST SWAP1 POP SWAP2 SWAP1 POP JUMP JUMPDEST PUSH32 0x4D6574614B6565704C616D6264613A20417574686F72697A6174696F6E206861 PUSH1 0x0 DUP3 ADD MSTORE PUSH32 0x7320657870697265640000000000000000000000000000000000000000000000 PUSH1 0x20 DUP3 ADD MSTORE POP JUMP JUMPDEST PUSH1 0x0 PUSH2 0x26F9 PUSH1 0x29 DUP4 PUSH2 0x1A18 JUMP JUMPDEST SWAP2 POP PUSH2 0x2704 DUP3 PUSH2 0x269D JUMP JUMPDEST PUSH1 0x40 DUP3 ADD SWAP1 POP SWAP2 SWAP1 POP JUMP JUMPDEST PUSH1 0x0 PUSH1 0x20 DUP3 ADD SWAP1 POP DUP2 DUP2 SUB PUSH1 0x0 DUP4 ADD MSTORE PUSH2 0x2728 DUP2 PUSH2 0x26EC JUMP JUMPDEST SWAP1 POP SWAP2 SWAP1 POP JUMP JUMPDEST PUSH32 0x4D6574614B6565704C616D6264613A20494E56414C49445F5349474E45520000 PUSH1 0x0 DUP3 ADD MSTORE POP JUMP JUMPDEST PUSH1 0x0 PUSH2 0x2765 PUSH1 0x1E DUP4 PUSH2 0x1A18 JUMP JUMPDEST SWAP2 POP PUSH2 0x2770 DUP3 PUSH2 0x272F JUMP JUMPDEST PUSH1 0x20 DUP3 ADD SWAP1 POP SWAP2 SWAP1 POP JUMP JUMPDEST PUSH1 0x0 PUSH1 0x20 DUP3 ADD SWAP1 POP DUP2 DUP2 SUB PUSH1 0x0 DUP4 ADD MSTORE PUSH2 0x2794 DUP2 PUSH2 0x2758 JUMP JUMPDEST SWAP1 POP SWAP2 SWAP1 POP JUMP JUMPDEST PUSH2 0x27A4 DUP2 PUSH2 0x1CC7 JUMP JUMPDEST DUP3 MSTORE POP POP JUMP JUMPDEST PUSH1 0x0 PUSH1 0x80 DUP3 ADD SWAP1 POP PUSH2 0x27BF PUSH1 0x0 DUP4 ADD DUP8 PUSH2 0x1DFF JUMP JUMPDEST PUSH2 0x27CC PUSH1 0x20 DUP4 ADD DUP7 PUSH2 0x279B JUMP JUMPDEST PUSH2 0x27D9 PUSH1 0x40 DUP4 ADD DUP6 PUSH2 0x1DFF JUMP JUMPDEST PUSH2 0x27E6 PUSH1 0x60 DUP4 ADD DUP5 PUSH2 0x1DFF JUMP JUMPDEST SWAP6 SWAP5 POP POP POP POP POP JUMP JUMPDEST PUSH1 0x0 DUP2 SWAP1 POP SWAP3 SWAP2 POP POP JUMP JUMPDEST PUSH32 0x416363657373436F6E74726F6C3A206163636F756E7420000000000000000000 PUSH1 0x0 DUP3 ADD MSTORE POP JUMP JUMPDEST PUSH1 0x0 PUSH2 0x2830 PUSH1 0x17 DUP4 PUSH2 0x27EF JUMP JUMPDEST SWAP2 POP PUSH2 0x283B DUP3 PUSH2 0x27FA JUMP JUMPDEST PUSH1 0x17 DUP3 ADD SWAP1 POP SWAP2 SWAP1 POP JUMP JUMPDEST PUSH1 0x0 PUSH2 0x2851 DUP3 PUSH2 0x1A0D JUMP JUMPDEST PUSH2 0x285B DUP2 DUP6 PUSH2 0x27EF JUMP JUMPDEST SWAP4 POP PUSH2 0x286B DUP2 DUP6 PUSH1 0x20 DUP7 ADD PUSH2 0x1A29 JUMP JUMPDEST DUP1 DUP5 ADD SWAP2 POP POP SWAP3 SWAP2 POP POP JUMP JUMPDEST PUSH32 0x206973206D697373696E6720726F6C6520000000000000000000000000000000 PUSH1 0x0 DUP3 ADD MSTORE POP JUMP JUMPDEST PUSH1 0x0 PUSH2 0x28AD PUSH1 0x11 DUP4 PUSH2 0x27EF JUMP JUMPDEST SWAP2 POP PUSH2 0x28B8 DUP3 PUSH2 0x2877 JUMP JUMPDEST PUSH1 0x11 DUP3 ADD SWAP1 POP SWAP2 SWAP1 POP JUMP JUMPDEST PUSH1 0x0 PUSH2 0x28CE DUP3 PUSH2 0x2823 JUMP JUMPDEST SWAP2 POP PUSH2 0x28DA DUP3 DUP6 PUSH2 0x2846 JUMP JUMPDEST SWAP2 POP PUSH2 0x28E5 DUP3 PUSH2 0x28A0 JUMP JUMPDEST SWAP2 POP PUSH2 0x28F1 DUP3 DUP5 PUSH2 0x2846 JUMP JUMPDEST SWAP2 POP DUP2 SWAP1 POP SWAP4 SWAP3 POP POP POP JUMP JUMPDEST PUSH32 0x4D6574614B6565704C616D6264613A204E6F6E63652055736564000000000000 PUSH1 0x0 DUP3 ADD MSTORE POP JUMP JUMPDEST PUSH1 0x0 PUSH2 0x2933 PUSH1 0x1A DUP4 PUSH2 0x1A18 JUMP JUMPDEST SWAP2 POP PUSH2 0x293E DUP3 PUSH2 0x28FD JUMP JUMPDEST PUSH1 0x20 DUP3 ADD SWAP1 POP SWAP2 SWAP1 POP JUMP JUMPDEST PUSH1 0x0 PUSH1 0x20 DUP3 ADD SWAP1 POP DUP2 DUP2 SUB PUSH1 0x0 DUP4 ADD MSTORE PUSH2 0x2962 DUP2 PUSH2 0x2926 JUMP JUMPDEST SWAP1 POP SWAP2 SWAP1 POP JUMP JUMPDEST PUSH32 0x1901000000000000000000000000000000000000000000000000000000000000 PUSH1 0x0 DUP3 ADD MSTORE POP JUMP JUMPDEST PUSH1 0x0 PUSH2 0x299F PUSH1 0x2 DUP4 PUSH2 0x27EF JUMP JUMPDEST SWAP2 POP PUSH2 0x29AA DUP3 PUSH2 0x2969 JUMP JUMPDEST PUSH1 0x2 DUP3 ADD SWAP1 POP SWAP2 SWAP1 POP JUMP JUMPDEST PUSH1 0x0 DUP2 SWAP1 POP SWAP2 SWAP1 POP JUMP JUMPDEST PUSH2 0x29D0 PUSH2 0x29CB DUP3 PUSH2 0x1C91 JUMP JUMPDEST PUSH2 0x29B5 JUMP JUMPDEST DUP3 MSTORE POP POP JUMP JUMPDEST PUSH1 0x0 PUSH2 0x29E1 DUP3 PUSH2 0x2992 JUMP JUMPDEST SWAP2 POP PUSH2 0x29ED DUP3 DUP6 PUSH2 0x29BF JUMP JUMPDEST PUSH1 0x20 DUP3 ADD SWAP2 POP PUSH2 0x29FD DUP3 DUP5 PUSH2 0x29BF JUMP JUMPDEST PUSH1 0x20 DUP3 ADD SWAP2 POP DUP2 SWAP1 POP SWAP4 SWAP3 POP POP POP JUMP JUMPDEST PUSH1 0x0 PUSH2 0x2A18 DUP3 PUSH2 0x1B26 JUMP JUMPDEST SWAP2 POP PUSH2 0x2A23 DUP4 PUSH2 0x1B26 JUMP JUMPDEST SWAP3 POP DUP2 PUSH32 0xFFFFFFFFFFFFFFFFFFFFFFFFFFFFFFFFFFFFFFFFFFFFFFFFFFFFFFFFFFFFFFFF DIV DUP4 GT DUP3 ISZERO ISZERO AND ISZERO PUSH2 0x2A5C JUMPI PUSH2 0x2A5B PUSH2 0x242E JUMP JUMPDEST JUMPDEST DUP3 DUP3 MUL SWAP1 POP SWAP3 SWAP2 POP POP JUMP JUMPDEST PUSH1 0x0 PUSH2 0x2A72 DUP3 PUSH2 0x1B26 JUMP JUMPDEST SWAP2 POP PUSH1 0x0 DUP3 EQ ISZERO PUSH2 0x2A86 JUMPI PUSH2 0x2A85 PUSH2 0x242E JUMP JUMPDEST JUMPDEST PUSH1 0x1 DUP3 SUB SWAP1 POP SWAP2 SWAP1 POP JUMP JUMPDEST PUSH32 0x537472696E67733A20686578206C656E67746820696E73756666696369656E74 PUSH1 0x0 DUP3 ADD MSTORE POP JUMP JUMPDEST PUSH1 0x0 PUSH2 0x2AC7 PUSH1 0x20 DUP4 PUSH2 0x1A18 JUMP JUMPDEST SWAP2 POP PUSH2 0x2AD2 DUP3 PUSH2 0x2A91 JUMP JUMPDEST PUSH1 0x20 DUP3 ADD SWAP1 POP SWAP2 SWAP1 POP JUMP JUMPDEST PUSH1 0x0 PUSH1 0x20 DUP3 ADD SWAP1 POP DUP2 DUP2 SUB PUSH1 0x0 DUP4 ADD MSTORE PUSH2 0x2AF6 DUP2 PUSH2 0x2ABA JUMP JUMPDEST SWAP1 POP SWAP2 SWAP1 POP JUMP INVALID 0x4D PUSH6 0x74614B656570 0x4C PUSH2 0x6D62 PUSH5 0x6143616E63 PUSH6 0x6C4E6F6E6365 0x28 PUSH22 0x696E74323536206E6F6E63652C616464726573732066 PUSH19 0x6F6D294D6574614B6565704C616D6264615472 PUSH2 0x6E73 PUSH2 0x6374 PUSH10 0x6F6E2875696E74323536 KECCAK256 PUSH15 0x6F6E63652C75696E74323536207661 PUSH13 0x696446726F6D2C75696E743235 CALLDATASIZE KECCAK256 PUSH23 0x616C69645570746F2C616464726573732066726F6D2C62 PUSH26 0x7465732066756E6374696F6E5369676E617475726529A2646970 PUSH7 0x73582212201551 0xCD 0xB2 PUSH10 0xFFD6E2CA2166965818DE DUP11 ADDRESS DUP15 DUP10 PUSH31 0x38F50CEC9DCAD905B33D123B64736F6C63430008090033454950373132446F PUSH14 0x61696E28737472696E67206E616D PUSH6 0x2C737472696E PUSH8 0x2076657273696F6E 0x2C PUSH2 0x6464 PUSH19 0x65737320766572696679696E67436F6E747261 PUSH4 0x742C6279 PUSH21 0x657333322073616C74290000000000000000000000 "},"methodIdentifiers":{"DEFAULT_ADMIN_ROLE()":"a217fddf","ERC712_VERSION()":"0f7e5970","METAKEEP_LAMBDA_ADMIN_ROLE()":"fca88447","cancelMetaKeepLambdaNonce(address,uint256,bytes32,bytes32,uint8)":"c0dcaeeb","domainSeperator()":"cb73ac56","executeMetaKeepLambdaTransaction(address,uint256,uint256,uint256,bytes,bytes32,bytes32,uint8)":"243ed11d","getCandidate(bytes32)":"dfb6419f","getRoleAdmin(bytes32)":"248a9ca3","getWinner(bytes32[])":"9149d9e1","grantRole(bytes32,address)":"2f2ff15d","hasRole(bytes32,address)":"91d14854","metaKeepLambdaNonceState(address,uint256)":"ebe9b0f2","registerCandidate(address)":"84aa3b93","renounceRole(bytes32,address)":"36568abe","revokeRole(bytes32,address)":"d547741f","supportsInterface(bytes4)":"01ffc9a7","totalVotesFor(bytes32)":"2f265cf7","voteForCandidate(bytes32)":"cc9ab267"}}}}}